:100000000C94B0020C94CD020C94CD020C94CD0251
:100010000C94400E0C94690E0C94920E0C94BB0E32
:100020000C94CD020C94210D0C944A0D0C94730D7C
:100030000C94EE0D0C949C0D0C94C50D0C94170EA5
:100040000C94A60C0C94CF0C0C94F80C0C94CD02D0
:100050000C94CD020C94CD020C94CD020C94CD02E4
:100060000C94CD020C94CD020C94CD020C94CD02D4
:100070000C94CD020C94CD020C94CD022A0A2D0AC8
:10008000300A330A3C0A360A390A3F0A420A450A4C
:10009000480A4B0A4E0A510A540A570A5A0A5D0A7C
:1000A000600A710A740A770A7A0A830A7D0A800A4A
:1000B000860A890A8C0A8F0A920A950A980A9B0A6C
:1000C0009E0AA10AA40AA70A07634236B79BD8A7CB
:1000D0001A39685618AEBAAB558C1D3CB7CC57636D
:1000E000BD6DEDFD753EF6177231BF000000803F1B
:1000F00008000000BE922449123EABAAAA2ABECD37
:10010000CCCC4C3E00000080BEABAAAAAA3E0000A8
:100110000000BF000000803F0000000000084178A0
:10012000D3BB4387D1133D190E3CC3BD4282AD2BD7
:100130003E68EC8276BED98FE1A93E4C80EFFFBECF
:1001400001C4FF7F3F000000000016050100000011
:1001500000000000FA000000E000E00028FE28FE99
:10016000282454FE5448C4C81026466C92AA44A0C1
:1001700000A0C000000038448200008244380028FB
:10018000107C102810107C1010000A0C00001010B9
:10019000101010000606000004081020407C8A920F
:1001A000A27C0042FE020042868A92628482A2D22F
:1001B0008C182848FE08E4A2A2A29C3C5292920C01
:1001C000808E90A0C06C9292926C60929294780013
:1001D0006C6C0000006A6C00001028448200282823
:1001E000282828008244281040808A90604C929EE3
:1001F000827C7E8888887EFE9292926C7C8282824B
:1002000044FE82824438FE92929282FE90909080C8
:100210007C8292925EFE101010FE0082FE8200042C
:100220000282FC80FE10284482FE02020202FE408E
:100230003040FEFE201008FE7C8282827CFE909080
:1002400090607C828A847AFE909894626292929204
:100250008C8080FE8080FC020202FCF8040204F81C
:10026000FC021C02FCC6281028C6E0100E10E08616
:100270008A92A2C200FE82820040201008040082FE
:1002800082FE0020408040200202020202008040E4
:100290002000042A2A2A1EFE1222221C1C222222AC
:1002A000041C222212FE1C2A2A2A18107E9080404A
:1002B000304A4A4A7CFE1020201E0022BE02000462
:1002C0000222BC00FE081422000082FE02003E2032
:1002D00018201E3E1020201E1C2222221C3E2828F0
:1002E0002810102828183E3E10202010122A2A2AF2
:1002F0000420FC2202043C0202043E3804020438BA
:100300003C020C023C2214081422300A0A0A3C2245
:10031000262A322200106C82000000FE00000082BB
:100320006C1000081010081000000000007F818190
:10033000817F7F8383837F7F8787877F7F8F8F8F77
:100340007F7F9F9F9F7F7FBFBFBF7F7FFFFFFF7F1D
:100350002040FF4020621517156500FBFB000000E0
:1003600000000000C0FF0300E0FF0700F0FF0F00E7
:10037000F8FF1F0078001E0078001E0078001E00A5
:1003800078001E0078001E0078001E0078001E0015
:1003900078001E0078001E00000000000000000031
:1003A00080FF0300E0FF0700F0FF0F00F8FF1F00D1
:1003B000F83C1F00783C1E00783C1E00783C1E0074
:1003C000783C1E00783C1E00783C1E00783C1E00E5
:1003D000783C1E00783C1E00783C1E0000000000A7
:1003E00000000000E0FF0300F0FF0700F8FF0F002F
:1003F000F8FF1F00783C1E00783C1E00783C1E0071
:10040000783C1E00783C1E00783C1E00783C1E00A4
:10041000783C1E00783C1E00783C1E000000000066
:1004200000000000F8FF0300F8FF0F00F8FF1F00B6
:10043000F8FF1F0000001E0000001E0000801F00CB
:1004400000F01F0000FF0F00E0FF0700F0FF0000BA
:10045000F80F0000F80000007800000078000000AD
:10046000F8FF1F00F8FF1F00F0FF1F00E0FF1F0054
:100470000000000000000000F8FF1F00F8FF1F0050
:10048000F8FF1F00F8FF1F0078001E00783C1E00D8
:10049000783C1E00783C1E00783C1E00783C1E0014
:1004A000783C1E00F87E1F00F8FF1F00F0FF0F00D1
:1004B000E0E703000000000000003800EEFF6C00E1
:1004C0002A8045003A0047FC03FF6CFC83FF39009B
:1004D000DEFF0B7CD0810BFCD0810BC0D0810BFCEC
:1004E000D0810B7CDEFF0B0082FF397002FF6CF8BD
:1004F0003A0047DC2A8045CCEEFF6CCC0000380087
:100500000000000C00001E0C00001E0000001E0079
:1005100000001E0000001E00F8FF1F00F8FF1F0073
:10052000F8FF1F00F8FF1F0000001E0000001E0063
:1005300000001E0000001E0000005E0000004000E1
:1005400000007C00000040000000400000007C0033
:1005500000003000000010000000300000007C00AF
:1005600011241FBECFEFD8E0DEBFCDBF11E0A0E069
:10057000B1E0ECE8F1E402C005900D92AC3FB107A8
:10058000D9F713E0ACEFB1E001C01D92AC30B10778
:10059000E1F70E9479050C94C4200C940000EF92BE
:1005A000FF920F931F93DF93CF93CDB7DEB7619781
:1005B0000FB6F894DEBF0FBECDBF19821A821B8220
:1005C0000E949F050E94400880E00E942F0C80E05E
:1005D00063E040E020E00F2EF0E8EF2EF5E2FF2E82
:1005E000F0E00F2FF0E01F2FF02D0E949C0B0E94D7
:1005F000820500D08DB79EB7019620E031E0FC0166
:10060000318320830E94F11D0F900F908A818B838C
:1006100089818A838A81882F90E08230910509F44C
:1006200043C08330910534F4009789F081309105FF
:1006300049F17CC08430910509F460C08430910593
:100640000CF447C08530910509F46DC06FC00E945D
:1006500075040E9482058981282F30E000D000D0E7
:100660008DB79EB7019649E151E0FC01518340836B
:10067000FC01338322830E94F11D0F900F900F9095
:100680000F9066C00E9482040E94820500D08DB740
:100690009EB7019624E231E0FC01318320830E9461
:1006A000F11D0F900F9054C00E94E0040E9482053B
:1006B00000D08DB79EB701962DE231E0FC01318369
:1006C00020830E94F11D0F900F908B810E943D05A9
:1006D0003FC00E948F040E94820500D08DB79EB754
:1006E000019628E331E0FC01318320830E94F11D53
:1006F0000F900F908B810E943D052AC00E94320509
:100700000E94820500D08DB79EB7019622E431E0A9
:10071000FC01318320830E94F11D0F900F908B818B
:100720000E943D0515C00E94580512C00E94580540
:100730000E94820500D08DB79EB701962EE431E06D
:10074000FC01318320830E94F11D0F900F90000067
:1007500080E00E94AA0A882391F083E089830E94A6
:10076000820500D08DB79EB701962CE531E0FC01E3
:10077000318320830E94F11D0F900F902CC081E0E7
:100780000E94AA0A882389F019820E94820500D05B
:100790008DB79EB7019626E631E0FC0131832083B8
:1007A0000E94F11D0F900F9016C082E00E94AA0ACD
:1007B000882389F082E089830E94820500D08DB76A
:1007C0009EB701962EE631E0FC01318320830E9422
:1007D000F11D0F900F9089818F5F89838981863009
:1007E00008F0198280E090E4ACE9B5E48C839D8345
:1007F000AE83BF836C817D818E819F8120E030E458
:100800004CE955E40E94501ADC01CB018887998796
:10081000AA87BB8711E0688579858A859B8520E05A
:1008200030E040E85FE30E94C81888230CF010E035
:10083000112329F081E090E09D878C8746C011E06C
:10084000688579858A859B8520E03FEF4FE757E4EF
:100850000E94121A18160CF010E0112361F16C813D
:100860007D818E819F8120E030E040E251E40E9452
:10087000501ADC01CB01BC01CD010E943419DC010E
:10088000CB019D878C8712C084EF91E09F878E8774
:100890008E859F858C01C8010197F1F78C011F8718
:1008A0000E878C859D8501979D878C878C859D857E
:1008B000009751F717C0688579858A859B850E94C6
:1008C0003419DC01CB019D878C878C859D85998BA4
:1008D000888B888999898C01F8013197F1F78F010C
:1008E000198B088B0E94580591CEDF93CF93CDB71B
:1008F000DEB782E060E046E950E00E949708CF91C1
:10090000DF910895DF93CF93CDB7DEB782E061E04A
:1009100046E950E00E949708CF91DF9108958F92A9
:10092000AF92BF92CF92EF92FF920F931F93DF93FC
:10093000CF93CDB7DEB78DB79EB709970FB6F894B2
:100940009EBF0FBE8DBF8DB79EB7019626E930E0E2
:10095000FC013183208328EC30E0FC0133832283C7
:1009600020E931E0FC0135832483FC011682FC017F
:100970001086178280E062E041E026E930E008EC72
:1009800010E00F2EF0E9EF2EF1E0FF2EF02DCC2439
:10099000AA24BB2488240E9499078DB79EB7099684
:1009A0000FB6F8949EBF0FBE8DBFCF91DF911F9100
:1009B0000F91FF90EF90CF90BF90AF908F900895E0
:1009C0008F92AF92BF92CF92EF92FF920F931F93AD
:1009D000DF93CF93CDB7DEB78DB79EB709970FB62C
:1009E000F8949EBF0FBE8DBF8DB79EB7019626E9C6
:1009F00030E0FC013183208328EC30E0FC013383BC
:100A0000228320E931E0FC0135832483FC01168236
:100A1000FC011086178280E062E040E026E930E0C9
:100A200008EC10E00F2EF0E9EF2EF1E0FF2EF02D94
:100A3000CC24AA24BB24882483940E9499078DB7D0
:100A40009EB709960FB6F8949EBF0FBE8DBFCF918B
:100A5000DF911F910F91FF90EF90CF90BF90AF90DB
:100A60008F900895DF93CF93CDB7DEB70E94E00457
:100A70000E94E004CF91DF910895DF93CF930F920E
:100A8000CDB7DEB789838981882319F40E94750464
:100A90000BC08981813019F40E94820405C08981CC
:100AA000853011F40E9458050F90CF91DF91089581
:100AB000DF93CF93CDB7DEB782E060E00E94A80954
:100AC0000E94820500D08DB79EB7019629E731E0DC
:100AD000FC01318320830E94F11D0F900F90CF9174
:100AE000DF910895DF93CF93CDB7DEB7CF91DF913C
:100AF00008950E94A40C0E94960C0E94CF0280E0F0
:100B000090E008950F931F9380E460E00E946106D7
:100B100000E0802F60E00E94480610E080E061E085
:100B20000E9461061F5F1038C9F70F5F043089F714
:100B300083E060E00E9441061F910F9108950F939A
:100B40001F9382E00E941B0A882311F482E006C0F2
:100B500081E00E941B0A882319F481E090E06DC0B7
:100B60000E94F80E85E061E00E94630A8EEA60E070
:100B70000E94610682EA60E00E94610680EA60E00D
:100B80000E94610600E513ECC8010197F1F780ECC3
:100B900060E00E9461068FE260E00E94610681E8E9
:100BA00060E00E94610686E160E00E94610682E2E8
:100BB00060E00E946106C8010197F1F78FEA60E0EA
:100BC0000E94610686EA60E00E94610685EA60E0B4
:100BD0000E94610680E090E028E833E1F901319756
:100BE000F1F7019643E0883E9407C1F783EB60E09C
:100BF0000E94610680E460E00E94610683E060E09C
:100C00000E94480683E060E00E9441061092A40220
:100C10001092A6021092A50287EA91E09093090330
:100C20008093080388E10E9420060E94820584EADE
:100C300060E00E94610685E091E01F910F910895A8
:100C40001F93182F85E00E941B0A8130C1F487E0B2
:100C50000E947C0682E06AE00E94CD0682E061EBA1
:100C60000E94CD06612F113208F060E282E00E94FE
:100C7000CD0689EE8A95F1F787E00E947C061F91E8
:100C8000089583706F776093A2028093A302089502
:100C90000F931F93062F162F1F778370806B60E0D2
:100CA0000E94610612951F70812F806160E00E9492
:100CB0006106802F8F7060E00E9461061F910F9186
:100CC00008950F931F93082F162F85E00E941B0A8B
:100CD000813079F4112319F0113021F402C02B98DE
:100CE00001C02B9A86E08A95F1F780E0602F0E9480
:100CF000CD061F910F9108951F93182F82E00E9437
:100D00001B0A813009F047C0912F97708091A7028C
:100D1000981709F440C09093A70285B1887F892B6A
:100D200085B9933011F1943028F4913051F092301C
:100D300090F40CC0953019F19530E0F0963021F523
:100D40000FC0E0914E02F0914F0222C0E0914C02A0
:100D5000F0914D021DC0E0915002F091510218C077
:100D6000E0915802F091590213C0E0915202F091C3
:100D700053020EC0E0915402F091550209C0E09177
:100D80005602F091570204C0E0915A02F0915B02C2
:100D9000309709F009951F9108951F93162F0E940F
:100DA0007C0682E00E941B0A813021F41EBD0DB436
:100DB00007FEFDCF1F9108952F923F924F925F92B1
:100DC0006F927F928F929F92AF92BF92CF92DF925B
:100DD000EF92FF920F931F93DF93CF93CDB7DEB7C0
:100DE000582E962E442E39013C2CC98CDA8C2B8C33
:100DF00081E0681739F1681728F092E0691709F067
:100E000085C049C080E061E00E94E50880E0B7014C
:100E10000E94AE0880E0642DA3019801032DEE240A
:100E2000E394EFEDCE2EE2E0DE2E0E941C09552069
:100E300009F06CC000D00F92EDB7FEB71182B382FB
:100E4000A28223C081E061E00E94E50881E0B60152
:100E50000E94AE0881E0682D4D895E892F89388D0A
:100E6000022DEE24E3947FEDC72E72E0D72E0E9470
:100E70001C09552009F04AC000D00F92EDB7FEB70B
:100E800091828C8D9D8D938382830E94CD090F90DA
:100E90000F900F903BC082E061E00E94E50880E087
:100EA000B7010E94AE0881E0B6010E94AE0880E062
:100EB000642DA3019801032DEE24E3949FEDC92E28
:100EC00092E0D92E0E941C0981E0682D4D895E892F
:100ED0002F89388D022D0E941C095520B9F400D0AD
:100EE00000D00F92ADB7BEB71196EDB7FEB79182A5
:100EF000FD01B282A1828C8D9D8D948383830E949B
:100F0000CD090F900F900F900F900F90CF91DF9120
:100F10001F910F91FF90EF90DF90CF90BF90AF9017
:100F20009F908F907F906F905F904F903F902F9009
:100F300008956F927F928F929F92AF92BF92CF92BD
:100F4000DF92EF92FF920F931F93DF93CF93CDB772
:100F5000DEB7942E7C2DD50149895A89AB88BC888F
:100F6000CD88DE889F89813009F457C08130B8F17F
:100F7000823009F076C0613091F0613020F062304B
:100F800009F06FC015C080E060E00E94E50880E0D5
:100F9000B7010E94AE0880E0692DA8011DC081E064
:100FA00060E00E94E50881E0B6010E94AE0811C031
:100FB00082E060E00E94E50880E0B7010E94AE0890
:100FC00081E0B6010E94AE0880E0692DA8010E9470
:100FD000970881E0682DA5010E94970842C0EDB7EF
:100FE000FEB739970FB6F894FEBF0FBEEDBF6DB6D2
:100FF0007EB60894611C711C52834183F301B38255
:10100000A282D582C4829683888D998D90878783AA
:1010100080E0492DC72E5D011AC0EDB7FEB73997A4
:101020000FB6F894FEBF0FBEEDBFADB7BEB71196B9
:1010300052834183FD01B382A282D582C48296830A
:101040001086178281E0492DC72EAA24BB240E9456
:10105000DC068DB79EB709960FB6F8949EBF0FBEFB
:101060008DBFCF91DF911F910F91FF90EF90DF9097
:10107000CF90BF90AF909F908F907F906F9008958A
:101080000E948D1181E08093DE02E8EAF2E0119285
:101090001192118210823296118210823296118240
:1010A000108232961182108232961182108232960C
:1010B0001182108232961182108232961182108231
:1010C00032961182108232961182108232961182EB
:1010D00010823296118210823696119211921192DC
:1010E00010823296119211921192119211921192D4
:1010F00011921182108232961182108232961182E0
:101100001082329611821082769711821082329666
:10111000118210821092DD021092DC021092DE0227
:1011200087E061E00E94630A87E091E00895EF9212
:10113000FF920F931F93182F062F7A0160E00E94F1
:10114000E508812F602F0E94D008812FB7010E94EF
:10115000FA081F910F91FF90EF900895482F81E0BA
:101160008093DE02CB0123E0693E720710F088EE27
:1011700093E0413071F0413018F0423071F405C015
:101180009093B3028093B20208C09093B30280930D
:10119000B2029093B5028093B4021092DE020895D9
:1011A000982F81E08093DE02913051F0913018F059
:1011B000923041F403C06093CB0204C06093CB0231
:1011C0006093CC021092DE020895982F81E0809304
:1011D000DE02913051F0913018F0923041F403C0AA
:1011E0006093A80204C06093A8026093A9021092C1
:1011F000DE020895482F81E08093DE02CB0121E0DA
:101200006139720710F080E991E0413071F04130AE
:1012100018F0423071F405C09093AB028093AA029B
:1012200008C09093AB028093AA029093AD02809382
:10123000AC021092DE0208958F929F92AF92BF92FD
:10124000CF92DF92EF92FF920F931F93CF93DF9392
:10125000182FF62E5A014901E60161E00E94E508C7
:10126000812FB501A4010E94C711812F6F2D0E940B
:10127000D008812F602F0E94B211812FB5010E94EA
:101280009711C114D10499F0113049F0113018F0C0
:10129000123069F406C018821092DA0208C019826E
:1012A00004C0188219821092DA021092DB02D093E5
:1012B000DD02C093DC02EE20B9F58CEF91E0909353
:1012C000DD028093DC02812FB4010E94FA08812F95
:1012D0000E947811113071F0113018F0123059F568
:1012E00012C01092FC011092DA028091FC01882356
:1012F000E1F321C01092FD011092DB028091FD010B
:101300008823E1F318C01092FC011092FD011092A5
:10131000DA021092DB028091FC018823E1F38091D4
:10132000FD018823C1F307C0812FB4010E94FA0890
:10133000812F0E947811DF91CF911F910F91FF9023
:10134000EF90DF90CF90BF90AF909F908F900895D7
:101350000F931F93182F062F662349F460E070E067
:101360000E94FA08812F60E070E00E94971181E0EE
:101370008093DE02113051F0113018F0123041F438
:1013800003C00093C60204C00093C6020093C702C4
:101390001092DE021F910F910895CF92DF92EF928B
:1013A000FF920F931F93DF93CF93CDB7DEB78B855B
:1013B000813061F0813018F08230A1F511C0EC85E8
:1013C000FD858091DF028823E1F306C0EC85FD8571
:1013D0008091E0028823E1F3309721F1099522C042
:1013E000CC84DD84EE84FF8400E010E0002351F41F
:1013F0008091DF02882331F0C114D10411F0F6018D
:10140000099501E0112351F48091E002882331F025
:10141000E114F10411F0F701099511E0002331F313
:10142000112321F3CF91DF911F910F91FF90EF9046
:10143000DF90CF900895E82FF0E0E331F10540F41C
:10144000E25CFF4FEE0FFF1F0590F491E02D099431
:1014500080E0089580917302089580917402089548
:1014600080917502089580917602089580917702A7
:10147000089580917902089580917802089580916D
:101480007A02089580917B02089580917C020895EC
:1014900080917D02089580917E02089580917F025F
:1014A000089580918002089580918102089580912D
:1014B00082020895809183020895809184020895A4
:1014C000809185020895E82FF0E0E331F10508F0FE
:1014D00040C0EF5AFF4FEE0FFF1F0590F491E02D33
:1014E0000994609373020895609374020895609361
:1014F00075020895609376020895609377020895C7
:1015000060937902089560937802089560937A0257
:10151000089560937B02089560937C020895609320
:101520007D02089560937E02089560937F0208957E
:10153000609380020895609381020895609382020F
:1015400008956093830208956093840208956093E0
:10155000830208951F93CF93DF93182F8091FF018B
:10156000882341F080910902882399F01092FF01AD
:10157000109209020E9427128093FE0183E092E0FC
:1015800061E040E022E330E00E94F80A81E08093CD
:10159000FF019091FE01A12FB0E0ED01CB57DE4F8E
:1015A0008881882369F0FD01E857FE4F80819823E8
:1015B000C1F0FD01E050FE4F81E08083188211C030
:1015C000FD01E050FE4F808181111082FD01E8573E
:1015D000FE4F8081982329F4FD01EB57FE4F81E0F7
:1015E0008083A050BE4F8C91DF91CF911F910895C1
:1015F000EF92FF920F931F93CF93DF93EC01F62EA0
:10160000E42E890188E00E941B0A813011F081E0FC
:1016100026C084E090E00E94BE1CFC01009711F4FB
:1016200082E01DC0F982F0FC1E8281E0E81619F408
:101630008981846089838981886089831B830A8387
:101640001D830C83D183C0831382128281E0809337
:101650006C02CF010E94C81210926C0280E0DF91F0
:10166000CF911F910F91FF90EF900895CF92DF924D
:10167000EF92FF920F931F93CF93DF937B018C0127
:10168000EA01690181E0E81681EEF80680E00807CA
:1016900080E0180740F444E0EE0CFF1C001F111F0F
:1016A0004A95D1F707C033E0EE0CFF1C001F111F55
:1016B0003A95D1F760E072EC8BEE9BE0A8019701C0
:1016C0000E949C1C79018A0186EF9FEFAFEFBFEF6C
:1016D000E80EF91E0A1F1B1FC801B7012AE030E0FF
:1016E00040E050E00E949C1C653071058105910529
:1016F00040F08AE090E0A0E0B0E0E80EF91E0A1F9A
:101700001B1FC801B7012AE030E040E050E00E9412
:101710009C1CC901DA0139832883CD01AA27BB2784
:10172000F60191838083DF91CF911F910F91FF90FC
:10173000EF90DF90CF900895BF92CF92DF92EF921B
:10174000FF920F931F93DF93CF9300D000D0CDB7BC
:10175000DEB7B62EC42ED22E882321F0813009F0B8
:1017600070C038C01C821B821A8219821092C0007D
:101770001092C1001092C200C801B701AE014D5FC6
:101780005F4F9E012F5F3F4F0E94360BBB0CDD0C5D
:10179000DD0CDD0CDD0CDB28CC0CCC0CCC0CCD280E
:1017A0008B818093C40089818093C500C092C20060
:1017B00081E0E81681EEF80680E0080780E018076F
:1017C00028F08091C00082608093C00081E0809307
:1017D0009A0237C01A8219821C821B821092C8009A
:1017E0001092C9001092CA00C801B701AE014F5F44
:1017F0005F4F9E012D5F3F4F0E94360BBB0CDD0CEF
:10180000DD0CDD0CDD0CDB28CC0CCC0CCC0CCD289D
:1018100089818093CC008B818093CD00C092CA00D7
:1018200081E0E81681EEF80680E0080780E01807FE
:1018300028F08091C80082608093C80081E0809386
:101840009F020F900F900F900F90CF91DF911F91FB
:101850000F91FF90EF90DF90CF90BF900895882375
:1018600029F0813029F190E083E108958DE00E9414
:101870001B0A8823D1F410929A02109298021092B7
:10188000990280E00E94681380E065E070E00E94A9
:101890007D0C8FE892E061E041E028EE33E00E94A9
:1018A000F80A8DE061E00E94630A91E08DE00895FE
:1018B0008EE00E941B0A882319F091E08EE00895C3
:1018C00010929F0210929D0210929E0281E00E944F
:1018D000681381E065E070E00E947D0C86E892E08C
:1018E00061E041E028EE33E00E94F80A8EE061E01A
:1018F0000E94630A91E08EE0089577FF03C060E0E4
:1019000070E005C06F31710514F06EE170E088235E
:1019100019F0813051F405C070939C0260939B02D2
:1019200008957093A1026093A00208950E9404128A
:101930000E94A70F0E94E40E0E9431130E940C1017
:101940000E94581278940895000008951F920F92F3
:101950000FB60F9211242F933F934F935F936F9382
:101960007F938F939F93AF93BF93EF93FF93E091F8
:101970002C02F0912D02309709F00995FF91EF911B
:10198000BF91AF919F918F917F916F915F914F9197
:101990003F912F910F900FBE0F901F9018951F929F
:1019A0000F920FB60F9211242F933F934F935F9393
:1019B0006F937F938F939F93AF93BF93EF93FF9317
:1019C000E0912E02F0912F02309709F00995FF91D6
:1019D000EF91BF91AF919F918F917F916F915F91A7
:1019E0004F913F912F910F900FBE0F901F90189520
:1019F0001F920F920FB60F9211242F933F934F9384
:101A00005F936F937F938F939F93AF93BF93EF9366
:101A1000FF93E0913002F0913102309709F009957F
:101A2000FF91EF91BF91AF919F918F917F916F91B6
:101A30005F914F913F912F910F900FBE0F901F908C
:101A400018951F920F920FB60F9211242F933F9368
:101A50004F935F936F937F938F939F93AF93BF93B6
:101A6000EF93FF93E0911E02F0911F02309709F06F
:101A70000995FF91EF91BF91AF919F918F917F91C8
:101A80006F915F914F913F912F910F900FBE0F90EB
:101A90001F9018951F920F920FB60F9211242F933B
:101AA0003F934F935F936F937F938F939F93AF93E6
:101AB000BF93EF93FF93E0912002F09121023097C2
:101AC00009F00995FF91EF91BF91AF919F918F918F
:101AD0007F916F915F914F913F912F910F900FBE2A
:101AE0000F901F9018951F920F920FB60F9211240E
:101AF0002F933F934F935F936F937F938F939F9316
:101B0000AF93BF93EF93FF93E0912202F0912302F2
:101B1000309709F00995FF91EF91BF91AF919F9197
:101B20008F917F916F915F914F913F912F910F9086
:101B30000FBE0F901F9018951F920F920FB60F9225
:101B400011242F933F934F935F936F937F938F93C2
:101B50009F93AF93BF93EF93FF93E0912602F09191
:101B60002702309709F00995FF91EF91BF91AF914E
:101B70009F918F917F916F915F914F913F912F91A5
:101B80000F900FBE0F901F9018951F920F920FB6D7
:101B90000F9211242F933F934F935F936F937F93F3
:101BA0008F939F93AF93BF93EF93FF93E09128029E
:101BB000F0912902309709F00995FF91EF91BF91BB
:101BC000AF919F918F917F916F915F914F913F91D5
:101BD0002F910F900FBE0F901F9018951F920F928C
:101BE0000FB60F9211242F933F934F935F936F93F0
:101BF0007F938F939F93AF93BF93EF93FF93E09166
:101C00002402F0912502309709F00995FF91EF9198
:101C1000BF91AF919F918F917F916F915F914F9104
:101C20003F912F910F900FBE0F901F9018951F920C
:101C30000F920FB60F9211242F933F934F935F9300
:101C40006F937F938F939F93AF93BF93EF93FF9384
:101C5000E0912A02F0912B02309709F00995FF914B
:101C6000EF91BF91AF919F918F917F916F915F9114
:101C70004F913F912F910F900FBE0F901F9018958D
:101C80001F920F920FB60F9211242F933F934F93F1
:101C90005F936F937F938F939F93AF93BF93EF93D4
:101CA000FF93E0911402F0911502309709F0099525
:101CB000FF91EF91BF91AF919F918F917F916F9124
:101CC0005F914F913F912F910F900FBE0F901F90FA
:101CD00018951F920F920FB60F9211242F933F93D6
:101CE0004F935F936F937F938F939F93AF93BF9324
:101CF000EF93FF93E0911602F0911702309709F0ED
:101D00000995FF91EF91BF91AF919F918F917F9135
:101D10006F915F914F913F912F910F900FBE0F9058
:101D20001F9018951F920F920FB60F9211242F93A8
:101D30003F934F935F936F937F938F939F93AF9353
:101D4000BF93EF93FF93E0911802F091190230973F
:101D500009F00995FF91EF91BF91AF919F918F91FC
:101D60007F916F915F914F913F912F910F900FBE97
:101D70000F901F9018951F920F920FB60F9211247B
:101D80002F933F934F935F936F937F938F939F9383
:101D9000AF93BF93EF93FF93E0911A02F0911B0270
:101DA000309709F00995FF91EF91BF91AF919F9105
:101DB0008F917F916F915F914F913F912F910F90F4
:101DC0000FBE0F901F90189580E10E941B0A882378
:101DD00061F4ECE0F2E01192119282E0EC34F80749
:101DE000D1F780E161E00E94630A80E191E008950B
:101DF000239A0895FF920F931F93CF93DF93F82EAA
:101E00008AE0F816B1F08F1548F0E8E0FE16B9F157
:101E1000EF1538F1F7E0FF1651F43BC08DE0F816EE
:101E200059F0EBE1FE1689F0FCE0FF1641F001E00D
:101E300041C01092A20203C01092A2023AC0809147
:101E4000A30281508093A30234C00E94820514C073
:101E500080E061E00E9461068091A2028F5F809322
:101E6000A2028091A20287FFF3CF1092A20280917A
:101E7000A30281508093A30200E011E01CC0809176
:101E8000A2028823B1F08091A20286508093A20220
:101E900010C081E00E94181164EF71E080E090E0D2
:101EA0004DE750E024E630E00E94251181E00E94D9
:101EB0007D1000E010E08091A3026091A2020E94D8
:101EC0004806002351F185E0F89EC0011124EC0181
:101ED000C355DF4F8C010E541F4FFE01849161E00A
:101EE0000E9461062196C017D107B9F780E061E032
:101EF0000E9461068091A2028A5F8093A202809173
:101F0000A20290E08C3791053CF01092A2028091E1
:101F1000A30281508093A30211E08091A3028370F9
:101F20008093A302113059F48091A402813039F4D6
:101F3000E091A502F091A602309709F0099580E0A2
:101F400090E0DF91CF911F910F91FF90089580E075
:101F50000E941B0A882351F4F8940E94D21381E056
:101F60000E94B90F80E061E00E94630A80E091E086
:101F70000895813049F0F894813020F18230B1F039
:101F8000833009F045C017C02C9A80E88093610027
:101F90001092610080E090E0000001968832910587
:101FA000D9F71092680010926B00089580E8809332
:101FB000610083E004C080E88093610088E0809342
:101FC000610028C080E090E0000001962DE6803698
:101FD0009207D1F72C9880E090E0000001962DE662
:101FE00080369207D1F710927A008FEF80936400C9
:101FF0008091680081608093680080916B008460AC
:1020000080936B00789483B7816083BF889508952F
:10201000823008F0789408950F931F930E94FE1366
:1020200080E06DEE73E10E94451081E065EE73E1A2
:102030000E94451082E06DED73E10E94451086E03C
:1020400065EF73E10E94451005ED13E183E0B801EF
:102050000E94451084E0B8010E94451085E0B80157
:102060000E94451087E0B8010E94451082E061E0BF
:102070000E94630A8FEF8093A70287E00E947C068C
:1020800082E091E01F910F910895E82FF0E0EE0FAC
:10209000FF1FE45BFD4F7183608308958AE00E9417
:1020A0001B0A813041F40E94721410925D028AE092
:1020B00060E00E94630A089589E00E941B0A813053
:1020C000D9F480915C02882311F00E94721182E0A1
:1020D0000E94721480916A0290916B02009731F015
:1020E0000E94581D10926B0210926A0210925C02BC
:1020F00089E060E00E94630A0895813029F082300F
:1021000029F40E945C1008950E944E1008950F93C8
:102110001F93CF93DF9380E291E00E94BE1C9C014D
:1021200090936B0280936A02892B11F480E039C08E
:102130008901C0E0D0E0BE0180E090E00E9460191B
:1021400020E030E040EA51E40E94CC1827EF35E768
:1021500040E05FE30E94501A9B01AC0160E070E038
:1021600080E291E40E94B31A9B01AC01CA01B9015B
:102170002DEC3CEC42E851E40E94501A0E94161AE1
:102180002AE030E040E050E00E947D1CF8016193BD
:102190007193819391938F012196C834D10559F69B
:1021A00081E0DF91CF911F910F9108958AE00E9405
:1021B0001B0A882371F4109267021092660281E074
:1021C0000E948E1481E080935D028AE061E00E94AB
:1021D000630A8AE091E008951F938BE00E941B0A36
:1021E000882311F090E021C089E00E941B0A882317
:1021F000D9F40E948710182F8130B1F410925E023A
:1022000010925F0210926002109261028DE067E10D
:1022100074E10E94BE1382E00E948E1410935C024F
:1022200089E061E00E94630A91E089E01F910895CE
:10223000813029F0823031F090E089E008950E94E9
:10224000D61008950E94EC1008958F929F92AF923D
:10225000BF92CF92DF92EF92FF920F931F93CF9393
:10226000DF934B015C01EA01B9012115310539F118
:102270009E01442737FD4095542F6536710510F0B7
:1022800064E670E080E090E00E947D1C24E630E08F
:1022900040E050E00E949C1C79018A01C501B40114
:1022A0000E941A14C7010E94A71260E070E080E04B
:1022B00090E00E941A14CE018E199F0904C04115A6
:1022C000510519F0CA010E94A712DF91CF911F9109
:1022D0000F91FF90EF90DF90CF90BF90AF909F90C5
:1022E0008F900895EFE6F0E080818D7F80830895E0
:1022F000982F81E08093DE02913051F0913018F0F8
:10230000923041F403C01092C60204C01092C6027B
:102310001092C7021092DE0208953A9A3B9A3C9AB4
:102320003D9A3E9A3F9A88B1837088B90895982F54
:1023300081E08093DE02913071F0913018F092309C
:1023400071F405C07093BB026093BA0208C0709329
:10235000BB026093BA027093BD026093BC021092FC
:10236000DE020895982F81E08093DE02913051F0D3
:10237000913018F0923041F403C06093C80204C059
:102380006093C8026093C9021092DE0208950F9311
:102390001F93CF93DF93EB018A01813001F18130EC
:1023A00018F0823061F50DC08091B2029091B302B5
:1023B000892B11F080E01AC01092BF021092BE0269
:1023C0001EC08091B2029091B302892B21F080E06F
:1023D0000E94B81404C01092BF021092BE028091F5
:1023E000B4029091B502892B31F081E0BE01A801C1
:1023F0000E94B81404C01092C1021092C002DF9172
:10240000CF911F910F910895109273021092740250
:10241000109278021092750210927702109279024F
:1024200010927A0210927B0210927C0210927D022E
:1024300010927E0210927F0210928002109281020E
:1024400010928202109283021092840208950F93D8
:102450001F9381E00E941B0A813011F000E024C02C
:1024600087E00E947C0682E06AE00E94CD0682E05E
:1024700062EB0E94CD0618EC812F8A95F1F782E07D
:1024800060E00E940514082F812F8A95F1F782E001
:1024900060E00E9405141A95F1F787E00E947C061F
:1024A00088E893E10197F1F7802F1F910F9108952C
:1024B00082E00E941B0A882319F490E082E00895CC
:1024C0001092F9021092F8021092FB021092FA0296
:1024D0001092FD021092FC021092FF021092FE0276
:1024E000109201031092000380E991E09093E502BD
:1024F0008093E4029093E7028093E6029093E902CE
:102500008093E8029093EB028093EA029093ED02AD
:102510008093EC0284E398E09093EF028093EE02C4
:102520009093F1028093F0029093F3028093F20271
:102530009093F5028093F4029093F7028093F60251
:1025400081E061E00E94630A91E081E00895DF93F9
:10255000CF93CDB7DEB729970FB6F894DEBF0FBE85
:10256000CDBF9C01CE01019661E040E00E94F80AD7
:10257000982F882319F48F818823E9F3892F2996CE
:102580000FB6F894DEBF0FBECDBFCF91DF91089597
:10259000CF92DF92EF92FF920F931F93CF93DF932F
:1025A000EC018091E102882339F4D093E302C093D7
:1025B000E2020E94561347C0C090E202D090E302AC
:1025C00000E010E0EE24FF2437C0A881B981FD01AE
:1025D00064817581F60140815181FA018481958180
:1025E0009B01281B390B37FF0FC0861B970B958368
:1025F0008483DB82CA82012B29F4D093E302C09347
:10260000E20221C0F7010CC0F601828193812115FD
:10261000310549F4FD01158214829B838A83F601FA
:10262000D383C28310C0FD01358324830097B9F39F
:102630000F5F1F4F76016C018091E10290E0081757
:10264000190718F2ECCF8091E1028F5F8093E102CD
:10265000DF91CF911F910F91FF90EF90DF90CF907E
:10266000089588E00E941B0A8823B9F41092E102C1
:102670001092E3021092E20210926C0210926D022C
:1026800080E165E275E10E94AD130E942C150E9465
:10269000501388E061E00E94630A88E091E00895A9
:1026A000EEE6F0E0808182608083089581E080938F
:1026B0006D020895682F80E00E94751380E090E01D
:1026C0000895682F81E00E94751380E090E00895DE
:1026D000882319F0813041F404C0519A5098599AD6
:1026E0000895539A52985B9A0895882319F081307F
:1026F00071F517C080919802813059F58091C00022
:1027000082958695877080FF26C06093C600809171
:10271000C00086FFFCCF8091C00080648093C00021
:1027200016C080919D028130A1F48091C8008295ED
:102730008695877080FF0FC06093CE008091C8009F
:1027400086FFFCCF8091C80080648093C80080E041
:10275000089581E0089582E00895803218F020E025
:1027600030E00AC0E82FF0E0EE0FFF1FE45FFD4FFE
:102770002081318171836083C9010895E82F8032FF
:1027800068F48051833050F0F0E0EE0FFF1FE45FFB
:10279000FD4F208131817183608302C020E030E0F1
:1027A000C9010895249A2C9A089583E58CBD81E08F
:1027B0008DBD8DE08A95F1F7089583E58CBD1DBC34
:1027C00084EF91E00197F1F708958FE78CBD1DBC70
:1027D00084EF91E00197F1F7089583E58CBD81E0E6
:1027E0008DBD8DE08A95F1F7089583E58CBD81E07C
:1027F0008DBD84EF91E00197F1F70895259A269811
:10280000279A209A219A229A08951F93162F0E94A0
:102810007C0682E00E941B0A813011F080E005C036
:102820001EBD0DB407FEFDCF8EB51F9108950E9409
:10283000311408959B01AC0180915D02882381F0E1
:10284000DA01C901880F991FAA1FBB1F9093690263
:1028500080936802211531054105510509F45F98FF
:10286000089580915E0290915F02A0916002B09104
:1028700061022091620230916302409164025091A2
:102880006502280F391F4A1F5B1F20935E02309399
:102890005F02409360025093610280915E029091CA
:1028A0005F02A0916002B09161028851964FA040F2
:1028B000B040BCF08BB180588BB980915E02909192
:1028C0005F02A0916002B09161028851964FA040D2
:1028D000B04080935E0290935F02A0936002B09339
:1028E00061020895823029F4809181008E7F809367
:1028F000810080915C02813031F480915D028130F1
:1029000011F40000089580915C02813021F08091E3
:102910005D02813011F45F9857980895982F809147
:102920005C02882331F480915D02882311F4579A68
:102930005F9880915C028823D1F49230C1F41092A8
:1029400080001092810080918100886080938100D6
:1029500080918100816080938100109285001092A7
:10296000840081E08093890080E980938800089545
:10297000EF92FF920F931F93CF93DF93EB01882386
:1029800021F0813009F05AC02DC09A0140E050E09A
:10299000CA01B9010E947D1C2091B2023091B3029C
:1029A000220F331F40E050E00E949C1C79018A01F5
:1029B000A8019701220F331F441F551FCE01A0E02D
:1029C000B0E082179307A407B50728F0F092BF0282
:1029D000E092BE0233C0D695C795D093BF02C09394
:1029E000BE022CC09A0140E050E0CA01B9010E9429
:1029F0007D1C2091B4023091B502220F331F40E0BC
:102A000050E00E949C1C79018A01A8019701220FC5
:102A1000331F441F551FCE01A0E0B0E0821793077B
:102A2000A407B50728F0F092C102E092C00206C0E8
:102A3000D695C795D093C102C093C002DF91CF91C4
:102A40001F910F91FF90EF9008950E9435150E94FD
:102A500075150E944E15089584B5826084BD85B5B4
:102A6000846085BD8EE487BD089588E00E941B0ABE
:102A7000882311F484E0089580916D02882311F475
:102A800083E0089580916C02882311F082E008951C
:102A90000E94C2178130E1F380E0089580915D02C9
:102AA000813011F580916602909167022091680251
:102AB00030916902280F391F309367022093660214
:102AC0008091660290916702885E93406CF08BB1B2
:102AD00080588BB98091660290916702885E93401E
:102AE0009093670280936602089587E00E941B0A14
:102AF000813009F0AAC08091B2029091B302892B73
:102B000009F18091D6029091D7022091B2023091C2
:102B1000B302820F931F9093D7028093D6028091C5
:102B2000D6029091D702885E9340A4F08091D6029D
:102B30009091D702885E93409093D7028093D602FB
:102B400041E009C08091AA029091AB029093AF023C
:102B50008093AE0240E08091B4029091B502892B3F
:102B600009F18091D8029091D9022091B40230915C
:102B7000B502820F931F9093D9028093D80280915F
:102B8000D8029091D902885E9340A4F08091D80237
:102B90009091D902885E93409093D9028093D80295
:102BA00061E009C08091AC029091AD029093B102B6
:102BB0008093B00260E0842F0E9426168091D2029A
:102BC0009091D3022091AE023091AF02280F391FAD
:102BD0003093D3022093D2028091D2029091D302FB
:102BE000885E934014F440E00BC08091D202909133
:102BF000D302885E93409093D3028093D20241E047
:102C00008091D4029091D5022091B0023091B1020E
:102C1000280F391F3093D5022093D4028091D4021B
:102C20009091D502885E934014F460E00BC08091CF
:102C3000D4029091D502885E93409093D502809300
:102C4000D40261E0842F0E946B1608958823F1F06E
:102C50002091AA023091AB028091AE029091AF0216
:102C6000281B390B1216130634F48091AE02909192
:102C7000AF02019607C0232B49F08091AE029091DC
:102C8000AF0201979093AF028093AE02662311F1D9
:102C90002091AC023091AD028091B0029091B102CE
:102CA000281B390B1216130654F48091B002909130
:102CB000B10201969093B1028093B0020895232B44
:102CC00049F08091B0029091B10201979093B102C6
:102CD0008093B00208950F931F93182F062F8091B1
:102CE000DE02882309F0E7C08091C602882309F03C
:102CF0005AC08091AE029091AF02892BE9F4809185
:102D00006E02837E80936E021092CF028091DA026F
:102D1000882309F45DC06091C80280E00E94A80980
:102D2000E091DC02F091DD02309709F451C081E0BE
:102D300080831092DA024CC08091A802813041F465
:102D40008091BA029091BB02019711F411E002C088
:102D50001123F1F1E091CD02F0E0E351FE4F9091AB
:102D60006E02937E8081892B80936E028091CB02CC
:102D7000882321F48091CD028F5F03C08091CD0222
:102D800081508093CD028091CD0283708093CD02DB
:102D900081E08093CF028091A8028130C9F480E065
:102DA0000E946E1715C090916E02937E90936E02F2
:102DB000E091CD02F0E0E351FE4F8081892B8093BA
:102DC0006E0282E08093CF021092AF021092AE02A8
:102DD0008091C702882309F059C08091B002909178
:102DE000B102892BE9F480916E028F7180936E029B
:102DF0001092D0028091DB02882309F45CC06091BC
:102E0000C90281E00E94A809E091DC02F091DD0294
:102E1000309709F450C081E081831092DB024BC0EF
:102E20008091A902813041F48091BC029091BD0251
:102E3000019711F401E002C00023E9F1E091CE0214
:102E4000F0E0EF50FE4F90916E029F718081892BD0
:102E500080936E028091CC02882321F48091CE026F
:102E60008F5F03C08091CE0281508093CE0280910B
:102E7000CE0283708093CE0281E08093D002809155
:102E8000A9028130C1F40E946E1715C090916E02A4
:102E90009F7190936E02E091CE02F0E0EF50FE4FF2
:102EA0008081892B80936E0282E08093D002109201
:102EB000B1021092B0028091D102882331F48EE6E3
:102EC00092E0612F402F0E94301888B1837090915A
:102ED0006E02892B88B91F910F910895882321F0E4
:102EE000813009F04EC027C08091BA029091BB0298
:102EF000892B49F08091BA029091BB02019790937F
:102F0000BB028093BA028091DA028823D1F5209126
:102F1000BA023091BB028091BE029091BF02281785
:102F2000390779F580E060E070E00E94FA0881E0FE
:102F30008093DA0208958091BC029091BD02892BA2
:102F400049F08091BC029091BD0201979093BD021F
:102F50008093BC028091DB02882399F42091BC020B
:102F60003091BD028091C0029091C10228173907AB
:102F700041F481E060E070E00E94FA0881E0809313
:102F8000DB020895FF920F931F93CF93DF938091FD
:102F9000E102882309F459C00091E2021091E30292
:102FA000F801C081D1818C819D8101979D838C83A3
:102FB000181619060CF449C0898180FF05C08E815E
:102FC000882311F481E08E83898181FF03C0EF8122
:102FD000F88509958091E1028230A8F0F80182819C
:102FE00093819093E3028093E20213821282E09134
:102FF0000000F091010084819581181619063CF0BB
:10300000FF24F39405C01092E3021092E202FF2421
:103010008091E10281508093E1028091E102882356
:1030200011F40E942D18898182FF08C08A819B813A
:103030009D838C83C8010E94C81208C0C8010E94E9
:10304000581D89818F7E898301C0FF248F2DDF91D8
:10305000CF911F910F91FF90089510926D020895E6
:10306000FC018091CF02823069F48091720291E07C
:10307000892780937202882309F03EC08081837E75
:1030800080833AC08091AE029091AF02C397A4F5BD
:103090006623D1F02091AE023091AF0280E690E03D
:1030A000BC01269FC001279F900D369F900D1124D3
:1030B000880F892F881F990B9093C3028093C202B7
:1030C00081E08093700218C0809170028823A1F083
:1030D0008091C2029091C30201979093C3028093A2
:1030E000C2028091C2029091C302892B29F480818F
:1030F000837E8083109270028091D002823069F4C6
:103100008091710291E0892780937102882309F0F0
:103110003EC080818F71808308958091B00290912C
:10312000B102C397A4F54423D1F02091B0023091AD
:10313000B10280E690E0AC01249FC001259F900D74
:10314000349F900D1124880F892F881F990B90931D
:10315000C5028093C40281E080936F02089580913C
:103160006F028823A1F08091C4029091C50201975B
:103170009093C5028093C4028091C4029091C502CD
:10318000892B29F480818F71808310926F020895BA
:10319000D4D008F481E008950CD00AC102D140F0E7
:1031A000F9D030F021F45F3F19F0EBC0511134C178
:1031B000EEC00FD198F39923C9F35523B1F3951BB2
:1031C000550BBB27AA2762177307840738F09F5F48
:1031D0005F4F220F331F441FAA1FA9F333D00E2EB7
:1031E0003AF0E0E830D091505040E695001CCAF724
:1031F00029D0FE2F27D0660F771F881FBB1F2617E9
:1032000037074807AB07B0E809F0BB0B802DBF01BB
:10321000FF2793585F4F2AF09E3F510568F0B1C0D9
:10322000FBC05F3FECF3983EDCF38695779567959E
:10323000B795F7959F5FC9F7880F911D969587956C
:1032400097F90895E1E0660F771F881FBB1F62178B
:1032500073078407BA0720F0621B730B840BBA0B49
:10326000EE1F88F7E0950895BCD088F09F5790F046
:10327000B92F9927B751A0F0D1F0660F771F881F9B
:10328000991F1AF0BA95C9F712C0B13081F0C3D0B6
:10329000B1E00895C0C0672F782F8827B85F39F054
:1032A000B93FCCF3869577956795B395D9F73EF4FA
:1032B00090958095709561957F4F8F4F9F4F0895A2
:1032C000E89409C097FB3EF49095809570956195C0
:1032D0007F4F8F4F9F4F9923A9F0F92F96E9BB2776
:1032E0009395F695879577956795B795F111F8CFF2
:1032F000FAF4BB0F11F460FF1BC06F5F7F4F8F4F5D
:103300009F4F16C0882311F096E911C0772321F052
:103310009EE8872F762F05C0662371F096E8862FEA
:1033200070E060E02AF09A95660F771F881FDAF741
:10333000880F9695879597F90895990F0008550F6E
:10334000AA0BE0E8FEEF16161706E807F907C0F02B
:1033500012161306E407F50798F0621B730B840B33
:10336000950B39F40A2661F0232B242B252B21F40D
:1033700008950A2609F4A140A6958FEF811D811DAD
:10338000089597F99F6780E870E060E008959FEFE7
:1033900080EC089500240A941616170618060906EC
:1033A000089500240A9412161306140605060895BB
:1033B000092E0394000C11F4882352F0BB0F40F443
:1033C000BF2B11F460FF04C06F5F7F4F8F4F9F4F83
:1033D000089557FD9058440F551F59F05F3F71F005
:1033E0004795880F97FB991F61F09F3F79F087956C
:1033F0000895121613061406551FF2CF4695F1DFF5
:1034000008C0161617061806991FF1CF8695710584
:10341000610508940895E894BB2766277727CB01B8
:1034200097F908958ADF08F48FEF0895DADFA8F19D
:103430009E57A8F1985160F039F1983070F5092E37
:103440009927660F771F881F991F0A94D1F71CC010
:10345000BB27993F4CF4B111B1E0B62B672F782F01
:103460008827985FB1F708C0869577956795B795D7
:1034700008F4B1609395C1F7BB0F30F411F460FF0D
:1034800003C06F5F7F4F8F4F3EF49095809570958E
:1034900061957F4F8F4F9F4F08956894BDCFBBCFED
:1034A0000BD086CF77DF28F07CDF18F0952309F06A
:1034B00068CF6DCF1124B0CF8CDFA0F3959FD1F3EF
:1034C000950F50E0551F629FF001729FBB27F00DD2
:1034D000B11D639FAA27F00DB11DAA1F649F662727
:1034E000B00DA11D661F829F2227B00DA11D621F76
:1034F000739FB00DA11D621F839FA00D611D221F30
:10350000749F3327A00D611D231F849F600D211D13
:10351000822F762F6A2F11249F5750408AF0E1F0B6
:1035200088234AF0EE0FFF1FBB1F661F771F881FFF
:1035300091505040A9F79E3F510570F022CF6CCFBB
:103540005F3FECF3983EDCF3869577956795B795EA
:10355000F795E7959F5FC1F7FE2B880F911D969514
:10356000879597F90895FA01EE0FFF1F3096210510
:10357000310599F16115710561F48038BFE39B074E
:1035800049F168949038810561F08038BFEF9B075E
:1035900041F0992342F5FF3FE1053105210511F185
:1035A000E8940894E795D901AA2329F4AB2FBE2FFC
:1035B000F85FD0F310C0FF5F70F4A695E0F7F7391D
:1035C00050F019F0FF3A38F49F779F930CD00F908A
:1035D00007FC905808953EF0DACE60E070E080E895
:1035E0009FE308954FE79F775F934F933F932F9308
:1035F0009ED02F913F914F915F9152DF05C019F4FA
:103600000EF0BFCE08CFC3CEECDEC8F39638C0F7BD
:1036100007F80F92E8942BE33AEA48EB5FE74EDFB6
:103620000F920F920F924DB75EB70F92C0D0E8EC99
:10363000F0E016D04F915F91EF91FF91E595EE1F6D
:10364000FF1F49F0FE57E0684427EE0F441FFA952C
:10365000E1F74195550B32D00F9007FE26C0089533
:10366000DF93CF931F930F93FF92EF92DF927B0133
:103670008C01689405C0DA2EEF011EDFFE01E8948C
:10368000A5912591359145915591AEF3EF01D4D097
:10369000FE019701A801DA9479F7DF90EF90FF908F
:1036A0000F911F91CF91DF9108959B01AC0160E0D4
:1036B00070E080E89FE370CD64CE11C192DEE8F344
:1036C0009923D9F3940F511DBBF39150504094F0BE
:1036D00059F0882332F0660F771F881F91505040B1
:1036E000C1F79E3F510544F7880F911D9695879528
:1036F00097F908955F3FACF0983E9CF0BB27869504
:1037000077956795B79508F4B1609395C1F7BB0FAE
:1037100058F711F460FFE8CF6F5F7F4F8F4F9F4FD7
:10372000E3CF7ACE0EF0DBC032CE68942ACE59DEDB
:10373000C8F39923D1F3C6F3DF93CF931F930F936D
:10374000FF92C92FDD2788232AF02197660F771F64
:10375000881FDAF720E030E040E85FEB9FE388392C
:1037600020F0803E30F021968F7755D0E0EFF0E0EA
:1037700003C051D0EDE1F1E073DF8B01BE01EC013C
:10378000FB2E6F5771097595771F880B990B9ADD82
:1037900028E132E741E35FE38FDEAF2D9801AE0110
:1037A000FF900F911F91CF91DF9146D001CEFA018A
:1037B000DC01AA0FBB1F9B01AC01BF5728F42227D5
:1037C0003327442750781FC0B75188F4AB2F00240B
:1037D000469537952795011CA395D2F3002069F0F3
:1037E000220F331F441FB395DAF30DD013C061309D
:1037F0007105A0E88A07B94630F49B01AC01662741
:10380000772788279078309621F020833183428370
:10381000538308955058BB27AA270ED0C9CDBADDCF
:1038200030F0BFDD20F031F49F3F11F41EF4AFCD36
:103830000EF4E095E7FBA5CDE92FCBDD80F3BA17B9
:10384000620773078407950718F071F49EF5E3CDBE
:103850000EF4E0950B2EBA2FA02D0B01B9019001AB
:103860000C01CA01A0011124FF27591B99F0593FEF
:1038700050F4503E68F11A16F040A22F232F342F37
:103880004427585FF3CF469537952795A795F04085
:103890005395C9F77EF41F16BA0B620B730B840B9A
:1038A000BAF09150A1F0FF0FBB1F661F771F881F52
:1038B000C2F70EC0BA0F621F731F841F48F48795AA
:1038C00077956795B795F7959E3F08F0B3CF939599
:1038D000880F08F09927EE0F9795879508959F3FD9
:1038E00031F0915020F4879577956795B795880FBB
:1038F000911D9695879597F90895629FD001739FC2
:10390000F001829FE00DF11D649FE00DF11D929F7B
:10391000F00D839FF00D749FF00D659FF00D9927BA
:10392000729FB00DE11DF91F639FB00DE11DF91FDE
:10393000BD01CF0111240895A1E21A2EAA1BBB1BC1
:10394000FD010DC0AA1FBB1FEE1FFF1FA217B3076B
:10395000E407F50720F0A21BB30BE40BF50B661F81
:10396000771F881F991F1A9469F760957095809545
:1039700090959B01AC01BD01CF010895CF93DF93DA
:103980008230910510F482E090E0E0910403F09120
:10399000050340E050E020E030E026C06081718106
:1039A00068177907E0F06817790781F482819381BD
:1039B0002115310531F0D90113969C938E931297FE
:1039C0002BC0909305038093040326C04115510535
:1039D00019F06417750718F4AB01E901DF019F01C5
:1039E00072816381E72FF62F3097C1F6411551059B
:1039F00001F1481B590B4430510580F412968D910A
:103A00009C911397209719F09B838A8304C090930D
:103A1000050380930403FD01329646C0FD01E40FC7
:103A2000F51F819391934250504011965C934E93B1
:103A30003BC020910203309103032115310541F46D
:103A40002091F7013091F801309303032093020392
:103A50002091F9013091FA012115310541F42DB77A
:103A60003EB74091F5015091F601241B350BE091D2
:103A70000203F0910303E217F307A0F42E1B3F0BA0
:103A80002817390778F0AC014E5F5F4F24173507D0
:103A900048F04E0F5F1F509303034093020381933E
:103AA000919302C0E0E0F0E0CF01DF91CF91089563
:103AB000CF93DF93009709F491C0FC0132971382F2
:103AC000128260910403709105036115710581F400
:103AD00020813181280F391F8091020390910303C7
:103AE0008217930799F5F0930303E093020376C0DE
:103AF000DB0180E090E002C0CD01D901AE17BF0725
:103B000048F412962D913C91139721153105A1F798
:103B1000CD0121C0B383A283EF01499159919E0148
:103B2000240F351FA217B30779F42D913C911197FB
:103B3000240F351F2E5F3F4F3183208312962D9126
:103B40003C91139733832283009729F4F093050364
:103B5000E093040343C0DC011396FC93EE931297A9
:103B60004D915D91A40FB51FEA17FB0769F4208101
:103B70003181240F351F2E5F3F4FEC01398328839D
:103B8000228133813B832A83E0E0F0E002C0FB0125
:103B9000BC01DB0112968D919C9113970097B9F7A8
:103BA0009B012E5F3F4F8D919C911197820F931F28
:103BB00040910203509103034817590779F4309755
:103BC00029F4109205031092040302C0138212829A
:103BD000225030403093030320930203DF91CF91B2
:103BE0000895A0E0B0E0E7EFFDE10C949D20FE0118
:103BF0003596619171918091080390910903AF010D
:103C00000E94061E2096E2E00C94B920ACE0B0E0E1
:103C1000ECE0FEE10C948D206C011B018A01FC019B
:103C200017821682838181FFD1C12E010894411C25
:103C3000511CF6019381F10193FD859193FF8191D0
:103C40001F01882309F4BEC1853239F493FD8591A3
:103C500093FF81911F01853229F490E0B6010E9403
:103C60000320E7CFEE24FF2420E02032B0F48B3293
:103C700069F08C3228F4803251F0833271F40BC039
:103C80008D3239F0803349F421602CC022602460E9
:103C900029C0286027C0206125C027FD2CC0382FEF
:103CA00030533A3098F426FF08C08E2D880FE82E46
:103CB000EE0CEE0CE80EE30E15C08F2D880FF82EDB
:103CC000FF0CFF0CF80EF30E20620CC08E3221F4B4
:103CD00026FD78C1206406C08C3611F4206802C02D
:103CE000883649F4F10193FD859193FF81911F017D
:103CF000882309F0BACF982F9554933018F090523A
:103D0000933028F40C5F1F4FFFE3F9830DC0833617
:103D100031F0833771F0833509F060C022C0F801BB
:103D2000808189830E5F1F4F420171E0A72EB12C65
:103D300016C062E0662E712C600E711EF801808044
:103D4000918026FF03C06E2D70E002C06FEF7FEF01
:103D5000C4012C870E94F81F5C0183012C852F77FA
:103D600017C052E0652E712C600E711EF801808024
:103D7000918026FF03C06E2D70E002C06FEF7FEFD1
:103D8000C4012C870E94ED1F5C012C8520688301F3
:103D900023FD20C008C080E290E0B6012C870E947D
:103DA0000320FA942C858F2D90E0A816B90698F37D
:103DB00011C0F40127FD859127FF81914F0190E00B
:103DC000B6012C870E9403202C85F110FA940894E8
:103DD000A108B108A114B10461F7F1C0843611F053
:103DE000893649F527FF08C0F80160817181828119
:103DF00093810C5F1F4F09C0F80160817181882792
:103E000077FD8095982F0E5F1F4F4FE6B42EB2229C
:103E100097FF09C090958095709561957F4F8F4F62
:103E20009F4FF0E8BF2AA2012AE030E00E942F2035
:103E3000782E741845C0853731F43FEEB32EB22288
:103E40002AE030E025C099EFB92EB2228F36C1F0BA
:103E5000803720F4883509F0B5C00DC0803721F0D7
:103E6000883709F0AFC002C020E1B22AB4FE0BC00F
:103E700084E0B82A08C0B4FE09C0E6E0BE2A06C045
:103E800028E030E005C020E130E002C020E132E06F
:103E9000B7FE08C0F80160817181828193810C5F57
:103EA0001F4F07C0F8016081718180E090E00E5FD4
:103EB0001F4FA2010E942F20782E7418FFE7BF2207
:103EC000B6FE0BC02EEFB2227E1438F4B4FE07C04B
:103ED000B2FC05C08FEEB82202C0A72C01C0AE2CE8
:103EE0008B2D90E0B4FE0DC0FE01E70DF11D208189
:103EF000203319F4E9EEBE2209C0A394B2FE06C035
:103F000004C086789070009709F0A3948B2C9924B4
:103F1000B3FC14C0B0FE0FC0AF1428F4E72CEF0CB4
:103F2000EA18AF2C08C0E72C06C080E290E0B6018A
:103F30000E940320A394AF14C0F304C0AF1410F484
:103F4000FA1801C0FF2484FE0FC080E390E0B601A0
:103F50000E94032082FE1FC081FE03C088E590E01E
:103F600010C088E790E00DC0C4018678907000977B
:103F700091F081FC02C080E201C08BE2B7FC8DE2CF
:103F800090E0B6010E94032006C080E390E0B601F5
:103F90000E940320EA947E14C0F37A94F201E70DA4
:103FA000F11D808190E0B6010E9403207720A9F7DF
:103FB00006C080E290E0B6010E940320FA94FF2040
:103FC000C1F737CEF6012681378102C02FEF3FEFD0
:103FD000C9012C96E2E10C94A920FC0105906150E6
:103FE00070400110D8F7809590958E0F9F1F08950F
:103FF000FC016150704001900110D8F780959095B8
:104000008E0F9F1F08950F931F93CF93DF938C0103
:10401000EB018B8181FF1BC082FF0DC02E813F8190
:104020008C819D812817390764F4E881F981019317
:10403000F983E88306C0E885F985802F0995009704
:1040400031F48E819F8101969F838E8302C00FEF92
:104050001FEFC801DF91CF911F910F910895FA01D1
:10406000AA27283051F1203181F1E8946F936E7FB7
:104070006E5F7F4F8F4F9F4FAF4FB1E03ED0B4E0A8
:104080003CD0670F781F891F9A1FA11D680F791FE9
:104090008A1F911DA11D6A0F711D811D911DA11DFA
:1040A00020D009F468943F912AE0269F112430190A
:1040B000305D3193DEF6CF010895462F4770405DA5
:1040C0004193B3E00FD0C9F7F6CF462F4F70405D54
:1040D0004A3318F0495D31FD4052419302D0A9F7AF
:1040E000EACFB4E0A6959795879577956795BA95A9
:1040F000C9F700976105710508959B01AC010A2E6F
:1041000006945795479537952795BA95C9F7620F45
:10411000731F841F951FA01D08952F923F924F92E9
:104120005F926F927F928F929F92AF92BF92CF9247
:10413000DF92EF92FF920F931F93CF93DF93CDB750
:10414000DEB7CA1BDB0B0FB6F894DEBF0FBECDBFC8
:1041500009942A88398848885F846E847D848C8499
:104160009B84AA84B984C884DF80EE80FD800C81A2
:104170001B81AA81B981CE0FD11D0FB6F894DEBF85
:0C4180000FBECDBFED010895F894FFCFF5
:10418C0054727920736179696E673A0A2243454506
:10419C004E626F7420476F2200466F7277617264B3
:1041AC00202564004261636B776172640054757200
:1041BC006E205269676874005475726E204C656687
:1041CC0074005475726E2041726F756E64004445B4
:1041DC004641554C54205354415445005455524E6D
:1041EC00204C45465400464F5257415244005455BA
:1041FC00524E2052494748540053686F756C6420E6
:10420C0053746F70000101011008040000000200DB
:10421C000000005A13000000000000000200000023
:10422C00006113000000000000000200000000FA12
:10423C000E000000001C05000069050000BC050014
:10424C00001306000070060000D20600003A0700BA
:10425C0000A80700001C080000980800001A0900BC
:10426C0000A50900000002040507090B00180C0446
:0C427C0010C080206020000C0300000037
:00000001FF
