:100000000C94B0020C94CD020C94CD020C94CD0251
:100010000C9478060C94A1060C94CA060C94F30672
:100020000C94CD020C9459050C9482050C94AB05EC
:100030000C9426060C94D4050C94FD050C944F06E4
:100040000C94DE040C9407050C9430050C94CD023E
:100050000C94CD020C94CD020C94CD020C94CD02E4
:100060000C94CD020C94CD020C94CD020C94CD02D4
:100070000C94CD020C94CD020C94CD024E0451048C
:100080005404570460045A045D046304660469045C
:100090006C046F047204750478047B047E0481048C
:1000A0008404950498049B049E04A704A104A4045A
:1000B000AA04AD04B004B304B604B904BC04BF047C
:1000C000C204C504C804CB0407634236B79BD8A753
:1000D0001A39685618AEBAAB558C1D3CB7CC57636D
:1000E000BD6DEDFD753EF6177231BF000000803F1B
:1000F00008000000BE922449123EABAAAA2ABECD37
:10010000CCCC4C3E00000080BEABAAAAAA3E0000A8
:100110000000BF000000803F0000000000084178A0
:10012000D3BB4387D1133D190E3CC3BD4282AD2BD7
:100130003E68EC8276BED98FE1A93E4C80EFFFBECF
:1001400001C4FF7F3F000000000016050100000011
:1001500000000000FA000000E000E00028FE28FE99
:10016000282454FE5448C4C81026466C92AA44A0C1
:1001700000A0C000000038448200008244380028FB
:10018000107C102810107C1010000A0C00001010B9
:10019000101010000606000004081020407C8A920F
:1001A000A27C0042FE020042868A92628482A2D22F
:1001B0008C182848FE08E4A2A2A29C3C5292920C01
:1001C000808E90A0C06C9292926C60929294780013
:1001D0006C6C0000006A6C00001028448200282823
:1001E000282828008244281040808A90604C929EE3
:1001F000827C7E8888887EFE9292926C7C8282824B
:1002000044FE82824438FE92929282FE90909080C8
:100210007C8292925EFE101010FE0082FE8200042C
:100220000282FC80FE10284482FE02020202FE408E
:100230003040FEFE201008FE7C8282827CFE909080
:1002400090607C828A847AFE909894626292929204
:100250008C8080FE8080FC020202FCF8040204F81C
:10026000FC021C02FCC6281028C6E0100E10E08616
:100270008A92A2C200FE82820040201008040082FE
:1002800082FE0020408040200202020202008040E4
:100290002000042A2A2A1EFE1222221C1C222222AC
:1002A000041C222212FE1C2A2A2A18107E9080404A
:1002B000304A4A4A7CFE1020201E0022BE02000462
:1002C0000222BC00FE081422000082FE02003E2032
:1002D00018201E3E1020201E1C2222221C3E2828F0
:1002E0002810102828183E3E10202010122A2A2AF2
:1002F0000420FC2202043C0202043E3804020438BA
:100300003C020C023C2214081422300A0A0A3C2245
:10031000262A322200106C82000000FE00000082BB
:100320006C1000081010081000000000007F818190
:10033000817F7F8383837F7F8787877F7F8F8F8F77
:100340007F7F9F9F9F7F7FBFBFBF7F7FFFFFFF7F1D
:100350002040FF4020621517156500FBFB000000E0
:1003600000000000C0FF0300E0FF0700F0FF0F00E7
:10037000F8FF1F0078001E0078001E0078001E00A5
:1003800078001E0078001E0078001E0078001E0015
:1003900078001E0078001E00000000000000000031
:1003A00080FF0300E0FF0700F0FF0F00F8FF1F00D1
:1003B000F83C1F00783C1E00783C1E00783C1E0074
:1003C000783C1E00783C1E00783C1E00783C1E00E5
:1003D000783C1E00783C1E00783C1E0000000000A7
:1003E00000000000E0FF0300F0FF0700F8FF0F002F
:1003F000F8FF1F00783C1E00783C1E00783C1E0071
:10040000783C1E00783C1E00783C1E00783C1E00A4
:10041000783C1E00783C1E00783C1E000000000066
:1004200000000000F8FF0300F8FF0F00F8FF1F00B6
:10043000F8FF1F0000001E0000001E0000801F00CB
:1004400000F01F0000FF0F00E0FF0700F0FF0000BA
:10045000F80F0000F80000007800000078000000AD
:10046000F8FF1F00F8FF1F00F0FF1F00E0FF1F0054
:100470000000000000000000F8FF1F00F8FF1F0050
:10048000F8FF1F00F8FF1F0078001E00783C1E00D8
:10049000783C1E00783C1E00783C1E00783C1E0014
:1004A000783C1E00F87E1F00F8FF1F00F0FF0F00D1
:1004B000E0E703000000000000003800EEFF6C00E1
:1004C0002A8045003A0047FC03FF6CFC83FF39009B
:1004D000DEFF0B7CD0810BFCD0810BC0D0810BFCEC
:1004E000D0810B7CDEFF0B0082FF397002FF6CF8BD
:1004F0003A0047DC2A8045CCEEFF6CCC0000380087
:100500000000000C00001E0C00001E0000001E0079
:1005100000001E0000001E00F8FF1F00F8FF1F0073
:10052000F8FF1F00F8FF1F0000001E0000001E0063
:1005300000001E0000001E0000005E0000004000E1
:1005400000007C00000040000000400000007C0033
:1005500000003000000010000000300000007C00AF
:1005600011241FBECFEFD8E0DEBFCDBF11E0A0E069
:10057000B1E0E8E6FAE202C005900D92A236B107BA
:10058000D9F712E0A2E6B1E001C01D92A634B1078E
:10059000E1F70E94DC020C9432150C940000DF930A
:1005A000CF93CDB7DEB70E9402030E94E50280E040
:1005B00091E00E94E214FFCF0E94DC040E94CE046E
:1005C0000E94CF0280E090E008950F931F9380E493
:1005D00060E00E94C40300E0802F60E00E94AB0353
:1005E00010E080E061E00E94C4031F5F1038C9F78B
:1005F0000F5F043089F783E060E00E94A4031F913D
:100600000F9108950F931F9382E00E943F04882367
:1006100011F482E006C081E00E943F04882319F4AF
:1006200081E090E06DC00E94300785E061E00E94AB
:1006300087048EEA60E00E94C40382EA60E00E94C0
:10064000C40380EA60E00E94C40300E513ECC80123
:100650000197F1F780EC60E00E94C4038FE260E054
:100660000E94C40381E860E00E94C40386E160E068
:100670000E94C40382E260E00E94C403C8010197A3
:10068000F1F78FEA60E00E94C40386EA60E00E940E
:10069000C40385EA60E00E94C40380E090E028E89B
:1006A00033E1F9013197F1F7019643E0883E940771
:1006B000C1F783EB60E00E94C40380E460E00E9425
:1006C000C40383E060E00E94AB0383E060E00E942B
:1006D000A4031092DE011092E0011092DF018EE07F
:1006E00091E0909343028093420288E10E94830349
:1006F0000E94E50284EA60E00E94C40385E091E084
:100700001F910F9108951F93182F85E00E943F04B9
:100710008130C1F487E00E94DF0382E06AE00E943A
:10072000300482E061EB0E943004612F113208F046
:1007300060E282E00E94300489EE8A95F1F787E05A
:100740000E94DF031F91089583706F776093DC012F
:100750008093DD0108950F931F93062F162F1F77A7
:100760008370806B60E00E94C40312951F70812F1C
:10077000806160E00E94C403802F8F7060E00E945F
:10078000C4031F910F9108950F931F93082F162FE5
:1007900085E00E943F04813079F4112319F0113073
:1007A00021F402C02B9801C02B9A86E08A95F1F7BC
:1007B00080E0602F0E9430041F910F9108951F93D5
:1007C000182F82E00E943F04813009F047C0912F2A
:1007D00097708091E101981709F440C09093E1016E
:1007E00085B1887F892B85B9933011F1943028F435
:1007F000913051F0923090F40CC0953019F1953051
:10080000E0F0963021F50FC0E091A401F091A50130
:1008100022C0E091A201F091A3011DC0E091A601C8
:10082000F091A70118C0E091AE01F091AF0113C0A3
:10083000E091A801F091A9010EC0E091AA01F09108
:10084000AB0109C0E091AC01F091AD0104C0E091B1
:10085000B001F091B101309709F009951F91089509
:100860001F93162F0E94DF0382E00E943F04813015
:1008700021F41EBD0DB407FEFDCF1F910895E82F92
:10088000F0E0E331F10540F4E25CFF4FEE0FFF1FB3
:100890000590F491E02D099480E008958091C901BC
:1008A00008958091CA0108958091CB0108958091A7
:1008B000CC0108958091CD0108958091CF010895D4
:1008C0008091CE0108958091D00108958091D10149
:1008D00008958091D20108958091D3010895809167
:1008E000D40108958091D50108958091D60108958D
:1008F0008091D70108958091D80108958091D90100
:1009000008958091DA0108958091DB010895E82F20
:10091000F0E0E331F10508F040C0EF5AFF4FEE0F71
:10092000FF1F0590F491E02D09946093C90108958B
:100930006093CA0108956093CB0108956093CC0140
:1009400008956093CD0108956093CF010895609359
:10095000CE0108956093D00108956093D101089568
:100960006093D20108956093D30108956093D401F8
:1009700008956093D50108956093D601089560931A
:10098000D70108956093D80108956093D90108951F
:100990006093DA0108956093D90108950E94B00927
:1009A0000E94DF070E941C070E94810A0E944408DF
:1009B0000E94D30978940895000008951F920F9221
:1009C0000FB60F9211242F933F934F935F936F9322
:1009D0007F938F939F93AF93BF93EF93FF93E09198
:1009E0008201F0918301309709F00995FF91EF9111
:1009F000BF91AF919F918F917F916F915F914F9137
:100A00003F912F910F900FBE0F901F9018951F923E
:100A10000F920FB60F9211242F933F934F935F9332
:100A20006F937F938F939F93AF93BF93EF93FF93B6
:100A3000E0918401F0918501309709F00995FF91CB
:100A4000EF91BF91AF919F918F917F916F915F9146
:100A50004F913F912F910F900FBE0F901F901895BF
:100A60001F920F920FB60F9211242F933F934F9323
:100A70005F936F937F938F939F93AF93BF93EF9306
:100A8000FF93E0918601F0918701309709F0099575
:100A9000FF91EF91BF91AF919F918F917F916F9156
:100AA0005F914F913F912F910F900FBE0F901F902C
:100AB00018951F920F920FB60F9211242F933F9308
:100AC0004F935F936F937F938F939F93AF93BF9356
:100AD000EF93FF93E0917401F0917501309709F065
:100AE0000995FF91EF91BF91AF919F918F917F9168
:100AF0006F915F914F913F912F910F900FBE0F908B
:100B00001F9018951F920F920FB60F9211242F93DA
:100B10003F934F935F936F937F938F939F93AF9385
:100B2000BF93EF93FF93E0917601F09177013097B7
:100B300009F00995FF91EF91BF91AF919F918F912E
:100B40007F916F915F914F913F912F910F900FBEC9
:100B50000F901F9018951F920F920FB60F921124AD
:100B60002F933F934F935F936F937F938F939F93B5
:100B7000AF93BF93EF93FF93E0917801F0917901E8
:100B8000309709F00995FF91EF91BF91AF919F9137
:100B90008F917F916F915F914F913F912F910F9026
:100BA0000FBE0F901F9018951F920F920FB60F92C5
:100BB00011242F933F934F935F936F937F938F9362
:100BC0009F93AF93BF93EF93FF93E0917C01F091DC
:100BD0007D01309709F00995FF91EF91BF91AF9199
:100BE0009F918F917F916F915F914F913F912F9145
:100BF0000F900FBE0F901F9018951F920F920FB677
:100C00000F9211242F933F934F935F936F937F9392
:100C10008F939F93AF93BF93EF93FF93E0917E01E8
:100C2000F0917F01309709F00995FF91EF91BF9105
:100C3000AF919F918F917F916F915F914F913F9174
:100C40002F910F900FBE0F901F9018951F920F922B
:100C50000FB60F9211242F933F934F935F936F938F
:100C60007F938F939F93AF93BF93EF93FF93E09105
:100C70007A01F0917B01309709F00995FF91EF918E
:100C8000BF91AF919F918F917F916F915F914F91A4
:100C90003F912F910F900FBE0F901F9018951F92AC
:100CA0000F920FB60F9211242F933F934F935F93A0
:100CB0006F937F938F939F93AF93BF93EF93FF9324
:100CC000E0918001F0918101309709F00995FF9141
:100CD000EF91BF91AF919F918F917F916F915F91B4
:100CE0004F913F912F910F900FBE0F901F9018952D
:100CF0001F920F920FB60F9211242F933F934F9391
:100D00005F936F937F938F939F93AF93BF93EF9373
:100D1000FF93E0916A01F0916B01309709F009951A
:100D2000FF91EF91BF91AF919F918F917F916F91C3
:100D30005F914F913F912F910F900FBE0F901F9099
:100D400018951F920F920FB60F9211242F933F9375
:100D50004F935F936F937F938F939F93AF93BF93C3
:100D6000EF93FF93E0916C01F0916D01309709F0E2
:100D70000995FF91EF91BF91AF919F918F917F91D5
:100D80006F915F914F913F912F910F900FBE0F90F8
:100D90001F9018951F920F920FB60F9211242F9348
:100DA0003F934F935F936F937F938F939F93AF93F3
:100DB000BF93EF93FF93E0916E01F0916F01309735
:100DC00009F00995FF91EF91BF91AF919F918F919C
:100DD0007F916F915F914F913F912F910F900FBE37
:100DE0000F901F9018951F920F920FB60F9211241B
:100DF0002F933F934F935F936F937F938F939F9323
:100E0000AF93BF93EF93FF93E0917001F091710165
:100E1000309709F00995FF91EF91BF91AF919F91A4
:100E20008F917F916F915F914F913F912F910F9093
:100E30000FBE0F901F90189580E10E943F048823F9
:100E400061F4E2E6F1E01192119281E0E23AF807F2
:100E5000D1F780E161E00E94870480E191E008958C
:100E6000239A0895FF920F931F93CF93DF93F82E49
:100E70008AE0F816B1F08F1548F0E8E0FE16B9F1F7
:100E8000EF1538F1F7E0FF1651F43BC08DE0F8168E
:100E900059F0EBE1FE1689F0FCE0FF1641F001E0AD
:100EA00041C01092DC0103C01092DC013AC0809175
:100EB000DD0181508093DD0134C00E94E50214C041
:100EC00080E061E00E94C4038091DC018F5F809329
:100ED000DC018091DC0187FFF3CF1092DC0180916F
:100EE000DD0181508093DD0100E011E01CC08091A4
:100EF000DC018823B1F08091DC0186508093DC0115
:100F000010C081E00E94500964EF71E080E090E041
:100F10004DE750E024E630E00E945D0981E00E9448
:100F2000B50800E010E08091DD016091DC010E94D5
:100F3000AB03002351F185E0F89EC0011124EC01C0
:100F4000C355DF4F8C010E541F4FFE01849161E0A9
:100F50000E94C4032196C017D107B9F780E061E071
:100F60000E94C4038091DC018A5F8093DC01809140
:100F7000DC0190E08C3791053CF01092DC0180910F
:100F8000DD0181508093DD0111E08091DD018370EE
:100F90008093DD01113059F48091DE01813039F404
:100FA000E091DF01F091E001309709F0099580E0D0
:100FB00090E0DF91CF911F910F91FF90089580E015
:100FC0000E943F04882351F4F8940E94CB0A81E0E8
:100FD0000E94F10780E061E00E94870480E091E0D8
:100FE0000895813049F0F894813020F18230B1F0D9
:100FF000833009F045C017C02C9A80E880936100C7
:101000001092610080E090E0000001968832910526
:10101000D9F71092680010926B00089580E88093D1
:10102000610083E004C080E88093610088E08093E1
:10103000610028C080E090E0000001962DE6803637
:101040009207D1F72C9880E090E0000001962DE601
:1010500080369207D1F710927A008FEF8093640068
:101060008091680081608093680080916B0084604B
:1010700080936B00789483B7816083BF88950895CF
:10108000823008F0789408950F931F930E94F70A16
:1010900080E066EE7AE00E947D0881E06EED7AE005
:1010A0000E947D0882E066ED7AE00E947D0886E07D
:1010B0006EEE7AE00E947D080EEC1AE083E0B80143
:1010C0000E947D0884E0B8010E947D0885E0B80197
:1010D0000E947D0887E0B8010E947D0882E061E0FF
:1010E0000E9487048FEF8093E10187E00E94DF0375
:1010F00082E091E01F910F910895E82FF0E0EE0F4C
:10110000FF1FEE55FE4F7183608308958AE00E94B1
:101110003F04813041F40E94590B1092B3018AE0E0
:1011200060E00E948704089589E00E943F048130B6
:10113000D9F48091B201882311F00E94AA0982E0BB
:101140000E94590B8091C0019091C101009731F02C
:101150000E9449141092C1011092C0011092B20174
:1011600089E060E00E9487040895813029F0823090
:1011700029F40E94940808950E94860808950F9308
:101180001F93CF93DF9380E291E00E94AF139C0105
:101190009093C1018093C001892B11F480E039C084
:1011A0008901C0E0D0E0BE0180E090E00E947910AB
:1011B00020E030E040EA51E40E94111027EF35E7CB
:1011C00040E05FE30E9441119B01AC0160E070E0F0
:1011D00080E291E40E94A4119B01AC01CA01B90113
:1011E0002DEC3CEC42E851E40E9441110E940711B1
:1011F0002AE030E040E050E00E946E13F801619375
:101200007193819391938F012196C834D10559F63A
:1012100081E0DF91CF911F910F9108958AE00E94A4
:101220003F04882371F41092BD011092BC0181E04B
:101230000E94750B81E08093B3018AE061E00E9417
:1012400087048AE091E008951F938BE00E943F0499
:10125000882311F090E021C089E00E943F04882398
:10126000D9F40E94BF08182F8130B1F41092B40154
:101270001092B5011092B6011092B7018DE06EEF99
:101280007AE00E94B70A82E00E94750B1093B201C7
:1012900089E061E00E94870491E089E01F91089550
:1012A000813029F0823031F090E089E008950E9489
:1012B0000E0908950E94240908958F929F92AF927B
:1012C000BF92CF92DF92EF92FF920F931F93CF9333
:1012D000DF934B015C01EA01B9012115310539F1B8
:1012E0009E01442737FD4095542F6536710510F057
:1012F00064E670E080E090E00E946E1324E630E047
:1013000040E050E00E948D1379018A01C501B401CB
:101310000E94010BC7010E94220A60E070E080E099
:1013200090E00E94010BCE018E199F0904C0411567
:10133000510519F0CA010E94220ADF91CF911F9135
:101340000F91FF90EF90DF90CF90BF90AF909F9064
:101350008F900895EFE6F0E080818D7F808308957F
:101360001092C9011092CA011092CE011092CB01C5
:101370001092CD011092CF011092D0011092D101A4
:101380001092D2011092D3011092D4011092D50183
:101390001092D6011092D7011092D8011092D90163
:1013A0001092DA01089582E00E943F04882319F424
:1013B00090E082E008951092F7011092F6011092E9
:1013C000F9011092F8011092FB011092FA011092AB
:1013D000FD011092FC011092FF011092FE0180E9C4
:1013E00091E09093E3018093E2019093E501809373
:1013F000E4019093E7018093E6019093E9018093E3
:10140000E8019093EB018093EA0184E398E09093E4
:10141000ED018093EC019093EF018093EE019093A6
:10142000F1018093F0019093F3018093F201909386
:10143000F5018093F40181E061E00E94870491E06E
:1014400081E00895DF93CF93CDB7DEB729970FB62C
:10145000F894DEBF0FBECDBF9C01CE01019661E0C6
:1014600040E00E94430A982F882319F48F81882333
:10147000E9F3892F29960FB6F894DEBF0FBECDBFD2
:10148000CF91DF910895EF92FF920F931F93CF9327
:10149000DF93EC01F62EE42E890188E00E943F04E0
:1014A000813011F081E026C084E090E00E94AF130B
:1014B000FC01009711F482E01DC0F982F0FC1E824D
:1014C00081E0E81619F489818460898389818860C4
:1014D00089831B830A831D830C83D183C08313827A
:1014E000128281E08093C201CF010E94AF0B109263
:1014F000C20180E0DF91CF911F910F91FF90EF909B
:10150000089588E00E943F048823B9F410920002F5
:1015100010920202109201021092C2011092C301B5
:1015200080E16FE97BE00E94A60A0E94A60B0E9460
:10153000A00A88E061E00E94870488E091E00895B5
:10154000EEE6F0E08081826080830895803218F0BA
:1015500020E030E00AC0E82FF0E0EE0FFF1FEE5968
:10156000FE4F2081318171836083C9010895E82F86
:10157000803268F48051833050F0F0E0EE0FFF1FAE
:10158000EE59FE4F208131817183608302C020E0DB
:1015900030E0C9010895249A2C9A089583E58CBD02
:1015A00081E08DBD8DE08A95F1F7089583E58CBDCE
:1015B0001DBC84EF91E00197F1F708958FE78CBD92
:1015C0001DBC84EF91E00197F1F7089583E58CBD90
:1015D00081E08DBD8DE08A95F1F7089583E58CBD9E
:1015E00081E08DBD84EF91E00197F1F70895259A90
:1015F0002698279A209A219A229A08950E94180BD9
:1016000008959B01AC018091B301882381F0DA0138
:10161000C901880F991FAA1FBB1F9093BF01809318
:10162000BE01211531054105510509F45F98089562
:101630008091B4019091B501A091B601B091B7012C
:101640002091B8013091B9014091BA015091BB018C
:10165000280F391F4A1F5B1F2093B4013093B50137
:101660004093B6015093B7018091B4019091B501B8
:10167000A091B601B091B7018851964FA040B040FB
:10168000BCF08BB180588BB98091B4019091B501B9
:10169000A091B601B091B7018851964FA040B040DB
:1016A0008093B4019093B501A093B601B093B701B4
:1016B0000895823029F4809181008E7F809381008B
:1016C0008091B201813031F48091B301813011F405
:1016D000000008958091B201813021F08091B30122
:1016E000813011F45F9857980895982F8091B20136
:1016F000882331F48091B301882311F4579A5F98BD
:101700008091B2018823D1F49230C1F4109280000C
:101710001092810080918100886080938100809187
:101720008100816080938100109285001092840076
:1017300081E08093890080E98093880008950E9469
:101740001C0C0E945C0C0E94350C089584B58260CC
:1017500084BD85B5846085BD8EE487BD0895CF9234
:10176000DF92EF92FF920F931F93CF93DF93EC01E1
:1017700080910002882339F4D0930202C0930102C1
:101780000E94180C47C0C0900102D090020200E0F5
:1017900010E0EE24FF2437C0A881B981FD016481E7
:1017A0007581F60140815181FA01848195819B0107
:1017B000281B390B37FF0FC0861B970B958384833B
:1017C000DB82CA82012B29F4D0930202C09301026A
:1017D00021C0F7010CC0F6018281938121153105EA
:1017E00049F4FD01158214829B838A83F601D38319
:1017F000C28310C0FD01358324830097B9F30F5FC6
:101800001F4F76016C018091000290E008171907C4
:1018100018F2ECCF809100028F5F80930002DF917D
:10182000CF911F910F91FF90EF90DF90CF9008958F
:1018300081E08093C301089588E00E943F048823DB
:1018400011F484E008958091C301882311F483E0AA
:1018500008958091C201882311F082E008950E94CA
:10186000F00E8130E1F380E008958091B301813082
:1018700011F58091BC019091BD012091BE01309184
:10188000BF01280F391F3093BD012093BC01809107
:10189000BC019091BD01885E93406CF08BB1805883
:1018A0008BB98091BC019091BD01885E934090936B
:1018B000BD018093BC01089587E00E943F04813000
:1018C00009F0AAC080910D0290910E02892B09F1B6
:1018D000809131029091320220910D0230910E02DE
:1018E000820F931F909332028093310280913102D4
:1018F00090913202885E9340A4F0809131029091E1
:101900003202885E9340909332028093310241E02C
:1019100009C0809105029091060290930A0280937B
:10192000090240E080910F0290911002892B09F189
:10193000809133029091340220910F023091100275
:10194000820F931F9093340280933302809133026D
:1019500090913402885E9340A4F08091330290917C
:101960003402885E9340909334028093330261E0A6
:1019700009C0809107029091080290930C02809315
:101980000B0260E0842F0E940D0D80912D0290913A
:101990002E022091090230910A02280F391F30933C
:1019A0002E0220932D0280912D0290912E02885EAE
:1019B000934014F440E00BC080912D0290912E02D0
:1019C000885E934090932E0280932D0241E0809197
:1019D0002F029091300220910B0230910C02280FBF
:1019E000391F3093300220932F0280912F02909163
:1019F0003002885E934014F460E00BC080912F02A7
:101A000090913002885E93409093300280932F0231
:101A100061E0842F0E94520D08958823F1F02091F7
:101A20000502309106028091090290910A02281B5A
:101A3000390B1216130634F48091090290910A02B0
:101A4000019607C0232B49F08091090290910A0268
:101A5000019790930A0280930902662311F1209165
:101A600007023091080280910B0290910C02281B12
:101A7000390B1216130654F480910B0290910C024C
:101A8000019690930C0280930B020895232B49F04A
:101A900080910B0290910C02019790930C0280931D
:101AA0000B0208950F931F93182F062F8091390270
:101AB000882309F0E7C080912102882309F05AC0E9
:101AC0008091090290910A02892BE9F48091C40166
:101AD000837E8093C40110922A028091350288236C
:101AE00009F45DC06091230280E00E94CB0EE0917A
:101AF0003702F0913802309709F451C081E08083B9
:101B0000109235024CC080910302813041F48091E3
:101B1000150290911602019711F411E002C01123F1
:101B2000F1F1E0912802F0E0EC5AFE4F9091C401EF
:101B3000937E8081892B8093C40180912602882323
:101B400021F4809128028F5F03C080912802815088
:101B5000809328028091280283708093280281E07C
:101B600080932A02809103028130C9F480E00E94B0
:101B7000550E15C09091C401937E9093C401E091DD
:101B80002802F0E0EC5AFE4F8081892B8093C4013B
:101B900082E080932A0210920A0210920902809138
:101BA0002202882309F059C080910B0290910C0207
:101BB000892BE9F48091C4018F718093C401109244
:101BC0002B0280913602882309F45CC060912402C4
:101BD00081E00E94CB0EE0913702F09138023097FD
:101BE00009F450C081E08183109236024BC080918D
:101BF0000402813041F480911702909118020197FC
:101C000011F401E002C00023E9F1E0912902F0E0C3
:101C1000E85AFE4F9091C4019F718081892B809377
:101C2000C40180912702882321F4809129028F5FCB
:101C300003C080912902815080932902809129025A
:101C400083708093290281E080932B0280910402AB
:101C50008130C1F40E94550E15C09091C4019F714E
:101C60009093C401E0912902F0E0E85AFE4F808190
:101C7000892B8093C40182E080932B0210920C0286
:101C800010920B0280912C02882331F484EC91E0B5
:101C9000612F402F0E945E0F88B183709091C40124
:101CA000892B88B91F910F910895882321F08130E5
:101CB00009F04EC027C08091150290911602892B21
:101CC00049F08091150290911602019790931602A7
:101CD00080931502809135028823D1F52091150259
:101CE000309116028091190290911A022817390733
:101CF00079F580E060E070E00E94A90E81E08093B9
:101D0000350208958091170290911802892B49F0AD
:101D10008091170290911802019790931802809376
:101D2000170280913602882399F42091170230918E
:101D3000180280911B0290911C022817390741F468
:101D400081E060E070E00E94A90E81E0809336029D
:101D50000895482F81E080933902CB0121E0613959
:101D6000720710F080E991E0413071F0413018F0D5
:101D7000423071F405C0909306028093050208C0BA
:101D800090930602809305029093080280930702C5
:101D90001092390208950F931F93182F062F662370
:101DA00049F460E070E00E94A90E812F60E070E0CD
:101DB0000E94F60F81E080933902113051F011300A
:101DC00018F0123041F403C00093210204C00093C4
:101DD000210200932202109239021F910F9108955F
:101DE000FF920F931F93CF93DF938091000288237C
:101DF00009F459C00091010210910202F801C0815A
:101E0000D1818C819D8101979D838C831816190641
:101E10000CF449C0898180FF05C08E81882311F4AC
:101E200081E08E83898181FF03C0EF81F885099568
:101E3000809100028230A8F0F80182819381909312
:101E400002028093010213821282E0910000F0915D
:101E5000010084819581181619063CF0FF24F39443
:101E600005C01092020210920102FF24809100022C
:101E700081508093000280910002882311F40E9417
:101E80005B0F898182FF08C08A819B819D838C833F
:101E9000C8010E94AF0B08C0C8010E944914898183
:101EA0008F7E898301C0FF248F2DDF91CF911F91F9
:101EB0000F91FF9008951092C3010895FC01809145
:101EC0002A02823069F48091C80191E089278093C9
:101ED000C801882309F03EC08081837E80833AC098
:101EE0008091090290910A02C397A4F56623D1F06C
:101EF0002091090230910A0280E690E0BC01269F01
:101F0000C001279F900D369F900D1124880F892FB7
:101F1000881F990B90931E0280931D0281E080938D
:101F2000C60118C08091C6018823A1F080911D02CE
:101F300090911E02019790931E0280931D02809142
:101F40001D0290911E02892B29F48081837E80835B
:101F50001092C60180912B02823069F48091C701F2
:101F600091E089278093C701882309F03EC08081D2
:101F70008F718083089580910B0290910C02C3971A
:101F8000A4F54423D1F020910B0230910C0280E69D
:101F900090E0AC01249FC001259F900D349F900DCF
:101FA0001124880F892F881F990B9093200280930A
:101FB0001F0281E08093C50108958091C5018823A7
:101FC000A1F080911F02909120020197909320022E
:101FD00080931F0280911F0290912002892B29F487
:101FE00080818F7180831092C5010895982F81E0C0
:101FF00080933902913071F0913018F0923071F481
:1020000005C0709316026093150208C07093160203
:1020100060931502709318026093170210923902B0
:1020200008950CD0BAC0B2D040F0A9D030F021F45D
:102030005F3F19F09BC05111E4C09EC0BFD098F320
:102040009923C9F35523B1F3951B550BBB27AA2739
:1020500062177307840738F09F5F5F4F220F331FAB
:10206000441FAA1FA9F333D00E2E3AF0E0E830D077
:1020700091505040E695001CCAF729D0FE2F27D07A
:10208000660F771F881FBB1F261737074807AB0748
:10209000B0E809F0BB0B802DBF01FF2793585F4FBD
:1020A0002AF09E3F510568F061C0ABC05F3FECF382
:1020B000983EDCF3869577956795B795F7959F5F82
:1020C000C9F7880F911D9695879597F90895E1E0D6
:1020D000660F771F881FBB1F621773078407BA0735
:1020E00020F0621B730B840BBA0BEE1F88F7E09590
:1020F0000895E89409C097FB3EF4909580957095FB
:1021000061957F4F8F4F9F4F9923A9F0F92F96E943
:10211000BB279395F695879577956795B795F111B8
:10212000F8CFFAF4BB0F11F460FF1BC06F5F7F4F55
:102130008F4F9F4F16C0882311F096E911C0772367
:1021400021F09EE8872F762F05C0662371F096E870
:10215000862F70E060E02AF09A95660F771F881F3F
:10216000DAF7880F9695879597F9089597F99F67FD
:1021700080E870E060E008959FEF80EC089500240F
:102180000A941616170618060906089500240A94DC
:1021900012161306140605060895092E0394000C62
:1021A00011F4882352F0BB0F40F4BF2B11F460FFF1
:1021B00004C06F5F7F4F8F4F9F4F089557FD90581A
:1021C000440F551F59F05F3F71F04795880F97FBFB
:1021D000991F61F09F3F79F08795089512161306B5
:1021E0001406551FF2CF4695F1DF08C016161706E4
:1021F0001806991FF1CF8695710561050894089519
:10220000E894BB2766277727CB0197F90895DEDF8F
:10221000A8F19E57A8F1985160F039F1983070F507
:10222000092E9927660F771F881F991F0A94D1F7E7
:102230001CC0BB27993F4CF4B111B1E0B62B672FFE
:10224000782F8827985FB1F708C0869577956795AE
:10225000B79508F4B1609395C1F7BB0F30F411F452
:1022600060FF03C06F5F7F4F8F4F3EF49095809566
:10227000709561957F4F8F4F9F4F08956894C1CFA0
:10228000BFCF0BD08ACF7BDF28F080DF18F09523FB
:1022900009F06CCF71CF1124B4CF90DFA0F3959FDC
:1022A000D1F3950F50E0551F629FF001729FBB273D
:1022B000F00DB11D639FAA27F00DB11DAA1F649FE9
:1022C0006627B00DA11D661F829F2227B00DA11D9C
:1022D000621F739FB00DA11D621F839FA00D611D22
:1022E000221F749F3327A00D611D231F849F600D43
:1022F000211D822F762F6A2F11249F5750408AF07C
:10230000E1F088234AF0EE0FFF1FBB1F661F771F07
:10231000881F91505040A9F79E3F510570F026CF7D
:1023200070CF5F3FECF3983EDCF386957795679529
:10233000B795F795E7959F5FC1F7FE2B880F911D25
:102340009695879597F90895FA01EE0FFF1F30963D
:102350002105310599F16115710561F48038BFE3FC
:102360009B0749F168949038810561F08038BFEF90
:102370009B0741F0992342F5FF3FE1053105210517
:1023800011F1E8940894E795D901AA2329F4AB2F19
:10239000BE2FF85FD0F310C0FF5F70F4A695E0F792
:1023A000F73950F019F0FF3A38F49F779F930CD02B
:1023B0000F9007FC905808953EF0DECE60E070E08C
:1023C00080E89FE308954FE79F775F934F933F9394
:1023D0002F939ED02F913F914F915F9152DF05C077
:1023E00019F40EF0C3CE0CCFC7CEF0DEC8F396388A
:1023F000C0F707F80F92E8942BE33AEA48EB5FE75F
:102400004EDF0F920F920F924DB75EB70F92C0D072
:10241000E8ECF0E016D04F915F91EF91FF91E595D8
:10242000EE1FFF1F49F0FE57E0684427EE0F441FE0
:10243000FA95E1F74195550B32D00F9007FE26C073
:102440000895DF93CF931F930F93FF92EF92DF9244
:102450007B018C01689405C0DA2EEF011EDFFE01BE
:10246000E894A5912591359145915591AEF3EF01F1
:10247000D4D0FE019701A801DA9479F7DF90EF90AC
:10248000FF900F911F91CF91DF9108959B01AC01B7
:1024900060E070E080E89FE3C4CD68CE11C196DEB5
:1024A000E8F39923D9F3940F511DBBF39150504099
:1024B00094F059F0882332F0660F771F881F9150EF
:1024C0005040C1F79E3F510544F7880F911D9695E6
:1024D000879597F908955F3FACF0983E9CF0BB2735
:1024E000869577956795B79508F4B1609395C1F790
:1024F000BB0F58F711F460FFE8CF6F5F7F4F8F4F2E
:102500009F4FE3CF7ECE0EF0DBC036CE68942ECE4A
:102510005DDEC8F39923D1F3C6F3DF93CF931F9306
:102520000F93FF92C92FDD2788232AF02197660F8A
:10253000771F881FDAF720E030E040E85FEB9FE389
:10254000883920F0803E30F021968F7755D0E0EF2B
:10255000F0E003C051D0EDE1F1E073DF8B01BE018B
:10256000EC01FB2E6F5771097595771F880B990B3E
:10257000C2DD28E132E741E35FE38FDEAF2D980152
:10258000AE01FF900F911F91CF91DF9146D005CE04
:10259000FA01DC01AA0FBB1F9B01AC01BF5728F455
:1025A00022273327442750781FC0B75188F4AB2F18
:1025B0000024469537952795011CA395D2F300205A
:1025C00069F0220F331F441FB395DAF30DD013C007
:1025D00061307105A0E88A07B94630F49B01AC016F
:1025E0006627772788279078309621F020833183DB
:1025F0004283538308955058BB27AA270ED0CDCDD0
:10260000BEDD30F0C3DD20F031F49F3F11F41EF445
:10261000B3CD0EF4E095E7FBA9CDE92FCFDD80F334
:10262000BA17620773078407950718F071F49EF5CF
:10263000E7CD0EF4E0950B2EBA2FA02D0B01B901BA
:1026400090010C01CA01A0011124FF27591B99F028
:10265000593F50F4503E68F11A16F040A22F232F34
:10266000342F4427585FF3CF469537952795A79584
:10267000F0405395C9F77EF41F16BA0B620B730B2B
:10268000840BBAF09150A1F0FF0FBB1F661F771F9C
:10269000881FC2F70EC0BA0F621F731F841F48F451
:1026A000879577956795B795F7959E3F08F0B3CFD7
:1026B0009395880F08F09927EE0F979587950895C1
:1026C0009F3F31F0915020F4879577956795B795A6
:1026D000880F911D9695879597F90895629FD0016F
:1026E000739FF001829FE00DF11D649FE00DF11DCD
:1026F000929FF00D839FF00D749FF00D659FF00D7C
:102700009927729FB00DE11DF91F639FB00DE11D68
:10271000F91FBD01CF0111240895A1E21A2EAA1BB1
:10272000BB1BFD010DC0AA1FBB1FEE1FFF1FA21781
:10273000B307E407F50720F0A21BB30BE40BF50B7E
:10274000661F771F881F991F1A9469F76095709507
:10275000809590959B01AC01BD01CF010895CF9369
:10276000DF938230910510F482E090E0E0913E0228
:10277000F0913F0240E050E020E030E026C0608170
:10278000718168177907E0F06817790781F4828111
:1027900093812115310531F0D90113969C938E93C5
:1027A00012972BC090933F0280933E0226C04115A2
:1027B000510519F06417750718F4AB01E901DF0141
:1027C0009F0172816381E72FF62F3097C1F6411583
:1027D000510501F1481B590B4430510580F4129604
:1027E0008D919C911397209719F09B838A8304C045
:1027F00090933F0280933E02FD01329646C0FD0158
:10280000E40FF51F819391934250504011965C93D1
:102810004E933BC020913C0230913D022115310581
:1028200041F420915E0130915F0130933D0220938D
:102830003C0220916001309161012115310541F484
:102840002DB73EB740915C0150915D01241B350BC3
:10285000E0913C02F0913D02E217F307A0F42E1B39
:102860003F0B2817390778F0AC014E5F5F4F2417F4
:10287000350748F04E0F5F1F50933D0240933C02D6
:102880008193919302C0E0E0F0E0CF01DF91CF911E
:102890000895CF93DF93009709F491C0FC0132971C
:1028A0001382128260913E0270913F0261157105A0
:1028B00081F420813181280F391F80913C02909151
:1028C0003D028217930799F5F0933D02E0933C0295
:1028D00076C0DB0180E090E002C0CD01D901AE17E7
:1028E000BF0748F412962D913C911397211531059D
:1028F000A1F7CD0121C0B383A283EF014991599182
:102900009E01240F351FA217B30779F42D913C9136
:102910001197240F351F2E5F3F4F3183208312966E
:102920002D913C91139733832283009729F4F093E0
:102930003F02E0933E0243C0DC011396FC93EE930A
:1029400012974D915D91A40FB51FEA17FB0769F42B
:1029500020813181240F351F2E5F3F4FEC013983D9
:102960002883228133813B832A83E0E0F0E002C0A8
:10297000FB01BC01DB0112968D919C91139700978E
:10298000B9F79B012E5F3F4F8D919C911197820F5C
:10299000931F40913C0250913D024817590779F42A
:1029A000309729F410923F0210923E0202C0138227
:1029B00012822250304030933D0220933C02DF913E
:1029C000CF910895EF92FF920F931F93CF93DF93D0
:1029D0008C01E0914202F0914302838181FF1FC08C
:1029E000C0E0D0E00AC0DB011896ED91FC91199788
:1029F0000995009711F0CFEFDFEFF80181918F017A
:102A00006091420270914302882369F7DB011896B6
:102A1000ED91FC9119978AE00995009711F0CFEF9D
:102A2000DFEFCE01CDB7DEB7E6E00C9423152A88A0
:102A3000398848885F846E847D848C849B84AA84D2
:102A4000B984C884DF80EE80FD800C811B81AA815F
:102A5000B981CE0FD11D0FB6F894DEBF0FBECDBF2A
:082A6000ED010895F894FFCF89
:102A680048656C6C6F2C20446F6C6C7921000000F9
:102A78000002000000003207000000001C050000F2
:102A880069050000BC050000130600007006000080
:102A9800D20600003A070000A80700001C08000042
:102AA800980800001A090000A509000000020405A2
:102AB80007090B00180C0410C08020602000460293
:022AC80000000C
:00000001FF
