:100000000C94B0020C94CD020C94CD020C94CD0251
:100010000C94DD0B0C94060C0C942F0C0C94580CC7
:100020000C94CD020C94BE0A0C94E70A0C94100BAD
:100030000C948B0B0C94390B0C94620B0C94B40B3A
:100040000C94430A0C946C0A0C94950A0C94CD02FF
:100050000C94CD020C94CD020C94CD020C94CD02E4
:100060000C94CD020C94CD020C94CD020C94CD02D4
:100070000C94CD020C94CD020C94CD02530856087A
:1000800059085C0865085F08620868086B086E0814
:100090007108740877087A087D0880088308860844
:1000A00089089A089D08A008A308AC08A608A90812
:1000B000AF08B208B508B808BB08BE08C108C40834
:1000C000C708CA08CD08D00807634236B79BD8A72F
:1000D0001A39685618AEBAAB558C1D3CB7CC57636D
:1000E000BD6DEDFD753EF6177231BF000000803F1B
:1000F00008000000BE922449123EABAAAA2ABECD37
:10010000CCCC4C3E00000080BEABAAAAAA3E0000A8
:100110000000BF000000803F0000000000084178A0
:10012000D3BB4387D1133D190E3CC3BD4282AD2BD7
:100130003E68EC8276BED98FE1A93E4C80EFFFBECF
:1001400001C4FF7F3F000000000016050100000011
:1001500000000000FA000000E000E00028FE28FE99
:10016000282454FE5448C4C81026466C92AA44A0C1
:1001700000A0C000000038448200008244380028FB
:10018000107C102810107C1010000A0C00001010B9
:10019000101010000606000004081020407C8A920F
:1001A000A27C0042FE020042868A92628482A2D22F
:1001B0008C182848FE08E4A2A2A29C3C5292920C01
:1001C000808E90A0C06C9292926C60929294780013
:1001D0006C6C0000006A6C00001028448200282823
:1001E000282828008244281040808A90604C929EE3
:1001F000827C7E8888887EFE9292926C7C8282824B
:1002000044FE82824438FE92929282FE90909080C8
:100210007C8292925EFE101010FE0082FE8200042C
:100220000282FC80FE10284482FE02020202FE408E
:100230003040FEFE201008FE7C8282827CFE909080
:1002400090607C828A847AFE909894626292929204
:100250008C8080FE8080FC020202FCF8040204F81C
:10026000FC021C02FCC6281028C6E0100E10E08616
:100270008A92A2C200FE82820040201008040082FE
:1002800082FE0020408040200202020202008040E4
:100290002000042A2A2A1EFE1222221C1C222222AC
:1002A000041C222212FE1C2A2A2A18107E9080404A
:1002B000304A4A4A7CFE1020201E0022BE02000462
:1002C0000222BC00FE081422000082FE02003E2032
:1002D00018201E3E1020201E1C2222221C3E2828F0
:1002E0002810102828183E3E10202010122A2A2AF2
:1002F0000420FC2202043C0202043E3804020438BA
:100300003C020C023C2214081422300A0A0A3C2245
:10031000262A322200106C82000000FE00000082BB
:100320006C1000081010081000000000007F818190
:10033000817F7F8383837F7F8787877F7F8F8F8F77
:100340007F7F9F9F9F7F7FBFBFBF7F7FFFFFFF7F1D
:100350002040FF4020621517156500FBFB000000E0
:1003600000000000C0FF0300E0FF0700F0FF0F00E7
:10037000F8FF1F0078001E0078001E0078001E00A5
:1003800078001E0078001E0078001E0078001E0015
:1003900078001E0078001E00000000000000000031
:1003A00080FF0300E0FF0700F0FF0F00F8FF1F00D1
:1003B000F83C1F00783C1E00783C1E00783C1E0074
:1003C000783C1E00783C1E00783C1E00783C1E00E5
:1003D000783C1E00783C1E00783C1E0000000000A7
:1003E00000000000E0FF0300F0FF0700F8FF0F002F
:1003F000F8FF1F00783C1E00783C1E00783C1E0071
:10040000783C1E00783C1E00783C1E00783C1E00A4
:10041000783C1E00783C1E00783C1E000000000066
:1004200000000000F8FF0300F8FF0F00F8FF1F00B6
:10043000F8FF1F0000001E0000001E0000801F00CB
:1004400000F01F0000FF0F00E0FF0700F0FF0000BA
:10045000F80F0000F80000007800000078000000AD
:10046000F8FF1F00F8FF1F00F0FF1F00E0FF1F0054
:100470000000000000000000F8FF1F00F8FF1F0050
:10048000F8FF1F00F8FF1F0078001E00783C1E00D8
:10049000783C1E00783C1E00783C1E00783C1E0014
:1004A000783C1E00F87E1F00F8FF1F00F0FF0F00D1
:1004B000E0E703000000000000003800EEFF6C00E1
:1004C0002A8045003A0047FC03FF6CFC83FF39009B
:1004D000DEFF0B7CD0810BFCD0810BC0D0810BFCEC
:1004E000D0810B7CDEFF0B0082FF397002FF6CF8BD
:1004F0003A0047DC2A8045CCEEFF6CCC0000380087
:100500000000000C00001E0C00001E0000001E0079
:1005100000001E0000001E00F8FF1F00F8FF1F0073
:10052000F8FF1F00F8FF1F0000001E0000001E0063
:1005300000001E0000001E0000005E0000004000E1
:1005400000007C00000040000000400000007C0033
:1005500000003000000010000000300000007C00AF
:1005600011241FBECFEFD8E0DEBFCDBF11E0A0E069
:10057000B1E0E0E5F7E302C005900D92AE37B107B8
:10058000D9F712E0AEE7B1E001C01D92A038B10783
:10059000E1F70E94C7030C94A61B0C940000EF9295
:1005A000FF920F931F93DF93CF9300D00F92CDB79D
:1005B000DEB71A8219821B820E94ED030E948E060A
:1005C00080E00E94CC0980E063E040E020E00F2E54
:1005D000F0E8EF2EF5E2FF2EF0E00F2FF0E01F2FF6
:1005E000F02D0E9439090E94D00380E091E00E9422
:1005F000561B89818B838A8189838981882F90E02A
:100600008530910521F08A30910511F002C001C0BA
:100610000000EFCFDF93CF93CDB7DEB782E060E08D
:1006200046E950E00E94E506CF91DF910895DF93FF
:10063000CF93CDB7DEB782E061E046E950E00E949B
:10064000E506CF91DF9108958F92AF92BF92CF923E
:10065000EF92FF920F931F93DF93CF93CDB7DEB747
:100660008DB79EB709970FB6F8949EBF0FBE8DBF8A
:100670008DB79EB7019626E930E0FC0131832083D7
:1006800028EC30E0FC013383228320E931E0FC01D7
:1006900035832483FC011682FC011086178280E0DA
:1006A00062E041E026E930E008EC10E00F2EF0E9CE
:1006B000EF2EF1E0FF2EF02DCC24AA24BB248824B9
:1006C0000E94E7058DB79EB709960FB6F8949EBFB6
:1006D0000FBE8DBFCF91DF911F910F91FF90EF90D3
:1006E000CF90BF90AF908F9008958F92AF92BF92AE
:1006F000CF92EF92FF920F931F93DF93CF93CDB7DB
:10070000DEB78DB79EB709970FB6F8949EBF0FBEA0
:100710008DBF8DB79EB7019626E930E0FC0131838D
:10072000208328EC30E0FC013383228320E931E090
:10073000FC0135832483FC011682FC01108617829C
:1007400080E062E040E026E930E008EC10E00F2EA7
:10075000F0E9EF2EF1E0FF2EF02DCC24AA24BB24EB
:10076000882483940E94E7058DB79EB709960FB63B
:10077000F8949EBF0FBE8DBFCF91DF911F910F9157
:10078000FF90EF90CF90BF90AF908F9008950E9410
:10079000410A0E94330A0E94CF0280E090E008954F
:1007A0000F931F9380E460E00E94AF0400E0802F6D
:1007B00060E00E94960410E080E061E00E94AF04D7
:1007C0001F5F1038C9F70F5F043089F783E060E0DE
:1007D0000E948F041F910F9108950F931F9382E041
:1007E0000E944408882311F482E006C081E00E9440
:1007F0004408882319F481E090E06DC00E94950CB4
:1008000085E061E00E948C088EEA60E00E94AF04FF
:1008100082EA60E00E94AF0480EA60E00E94AF04D8
:1008200000E513ECC8010197F1F780EC60E00E944D
:10083000AF048FE260E00E94AF0481E860E00E94B4
:10084000AF0486E160E00E94AF0482E260E00E94B3
:10085000AF04C8010197F1F78FEA60E00E94AF048E
:1008600086EA60E00E94AF0485EA60E00E94AF047F
:1008700080E090E028E833E1F9013197F1F7019643
:1008800043E0883E9407C1F783EB60E00E94AF0429
:1008900080E460E00E94AF0483E060E00E94960480
:1008A00083E060E00E948F041092180210921A02F6
:1008B000109219028AE291E090937D0280937C026B
:1008C00088E10E946E040E94D00384EA60E00E94E6
:1008D000AF0485E091E01F910F9108951F93182FA9
:1008E00085E00E9444088130C1F487E00E94CA0478
:1008F00082E06AE00E941B0582E061EB0E941B051A
:10090000612F113208F060E282E00E941B0589EE3F
:100910008A95F1F787E00E94CA041F9108958370B9
:100920006F77609316028093170208950F931F93B9
:10093000062F162F1F778370806B60E00E94AF0434
:1009400012951F70812F806160E00E94AF04802F9C
:100950008F7060E00E94AF041F910F9108950F9374
:100960001F93082F162F85E00E944408813079F4E8
:10097000112319F0113021F402C02B9801C02B9AD9
:1009800086E08A95F1F780E0602F0E941B051F9199
:100990000F9108951F93182F82E00E944408813020
:1009A00009F047C0912F977080911B02981709F4A6
:1009B00040C090931B0285B1887F892B85B9933005
:1009C00011F1943028F4913051F0923090F40CC031
:1009D000953019F19530E0F0963021F50FC0E09197
:1009E000C201F091C30122C0E091C001F091C101A8
:1009F0001DC0E091C401F091C50118C0E091CC0187
:100A0000F091CD0113C0E091C601F091C7010EC075
:100A1000E091C801F091C90109C0E091CA01F091CB
:100A2000CB0104C0E091CE01F091CF01309709F0E5
:100A300009951F9108951F93162F0E94CA0482E002
:100A40000E944408813021F41EBD0DB407FEFDCF85
:100A50001F9108952F923F924F925F926F927F92D3
:100A60008F929F92AF92BF92CF92DF92EF92FF92BE
:100A70000F931F93DF93CF93CDB7DEB7582E962EEB
:100A8000442E39013C2CC98CDA8C2B8C81E0681700
:100A900039F1681728F092E0691709F085C049C05C
:100AA00080E061E00E94330780E0B7010E94FC060D
:100AB00080E0642DA3019801032DEE24E394E3E587
:100AC000CE2EE2E0DE2E0E946A07552009F06CC0AF
:100AD00000D00F92EDB7FEB71182B382A28223C07D
:100AE00081E061E00E94330781E0B6010E94FC06CC
:100AF00081E0682D4D895E892F89388D022DEE2485
:100B0000E39473E5C72E72E0D72E0E946A07552042
:100B100009F04AC000D00F92EDB7FEB791828C8DDC
:100B20009D8D938382830E94F6070F900F900F9004
:100B30003BC082E061E00E94330780E0B7010E9481
:100B4000FC0681E0B6010E94FC0680E0642DA30152
:100B50009801032DEE24E39493E5C92E92E0D92E5B
:100B60000E946A0781E0682D4D895E892F89388D42
:100B7000022D0E946A075520B9F400D000D00F92D0
:100B8000ADB7BEB71196EDB7FEB79182FD01B28247
:100B9000A1828C8D9D8D948383830E94F6070F9094
:100BA0000F900F900F900F90CF91DF911F910F91A9
:100BB000FF90EF90DF90CF90BF90AF909F908F907D
:100BC0007F906F905F904F903F902F9008956F921D
:100BD0007F928F929F92AF92BF92CF92DF92EF92CD
:100BE000FF920F931F93DF93CF93CDB7DEB7942E71
:100BF0007C2DD50149895A89AB88BC88CD88DE888F
:100C00009F89813009F457C08130B8F1823009F0F2
:100C100076C0613091F0613020F0623009F06FC031
:100C200015C080E060E00E94330780E0B7010E94B9
:100C3000FC0680E0692DA8011DC081E060E00E94F3
:100C4000330781E0B6010E94FC0611C082E060E03B
:100C50000E94330780E0B7010E94FC0681E0B601E4
:100C60000E94FC0680E0692DA8010E94E50681E053
:100C7000682DA5010E94E50642C0EDB7FEB7399781
:100C80000FB6F894FEBF0FBEEDBF6DB67EB60894EA
:100C9000611C711C52834183F301B382A282D5820D
:100CA000C4829683888D998D9087878380E0492DB3
:100CB000C72E5D011AC0EDB7FEB739970FB6F8948D
:100CC000FEBF0FBEEDBFADB7BEB7119652834183D5
:100CD000FD01B382A282D582C482968310861782D8
:100CE00081E0492DC72EAA24BB240E942A058DB776
:100CF0009EB709960FB6F8949EBF0FBE8DBFCF91D9
:100D0000DF911F910F91FF90EF90DF90CF90BF90F8
:100D1000AF909F908F907F906F9008950E942A0FC0
:100D200081E080935202ECE1F2E011921192118283
:100D3000108232961182108232961182108232967F
:100D400011821082329611821082329611821082A4
:100D5000329611821082329611821082329611825E
:100D6000108232961182108232961182108232964F
:100D7000118210823696119211921192108232963F
:100D8000119211921192119211921192119211825B
:100D9000108232961182108232961182108232961F
:100DA00011821082769711821082329611821082FF
:100DB00010925102109250021092520287E061E0AC
:100DC0000E948C0887E091E00895EF92FF920F93C4
:100DD0001F93182F062F7A0160E00E943307812F9E
:100DE000602F0E941E07812FB7010E9448071F91A4
:100DF0000F91FF90EF900895482F81E08093520269
:100E0000CB0123E0693E720710F088EE93E0413099
:100E100071F0413018F0423071F405C09093270210
:100E20008093260208C09093270280932602909315
:100E3000290280932802109252020895982F81E08F
:100E400080935202913051F0913018F0923041F479
:100E500003C060933F0204C060933F02609340026E
:100E6000109252020895982F81E08093520291309F
:100E700051F0913018F0923041F403C060931C029D
:100E800004C060931C0260931D02109252020895E8
:100E9000482F81E080935202CB0121E06139720733
:100EA00010F080E991E0413071F0413018F04230AB
:100EB00071F405C090931F0280931E0208C09093A6
:100EC0001F0280931E0290932102809320021092B1
:100ED000520208958F929F92AF92BF92CF92DF926B
:100EE000EF92FF920F931F93CF93DF93182FF62E5D
:100EF0005A014901E60161E00E943307812FB501E3
:100F0000A4010E94640F812F6F2D0E941E07812F64
:100F1000602F0E944F0F812FB5010E94340FC11422
:100F2000D10499F0113049F0113018F0123069F401
:100F300006C0188210924E0208C0198204C018829E
:100F4000198210924E0210924F02D0935102C09318
:100F50005002EE20B9F58EE791E090935102809314
:100F60005002812FB4010E944807812F0E94150F63
:100F7000113071F0113018F0123059F512C0109282
:100F80007E0110924E0280917E018823E1F321C000
:100F900010927F0110924F0280917F018823E1F32C
:100FA00018C010927E0110927F0110924E02109292
:100FB0004F0280917E018823E1F380917F01882395
:100FC000C1F307C0812FB4010E944807812F0E94FE
:100FD000150FDF91CF911F910F91FF90EF90DF9050
:100FE000CF90BF90AF909F908F900895CF92DF9257
:100FF000EF92FF920F931F93DF93CF93CDB7DEB79E
:101000008B85813061F0813018F08230A1F511C0FC
:10101000EC85FD85809153028823E1F306C0EC85C1
:10102000FD85809154028823E1F3309721F10995E1
:1010300022C0CC84DD84EE84FF8400E010E0002335
:1010400051F480915302882331F0C114D10411F07E
:10105000F601099501E0112351F48091540288238F
:1010600031F0E114F10411F0F701099511E00023CA
:1010700031F3112321F3CF91DF911F910F91FF9055
:10108000EF90DF90CF900895E82FF0E0E331F10585
:1010900040F4E25CFF4FEE0FFF1F0590F491E02D4E
:1010A000099480E008958091E70108958091E80116
:1010B00008958091E90108958091EA010895809151
:1010C000EB0108958091ED0108958091EC01089560
:1010D0008091EE0108958091EF0108958091F001D3
:1010E00008958091F10108958091F2010895809111
:1010F000F30108958091F40108958091F501089518
:101100008091F60108958091F70108958091F8018A
:1011100008958091F9010895E82FF0E0E331F10599
:1011200008F040C0EF5AFF4FEE0FFF1F0590F491FB
:10113000E02D09946093E70108956093E801089514
:101140006093E90108956093EA0108956093EB01CB
:1011500008956093ED0108956093EC010895609304
:10116000EE0108956093EF0108956093F0010895F2
:101170006093F10108956093F20108956093F30183
:1011800008956093F40108956093F50108956093C4
:10119000F60108956093F70108956093F8010895AA
:1011A0006093F7010895CF92DF92EF92FF920F9331
:1011B0001F93CF93DF937B018C01EA01690181E0EA
:1011C000E81681EEF80680E0080780E0180740F492
:1011D00044E0EE0CFF1C001F111F4A95D1F707C019
:1011E00033E0EE0CFF1C001F111F3A95D1F760E0B1
:1011F00072EC8BEE9BE0A80197010E94011A790125
:101200008A0186EF9FEFAFEFBFEFE80EF91E0A1FCE
:101210001B1FC801B7012AE030E040E050E00E9407
:10122000011A653071058105910540F08AE090E072
:10123000A0E0B0E0E80EF91E0A1F1B1FC801B701AD
:101240002AE030E040E050E00E94011AC901DA01D2
:1012500039832883CD01AA27BB27F6019183808398
:10126000DF91CF911F910F91FF90EF90DF90CF9082
:101270000895BF92CF92DF92EF92FF920F931F9348
:10128000DF93CF9300D000D0CDB7DEB7B62EC42EFB
:10129000D22E882321F0813009F070C038C01C8222
:1012A0001B821A8219821092C0001092C100109203
:1012B000C200C801B701AE014D5F5F4F9E012F5FB5
:1012C0003F4F0E94D308BB0CDD0CDD0CDD0CDD0CA8
:1012D000DB28CC0CCC0CCC0CCD288B818093C400AB
:1012E00089818093C500C092C20081E0E81681EE3A
:1012F000F80680E0080780E0180728F08091C00019
:1013000082608093C00081E080930E0237C01A8211
:1013100019821C821B821092C8001092C900109280
:10132000CA00C801B701AE014F5F5F4F9E012D5F3C
:101330003F4F0E94D308BB0CDD0CDD0CDD0CDD0C37
:10134000DB28CC0CCC0CCC0CCD2889818093CC0034
:101350008B818093CD00C092CA0081E0E81681EEB7
:10136000F80680E0080780E0180728F08091C800A0
:1013700082608093C80081E0809313020F900F90E9
:101380000F900F90CF91DF911F910F91FF90EF90F1
:10139000DF90CF90BF900895882329F0813029F104
:1013A00090E083E108958DE00E9444088823D1F401
:1013B00010920E0210920C0210920D0280E00E9418
:1013C000A51080E065E070E00E941A0A83E092E0D8
:1013D00061E041E028EE33E00E9434108DE061E0EE
:1013E0000E948C0891E08DE008958EE00E944408F0
:1013F000882319F091E08EE0089510921302109264
:1014000011021092120281E00E94A51081E065E0B5
:1014100070E00E941A0A8AEF91E061E041E028EE54
:1014200033E00E9434108EE061E00E948C0891E06D
:101430008EE0089577FF03C060E070E005C06F3173
:10144000710514F06EE170E0882319F0813051F4D9
:1014500005C07093100260930F02089570931502F7
:101460006093140208950E94A10F0E94440D0E94EF
:10147000810C0E9472100E94A90D0E94C40F7894E2
:101480000895000008951F920F920FB60F92112435
:101490002F933F934F935F936F937F938F939F937C
:1014A000AF93BF93EF93FF93E091A001F091A1015F
:1014B000309709F00995FF91EF91BF91AF919F91FE
:1014C0008F917F916F915F914F913F912F910F90ED
:1014D0000FBE0F901F9018951F920F920FB60F928C
:1014E00011242F933F934F935F936F937F938F9329
:1014F0009F93AF93BF93EF93FF93E091A201F0917D
:10150000A301309709F00995FF91EF91BF91AF9139
:101510009F918F917F916F915F914F913F912F910B
:101520000F900FBE0F901F9018951F920F920FB63D
:101530000F9211242F933F934F935F936F937F9359
:101540008F939F93AF93BF93EF93FF93E091A40189
:10155000F091A501309709F00995FF91EF91BF91A6
:10156000AF919F918F917F916F915F914F913F913B
:101570002F910F900FBE0F901F9018951F920F92F2
:101580000FB60F9211242F933F934F935F936F9356
:101590007F938F939F93AF93BF93EF93FF93E091CC
:1015A0009201F0919301309709F00995FF91EF9125
:1015B000BF91AF919F918F917F916F915F914F916B
:1015C0003F912F910F900FBE0F901F9018951F9273
:1015D0000F920FB60F9211242F933F934F935F9367
:1015E0006F937F938F939F93AF93BF93EF93FF93EB
:1015F000E0919401F0919501309709F00995FF91E0
:10160000EF91BF91AF919F918F917F916F915F917A
:101610004F913F912F910F900FBE0F901F901895F3
:101620001F920F920FB60F9211242F933F934F9357
:101630005F936F937F938F939F93AF93BF93EF933A
:10164000FF93E0919601F0919701309709F0099589
:10165000FF91EF91BF91AF919F918F917F916F918A
:101660005F914F913F912F910F900FBE0F901F9060
:1016700018951F920F920FB60F9211242F933F933C
:101680004F935F936F937F938F939F93AF93BF938A
:10169000EF93FF93E0919A01F0919B01309709F04D
:1016A0000995FF91EF91BF91AF919F918F917F919C
:1016B0006F915F914F913F912F910F900FBE0F90BF
:1016C0001F9018951F920F920FB60F9211242F930F
:1016D0003F934F935F936F937F938F939F93AF93BA
:1016E000BF93EF93FF93E0919C01F0919D013097A0
:1016F00009F00995FF91EF91BF91AF919F918F9163
:101700007F916F915F914F913F912F910F900FBEFD
:101710000F901F9018951F920F920FB60F921124E1
:101720002F933F934F935F936F937F938F939F93E9
:10173000AF93BF93EF93FF93E0919801F0919901DC
:10174000309709F00995FF91EF91BF91AF919F916B
:101750008F917F916F915F914F913F912F910F905A
:101760000FBE0F901F9018951F920F920FB60F92F9
:1017700011242F933F934F935F936F937F938F9396
:101780009F93AF93BF93EF93FF93E0919E01F091EE
:101790009F01309709F00995FF91EF91BF91AF91AB
:1017A0009F918F917F916F915F914F913F912F9179
:1017B0000F900FBE0F901F9018951F920F920FB6AB
:1017C0000F9211242F933F934F935F936F937F93C7
:1017D0008F939F93AF93BF93EF93FF93E091880113
:1017E000F0918901309709F00995FF91EF91BF9130
:1017F000AF919F918F917F916F915F914F913F91A9
:101800002F910F900FBE0F901F9018951F920F925F
:101810000FB60F9211242F933F934F935F936F93C3
:101820007F938F939F93AF93BF93EF93FF93E09139
:101830008A01F0918B01309709F00995FF91EF91A2
:10184000BF91AF919F918F917F916F915F914F91D8
:101850003F912F910F900FBE0F901F9018951F92E0
:101860000F920FB60F9211242F933F934F935F93D4
:101870006F937F938F939F93AF93BF93EF93FF9358
:10188000E0918C01F0918D01309709F00995FF915D
:10189000EF91BF91AF919F918F917F916F915F91E8
:1018A0004F913F912F910F900FBE0F901F90189561
:1018B0001F920F920FB60F9211242F933F934F93C5
:1018C0005F936F937F938F939F93AF93BF93EF93A8
:1018D000FF93E0918E01F0918F01309709F0099507
:1018E000FF91EF91BF91AF919F918F917F916F91F8
:1018F0005F914F913F912F910F900FBE0F901F90CE
:10190000189580E10E944408882361F4E0E8F1E042
:101910001192119281E0E03CF807D1F780E161E09B
:101920000E948C0880E191E00895239A0895FF9227
:101930000F931F93CF93DF93F82E8AE0F816B1F040
:101940008F1548F0E8E0FE16B9F1EF1538F1F7E031
:10195000FF1651F43BC08DE0F81659F0EBE1FE168E
:1019600089F0FCE0FF1641F001E041C01092160240
:1019700003C0109216023AC08091170281508093E2
:10198000170234C00E94D00314C080E061E00E94BE
:10199000AF04809116028F5F809316028091160229
:1019A00087FFF3CF10921602809117028150809327
:1019B000170200E011E01CC0809116028823B1F0EC
:1019C0008091160286508093160210C081E00E941A
:1019D000B50E64EF71E080E090E04DE750E024E662
:1019E00030E00E94C20E81E00E941A0E00E010E07A
:1019F00080911702609116020E949604002351F113
:101A000085E0F89EC0011124EC01C355DF4F8C0125
:101A10000E541F4FFE01849161E00E94AF04219695
:101A2000C017D107B9F780E061E00E94AF04809150
:101A300016028A5F809316028091160290E08C371E
:101A400091053CF01092160280911702815080930C
:101A5000170211E0809117028370809317021130F2
:101A600059F480911802813039F4E0911902F09113
:101A70001A02309709F0099580E090E0DF91CF914C
:101A80001F910F91FF90089580E00E9444088823E1
:101A900051F4F8940E940F1181E00E94560D80E0ED
:101AA00061E00E948C0880E091E00895813049F067
:101AB000F894813020F18230B1F0833009F045C0D4
:101AC00017C02C9A80E8809361001092610080E03A
:101AD00090E00000019688329105D9F710926800D5
:101AE00010926B00089580E88093610083E004C049
:101AF00080E88093610088E08093610028C080E0E6
:101B000090E0000001962DE680369207D1F72C98E0
:101B100080E090E0000001962DE680369207D1F734
:101B200010927A008FEF809364008091680081604A
:101B30008093680080916B00846080936B00789440
:101B400083B7816083BF88950895823008F07894C8
:101B500008950F931F930E943B1180E06AE271E1A8
:101B60000E94E20D81E062E271E10E94E20D82E0FA
:101B70006AE171E10E94E20D86E062E371E10E9498
:101B8000E20D02E111E183E0B8010E94E20D84E080
:101B9000B8010E94E20D85E0B8010E94E20D87E0E5
:101BA000B8010E94E20D82E061E00E948C088FEF94
:101BB00080931B0287E00E94CA0482E091E01F919B
:101BC0000F910895E82FF0E0EE0FFF1FE054FE4F55
:101BD0007183608308958AE00E944408813041F453
:101BE0000E949D111092D1018AE060E00E948C0851
:101BF000089589E00E9444088130D9F48091D00191
:101C0000882311F00E940F0F82E00E949D118091A5
:101C1000DE019091DF01009731F00E94BD1A109211
:101C2000DF011092DE011092D00189E060E00E9495
:101C30008C080895813029F0823029F40E94F90D32
:101C400008950E94EB0D08950F931F93CF93DF9398
:101C500080E291E00E94231A9C019093DF0180931F
:101C6000DE01892B11F480E039C08901C0E0D0E0A9
:101C7000BE0180E090E00E94ED1620E030E040EAF6
:101C800051E40E94851627EF35E740E05FE30E94AC
:101C9000B5179B01AC0160E070E080E291E40E9426
:101CA00018189B01AC01CA01B9012DEC3CEC42E8CB
:101CB00051E40E94B5170E947B172AE030E040E013
:101CC00050E00E94E219F80161937193819391931E
:101CD0008F012196C834D10559F681E0DF91CF916B
:101CE0001F910F9108958AE00E944408882371F49F
:101CF0001092DB011092DA0181E00E94B91181E0BB
:101D00008093D1018AE061E00E948C088AE091E032
:101D100008951F938BE00E944408882311F090E0FF
:101D200021C089E00E9444088823D9F40E94240E2F
:101D3000182F8130B1F41092D2011092D301109279
:101D4000D4011092D5018DE062E471E10E94FB1094
:101D500082E00E94B9111093D00189E061E00E94F5
:101D60008C0891E089E01F910895813029F082303C
:101D700031F090E089E008950E94730E08950E946A
:101D8000890E08958F929F92AF92BF92CF92DF9269
:101D9000EF92FF920F931F93CF93DF934B015C0160
:101DA000EA01B9012115310539F19E01442737FDBA
:101DB0004095542F6536710510F064E670E080E0C0
:101DC00090E00E94E21924E630E040E050E00E94FA
:101DD000011A79018A01C501B4010E944511C701A8
:101DE0000E94131060E070E080E090E00E944511D6
:101DF000CE018E199F0904C04115510519F0CA0181
:101E00000E941310DF91CF911F910F91FF90EF90DF
:101E1000DF90CF90BF90AF909F908F900895EFE6A6
:101E2000F0E080818D7F80830895982F81E08093FA
:101E30005202913051F0913018F0923041F403C0C9
:101E400010923A0204C010923A0210923B02109291
:101E5000520208953A9A3B9A3C9A3D9A3E9A3F9A8A
:101E600088B1837088B90895982F81E080935202D9
:101E7000913071F0913018F0923071F405C0709388
:101E80002F0260932E0208C070932F0260932E02DF
:101E90007093310260933002109252020895982F8D
:101EA00081E080935202913051F0913018F09230DD
:101EB00041F403C060933C0204C060933C02609311
:101EC0003D021092520208950F931F93CF93DF9318
:101ED000EB018A01813001F1813018F0823061F527
:101EE0000DC08091260290912702892B11F080E08D
:101EF0001AC010923302109232021EC08091260244
:101F000090912702892B21F080E00E94E31104C008
:101F1000109233021092320280912802909129028D
:101F2000892B31F081E0BE01A8010E94E31104C0B9
:101F30001092350210923402DF91CF911F910F91D0
:101F400008951092E7011092E8011092EC011092AE
:101F5000E9011092EB011092ED011092EE01109246
:101F6000EF011092F0011092F1011092F201109223
:101F7000F3011092F4011092F5011092F601109203
:101F8000F7011092F801089582E00E944408882326
:101F900019F490E082E0089510926A0210926902AA
:101FA00010926C0210926B0210926E0210926D02EF
:101FB0001092700210926F021092720210927102CF
:101FC00080E991E0909356028093550290935802D5
:101FD0008093570290935A028093590290935C0227
:101FE00080935B0290935E0280935D0284E398E0AD
:101FF0009093600280935F029093620280936102EB
:1020000090936402809363029093660280936502CA
:10201000909368028093670281E061E00E948C08DF
:1020200091E081E00895DF93CF93CDB7DEB7299794
:102030000FB6F894DEBF0FBECDBF9C01CE01019656
:1020400061E040E00E943410982F882319F48F81BA
:102050008823E9F3892F29960FB6F894DEBF0FBEC7
:10206000CDBFCF91DF910895EF92FF920F931F9311
:10207000CF93DF93EC01F62EE42E890188E00E94D5
:102080004408813011F081E026C084E090E00E9495
:10209000231AFC01009711F482E01DC0F982F0FCC4
:1020A0001E8281E0E81619F4898184608983898120
:1020B000886089831B830A831D830C83D183C0833B
:1020C0001382128281E08093E001CF010E946012AE
:1020D0001092E00180E0DF91CF911F910F91FF906E
:1020E000EF90089588E00E9444088823B9F4109284
:1020F000730210927502109274021092E001109215
:10210000E10180E160E572E10E94EA100E9457124D
:102110000E94911088E061E00E948C0888E091E0C4
:102120000895EEE6F0E08081826080830895682F54
:1021300080E00E94B21080E090E00895682F81E076
:102140000E94B21080E090E00895882319F0813059
:1021500041F404C0519A5098599A0895539A52984C
:102160005B9A0895882319F0813071F517C080912A
:102170000C02813059F58091C00082958695877058
:1021800080FF26C06093C6008091C00086FFFCCF10
:102190008091C00080648093C00016C080911102BD
:1021A0008130A1F48091C80082958695877080FF68
:1021B0000FC06093CE008091C80086FFFCCF809155
:1021C000C80080648093C80080E0089581E008958D
:1021D00082E00895803218F020E030E00AC0E82F55
:1021E000F0E0EE0FFF1FE058FE4F20813181718338
:1021F0006083C9010895E82F803268F480518330EC
:1022000050F0F0E0EE0FFF1FE058FE4F20813181CB
:102210007183608302C020E030E0C9010895249AF0
:102220002C9A089583E58CBD81E08DBD8DE08A9563
:10223000F1F7089583E58CBD1DBC84EF91E0019713
:10224000F1F708958FE78CBD1DBC84EF91E00197F5
:10225000F1F7089583E58CBD81E08DBD8DE08A9511
:10226000F1F7089583E58CBD81E08DBD84EF91E0A9
:102270000197F1F70895259A2698279A209A219A8E
:10228000229A08950E945C1108959B01AC018091EF
:10229000D101882381F0DA01C901880F991FAA1F93
:1022A000BB1F9093DD018093DC01211531054105B1
:1022B000510509F45F9808958091D2019091D3015E
:1022C000A091D401B091D5012091D6013091D701D0
:1022D0004091D8015091D901280F391F4A1F5B1F27
:1022E0002093D2013093D3014093D4015093D50170
:1022F0008091D2019091D301A091D401B091D501E8
:102300008851964FA040B040BCF08BB180588BB93B
:102310008091D2019091D301A091D401B091D501C7
:102320008851964FA040B0408093D2019093D30142
:10233000A093D401B093D5010895823029F48091FF
:1023400081008E7F809381008091D001813031F4B3
:102350008091D101813011F4000008958091D00165
:10236000813021F08091D101813011F45F9857982C
:102370000895982F8091D001882331F48091D10164
:10238000882311F4579A5F988091D0018823D1F463
:102390009230C1F4109280001092810080918100EF
:1023A00088608093810080918100816080938100AA
:1023B000109285001092840081E08093890080E96A
:1023C000809388000895EF92FF920F931F93CF930D
:1023D000DF93EB01882321F0813009F05AC02DC032
:1023E0009A0140E050E0CA01B9010E94E21920912F
:1023F000260230912702220F331F40E050E00E9456
:10240000011A79018A01A8019701220F331F441F85
:10241000551FCE01A0E0B0E082179307A407B507CF
:1024200028F0F0923302E092320233C0D695C7957D
:10243000D0933302C09332022CC09A0140E050E0A6
:10244000CA01B9010E94E2192091280230912902A3
:10245000220F331F40E050E00E94011A79018A01E7
:10246000A8019701220F331F441F551FCE01A0E082
:10247000B0E082179307A407B50728F0F092350261
:10248000E092340206C0D695C795D0933502C0932A
:102490003402DF91CF911F910F91FF90EF9008953B
:1024A0000E94CD120E940D130E94E612089584B579
:1024B000826084BD85B5846085BD8EE487BD089546
:1024C000CF92DF92EF92FF920F931F93CF93DF9300
:1024D000EC0180917302882339F4D0937502C09384
:1024E00074020E94C91247C0C0907402D090750255
:1024F00000E010E0EE24FF2437C0A881B981FD017F
:1025000064817581F60140815181FA018481958150
:102510009B01281B390B37FF0FC0861B970B958338
:102520008483DB82CA82012B29F4D0937502C09385
:10253000740221C0F7010CC0F6018281938121153C
:10254000310549F4FD01158214829B838A83F601CB
:10255000D383C28310C0FD01358324830097B9F370
:102560000F5F1F4F76016C018091730290E0081796
:10257000190718F2ECCF809173028F5F809373027A
:10258000DF91CF911F910F91FF90EF90DF90CF904F
:10259000089581E08093E101089588E00E94440855
:1025A000882311F484E008958091E101882311F4D7
:1025B00083E008958091E001882311F082E008957E
:1025C0000E947F158130E1F380E008958091D10170
:1025D000813011F58091DA019091DB012091DC01CD
:1025E0003091DD01280F391F3093DB012093DA0190
:1025F0008091DA019091DB01885E93406CF08BB1A1
:1026000080588BB98091DA019091DB01885E93400C
:102610009093DB018093DA01089587E00E944408DB
:10262000813009F0AAC08091260290912702892B5F
:1026300009F180914A0290914B022091260230913B
:102640002702820F931F90934B0280934A0280913E
:102650004A0290914B02885E9340A4F080914A0216
:1026600090914B02885E934090934B0280934A0274
:1026700041E009C080911E0290911F0290932302B5
:102680008093220240E08091280290912902892BB8
:1026900009F180914C0290914D02209128023091D5
:1026A0002902820F931F90934D0280934C028091D8
:1026B0004C0290914D02885E9340A4F080914C02B0
:1026C00090914D02885E934090934D0280934C020E
:1026D00061E009C08091200290912102909325022F
:1026E0008093240260E0842F0E94BE1380914602F2
:1026F000909147022091220230912302280F391F26
:1027000030934702209346028091460290914702FF
:10271000885E934014F440E00BC080914602909193
:102720004702885E9340909347028093460241E0BF
:102730008091480290914902209124023091250213
:10274000280F391F30934902209348028091480294
:1027500090914902885E934014F460E00BC0809130
:10276000480290914902885E934090934902809379
:10277000480261E0842F0E94031408958823F1F039
:1027800020911E0230911F0280912202909123021B
:10279000281B390B1216130634F4809122029091F3
:1027A0002302019607C0232B49F0809122029091C9
:1027B000230201979093230280932202662311F152
:1027C00020912002309121028091240290912502D3
:1027D000281B390B1216130654F480912402909191
:1027E0002502019690932502809324020895232BBD
:1027F00049F080912402909125020197909325023F
:102800008093240208950F931F93182F062F809111
:102810005202882309F0E7C080913A02882309F028
:102820005AC08091220290912302892BE9F4809171
:10283000E201837E8093E2011092430280914E0276
:10284000882309F45DC060913C0280E00E945A1523
:10285000E0915002F0915102309709F451C081E0AB
:10286000808310924E024CC080911C02813041F452
:1028700080912E0290912F02019711F411E002C075
:102880001123F1F1E0914102F0E0E059FE4F909107
:10289000E201937E8081892B8093E20180913F0247
:1028A000882321F4809141028F5F03C0809141020F
:1028B0008150809341028091410283708093410254
:1028C00081E08093430280911C028130C9F480E052
:1028D0000E94061515C09091E201937E9093E2014B
:1028E000E0914102F0E0E059FE4F8081892B809316
:1028F000E20182E0809343021092230210922202AE
:1029000080913B02882309F059C080912402909164
:102910002502892BE9F48091E2018F718093E20115
:102920001092440280914F02882309F45CC06091A8
:102930003D0281E00E945A15E0915002F09151024F
:10294000309709F450C081E0818310924F024BC050
:1029500080911D02813041F48091300290913102CA
:10296000019711F401E002C00023E9F1E091420275
:10297000F0E0EC58FE4F9091E2019F718081892B2D
:102980008093E20180914002882321F480914202E9
:102990008F5F03C0809142028150809342028091F8
:1029A000420283708093420281E0809344028091CE
:1029B0001D028130C1F40E94061515C09091E201FC
:1029C0009F719093E201E0914202F0E0EC58FE4FDB
:1029D0008081892B8093E20182E0809344021092EF
:1029E00025021092240280914502882331F482EE60
:1029F00091E0612F402F0E94ED1588B18370909176
:102A0000E201892B88B91F910F910895882321F045
:102A1000813009F04EC027C080912E0290912F0284
:102A2000892B49F080912E0290912F02019790936B
:102A30002F0280932E0280914E028823D1F520919F
:102A40002E0230912F02809132029091330228178A
:102A5000390779F580E060E070E00E94480781E086
:102A600080934E0208958091300290913102892B1B
:102A700049F0809130029091310201979093310298
:102A80008093300280914F02882399F42091300284
:102A90003091310280913402909135022817390724
:102AA00041F481E060E070E00E94480781E080939B
:102AB0004F0208950F931F93182F062F662349F492
:102AC00060E070E00E944807812F60E070E00E94A3
:102AD000340F81E080935202113051F0113018F020
:102AE000123041F403C000933A0204C000933A024A
:102AF00000933B02109252021F910F910895FF9292
:102B00000F931F93CF93DF9380917302882309F46F
:102B100059C00091740210917502F801C081D181F1
:102B20008C819D8101979D838C83181619060CF466
:102B300049C0898180FF05C08E81882311F481E01E
:102B40008E83898181FF03C0EF81F885099580918B
:102B500073028230A8F0F80182819381909375020C
:102B60008093740213821282E0910000F0910100C0
:102B700084819581181619063CF0FF24F39405C052
:102B80001092750210927402FF248091730281509A
:102B90008093730280917302882311F40E94EA15D6
:102BA000898182FF08C08A819B819D838C83C801B3
:102BB0000E94601208C0C8010E94BD1A89818F7EE0
:102BC000898301C0FF248F2DDF91CF911F910F9139
:102BD000FF9008951092E1010895FC018091430255
:102BE000823069F48091E60191E089278093E601C3
:102BF000882309F03EC08081837E80833AC0809123
:102C0000220290912302C397A4F56623D1F020916C
:102C100022023091230280E690E0BC01269FC00191
:102C2000279F900D369F900D1124880F892F881FA4
:102C3000990B909337028093360281E08093E401F0
:102C400018C08091E4018823A1F080913602909110
:102C500037020197909337028093360280913602B3
:102C600090913702892B29F48081837E8083109292
:102C7000E40180914402823069F48091E50191E0A1
:102C800089278093E501882309F03EC080818F71F8
:102C9000808308958091240290912502C397A4F522
:102CA0004423D1F0209124023091250280E690E067
:102CB000AC01249FC001259F900D349F900D1124DD
:102CC000880F892F881F990B9093390280933802BF
:102CD00081E08093E30108958091E3018823A1F0CE
:102CE0008091380290913902019790933902809334
:102CF00038028091380290913902892B29F4808121
:102D00008F7180831092E30108950CD0BAC0B2D0C5
:102D100040F0A9D030F021F45F3F19F09BC0511171
:102D2000E4C09EC0BFD098F39923C9F35523B1F3F3
:102D3000951B550BBB27AA2762177307840738F02A
:102D40009F5F5F4F220F331F441FAA1FA9F333D089
:102D50000E2E3AF0E0E830D091505040E695001C3D
:102D6000CAF729D0FE2F27D0660F771F881FBB1FF9
:102D7000261737074807AB07B0E809F0BB0B802DD3
:102D8000BF01FF2793585F4F2AF09E3F510568F01F
:102D900061C0ABC05F3FECF3983EDCF3869577955E
:102DA0006795B795F7959F5FC9F7880F911D969521
:102DB000879597F90895E1E0660F771F881FBB1F7D
:102DC000621773078407BA0720F0621B730B840B2A
:102DD000BA0BEE1F88F7E0950895E89409C097FBB9
:102DE0003EF490958095709561957F4F8F4F9F4FE2
:102DF0009923A9F0F92F96E9BB279395F695879526
:102E000077956795B795F111F8CFFAF4BB0F11F4E8
:102E100060FF1BC06F5F7F4F8F4F9F4F16C088238F
:102E200011F096E911C0772321F09EE8872F762FC5
:102E300005C0662371F096E8862F70E060E02AF006
:102E40009A95660F771F881FDAF7880F96958795F2
:102E500097F9089597F99F6780E870E060E008951A
:102E60009FEF80EC089500240A94161617061806A2
:102E70000906089500240A9412161306140605067E
:102E80000895092E0394000C11F4882352F0BB0F0F
:102E900040F4BF2B11F460FF04C06F5F7F4F8F4F72
:102EA0009F4F089557FD9058440F551F59F05F3FAD
:102EB00071F04795880F97FB991F61F09F3F79F05C
:102EC00087950895121613061406551FF2CF4695DE
:102ED000F1DF08C0161617061806991FF1CF869560
:102EE0007105610508940895E894BB276627772744
:102EF000CB0197F90895DEDFA8F19E57A8F198510C
:102F000060F039F1983070F5092E9927660F771F18
:102F1000881F991F0A94D1F71CC0BB27993F4CF416
:102F2000B111B1E0B62B672F782F8827985FB1F7E2
:102F300008C0869577956795B79508F4B160939525
:102F4000C1F7BB0F30F411F460FF03C06F5F7F4F18
:102F50008F4F3EF490958095709561957F4F8F4F80
:102F60009F4F08956894C1CFBFCF0BD08ACF7BDF2E
:102F700028F080DF18F0952309F06CCF71CF112471
:102F8000B4CF90DFA0F3959FD1F3950F50E0551F7C
:102F9000629FF001729FBB27F00DB11D639FAA27AE
:102FA000F00DB11DAA1F649F6627B00DA11D661FFD
:102FB000829F2227B00DA11D621F739FB00DA11D1E
:102FC000621F839FA00D611D221F749F3327A00DD8
:102FD000611D231F849F600D211D822F762F6A2F74
:102FE00011249F5750408AF0E1F088234AF0EE0FF9
:102FF000FF1FBB1F661F771F881F91505040A9F706
:103000009E3F510570F026CF70CF5F3FECF3983EA6
:10301000DCF3869577956795B795F795E7959F5F6C
:10302000C1F7FE2B880F911D9695879597F9089506
:10303000FA01EE0FFF1F30962105310599F1611558
:10304000710561F48038BFE39B0749F168949038BB
:10305000810561F08038BFEF9B0741F0992342F56D
:10306000FF3FE1053105210511F1E8940894E7954A
:10307000D901AA2329F4AB2FBE2FF85FD0F310C0DB
:10308000FF5F70F4A695E0F7F73950F019F0FF3ABA
:1030900038F49F779F930CD00F9007FC90580895B9
:1030A0003EF0DECE60E070E080E89FE308954FE7F9
:1030B0009F775F934F933F932F939ED02F913F9194
:1030C0004F915F9152DF05C019F40EF0C3CE0CCFC3
:1030D000C7CEF0DEC8F39638C0F707F80F92E89431
:1030E0002BE33AEA48EB5FE74EDF0F920F920F9225
:1030F0004DB75EB70F92C0D0E8ECF0E016D04F911C
:103100005F91EF91FF91E595EE1FFF1F49F0FE578C
:10311000E0684427EE0F441FFA95E1F74195550BFF
:1031200032D00F9007FE26C00895DF93CF931F93F0
:103130000F93FF92EF92DF927B018C01689405C0A0
:10314000DA2EEF011EDFFE01E894A591259135915D
:1031500045915591AEF3EF01D4D0FE019701A8013E
:10316000DA9479F7DF90EF90FF900F911F91CF9154
:10317000DF9108959B01AC0160E070E080E89FE37F
:10318000C4CD68CE11C196DEE8F39923D9F3940F2C
:10319000511DBBF39150504094F059F0882332F008
:1031A000660F771F881F91505040C1F79E3F510511
:1031B00044F7880F911D9695879597F908955F3F7D
:1031C000ACF0983E9CF0BB27869577956795B795B0
:1031D00008F4B1609395C1F7BB0F58F711F460FF85
:1031E000E8CF6F5F7F4F8F4F9F4FE3CF7ECE0EF0C4
:1031F000DBC036CE68942ECE5DDEC8F39923D1F3C2
:10320000C6F3DF93CF931F930F93FF92C92FDD2750
:1032100088232AF02197660F771F881FDAF720E0AE
:1032200030E040E85FEB9FE3883920F0803E30F0EB
:1032300021968F7755D0E0EFF0E003C051D0EDE15B
:10324000F1E073DF8B01BE01EC01FB2E6F577109BA
:103250007595771F880B990BC2DD28E132E741E3B2
:103260005FE38FDEAF2D9801AE01FF900F911F91AC
:10327000CF91DF9146D005CEFA01DC01AA0FBB1F2A
:103280009B01AC01BF5728F42227332744275078ED
:103290001FC0B75188F4AB2F00244695379527956A
:1032A000011CA395D2F3002069F0220F331F441FA5
:1032B000B395DAF30DD013C061307105A0E88A0729
:1032C000B94630F49B01AC016627772788279078B0
:1032D000309621F0208331834283538308955058E0
:1032E000BB27AA270ED0CDCDBEDD30F0C3DD20F048
:1032F00031F49F3F11F41EF4B3CD0EF4E095E7FBDB
:10330000A9CDE92FCFDD80F3BA17620773078407D1
:10331000950718F071F49EF5E7CD0EF4E0950B2EAD
:10332000BA2FA02D0B01B90190010C01CA01A00117
:103330001124FF27591B99F0593F50F4503E68F172
:103340001A16F040A22F232F342F4427585FF3CFB3
:10335000469537952795A795F0405395C9F77EF484
:103360001F16BA0B620B730B840BBAF09150A1F0CD
:10337000FF0FBB1F661F771F881FC2F70EC0BA0F53
:10338000621F731F841F48F4879577956795B795DB
:10339000F7959E3F08F0B3CF9395880F08F09927D3
:1033A000EE0F9795879508959F3F31F0915020F447
:1033B000879577956795B795880F911D9695879511
:1033C00097F90895629FD001739FF001829FE00DED
:1033D000F11D649FE00DF11D929FF00D839FF00D94
:1033E000749FF00D659FF00D9927729FB00DE11D40
:1033F000F91F639FB00DE11DF91FBD01CF0111241D
:103400000895A1E21A2EAA1BBB1BFD010DC0AA1F25
:10341000BB1FEE1FFF1FA217B307E407F50720F03D
:10342000A21BB30BE40BF50B661F771F881F991FB8
:103430001A9469F760957095809590959B01AC0101
:10344000BD01CF010895CF93DF938230910510F431
:1034500082E090E0E0917802F091790240E050E063
:1034600020E030E026C06081718168177907E0F0C4
:103470006817790781F4828193812115310531F034
:10348000D90113969C938E9312972BC09093790237
:103490008093780226C04115510519F0641775070D
:1034A00018F4AB01E901DF019F0172816381E72F0D
:1034B000F62F3097C1F64115510501F1481B590B04
:1034C0004430510580F412968D919C91139720976A
:1034D00019F09B838A8304C09093790280937802C9
:1034E000FD01329646C0FD01E40FF51F81939193D3
:1034F0004250504011965C934E933BC0209176020F
:10350000309177022115310541F420917A013091F3
:103510007B01309377022093760220917C013091D9
:103520007D012115310541F42DB73EB74091780159
:1035300050917901241B350BE0917602F0917702CE
:10354000E217F307A0F42E1B3F0B2817390778F07A
:10355000AC014E5F5F4F2417350748F04E0F5F1FD9
:1035600050937702409376028193919302C0E0E0FA
:10357000F0E0CF01DF91CF910895CF93DF930097D3
:1035800009F491C0FC013297138212826091780293
:10359000709179026115710581F420813181280FC4
:1035A000391F80917602909177028217930799F5DF
:1035B000F0937702E093760276C0DB0180E090E042
:1035C00002C0CD01D901AE17BF0748F412962D9164
:1035D0003C91139721153105A1F7CD0121C0B3838B
:1035E000A283EF01499159919E01240F351FA21723
:1035F000B30779F42D913C911197240F351F2E5F5D
:103600003F4F3183208312962D913C911397338342
:103610002283009729F4F0937902E093780243C063
:10362000DC011396FC93EE9312974D915D91A40FDC
:10363000B51FEA17FB0769F420813181240F351F7C
:103640002E5F3F4FEC0139832883228133813B83F6
:103650002A83E0E0F0E002C0FB01BC01DB0112962E
:103660008D919C9113970097B9F79B012E5F3F4F67
:103670008D919C911197820F931F409176025091EA
:1036800077024817590779F4309729F41092790294
:103690001092780202C0138212822250304030937E
:1036A000770220937602DF91CF910895EF92FF92F7
:1036B0000F931F93CF93DF938C01E0917C02F091E5
:1036C0007D02838181FF1FC0C0E0D0E00AC0DB0122
:1036D0001896ED91FC9119970995009711F0CFEF8D
:1036E000DFEFF80181918F0160917C0270917D0282
:1036F000882369F7DB011896ED91FC9119978AE010
:103700000995009711F0CFEFDFEFCE01CDB7DEB70F
:10371000E6E00C94971B2A88398848885F846E8479
:103720007D848C849B84AA84B984C884DF80EE80E5
:10373000FD800C811B81AA81B981CE0FD11D0FB6EE
:10374000F894DEBF0FBECDBFED010895F894FFCF12
:1037500048656C6C6F2C20446F6C6C792100000004
:1037600000020000000097100000000000000002AE
:10377000000000009E100000000000000002000099
:103780000000970C000000001C0500006905000007
:10379000BC0500001306000070060000D206000001
:1037A0003A070000A80700001C0800009808000065
:1037B0001A090000A50900000002040507090B0012
:0E37C000180C0410C080206020008002000061
:00000001FF
