:100000000C94B0020C94CD020C94CD020C94CD0251
:100010000C94FD0B0C94260C0C944F0C0C94780C47
:100020000C94CD020C94DE0A0C94070B0C94300B4C
:100030000C94AB0B0C94590B0C94820B0C94D40BBA
:100040000C94630A0C948C0A0C94B50A0C94CD029F
:100050000C9401050C94CD020C94CD020C94CD02AD
:100060000C94CD020C94CD020C94CD020C94CD02D4
:100070000C94CD020C94CD020C94CD02D309D60978
:10008000D909DC09E509DF09E209E809EB09EE090C
:10009000F109F409F709FA09FD09000A030A060A39
:1000A000090A1A0A1D0A200A230A2C0A260A290A02
:1000B0002F0A320A350A380A3B0A3E0A410A440A24
:1000C000470A4A0A4D0A500A07634236B79BD8A727
:1000D0001A39685618AEBAAB558C1D3CB7CC57636D
:1000E000BD6DEDFD753EF6177231BF000000803F1B
:1000F00008000000BE922449123EABAAAA2ABECD37
:10010000CCCC4C3E00000080BEABAAAAAA3E0000A8
:100110000000BF000000803F0000000000084178A0
:10012000D3BB4387D1133D190E3CC3BD4282AD2BD7
:100130003E68EC8276BED98FE1A93E4C80EFFFBECF
:1001400001C4FF7F3F000000000016050100000011
:1001500000000000FA000000E000E00028FE28FE99
:10016000282454FE5448C4C81026466C92AA44A0C1
:1001700000A0C000000038448200008244380028FB
:10018000107C102810107C1010000A0C00001010B9
:10019000101010000606000004081020407C8A920F
:1001A000A27C0042FE020042868A92628482A2D22F
:1001B0008C182848FE08E4A2A2A29C3C5292920C01
:1001C000808E90A0C06C9292926C60929294780013
:1001D0006C6C0000006A6C00001028448200282823
:1001E000282828008244281040808A90604C929EE3
:1001F000827C7E8888887EFE9292926C7C8282824B
:1002000044FE82824438FE92929282FE90909080C8
:100210007C8292925EFE101010FE0082FE8200042C
:100220000282FC80FE10284482FE02020202FE408E
:100230003040FEFE201008FE7C8282827CFE909080
:1002400090607C828A847AFE909894626292929204
:100250008C8080FE8080FC020202FCF8040204F81C
:10026000FC021C02FCC6281028C6E0100E10E08616
:100270008A92A2C200FE82820040201008040082FE
:1002800082FE0020408040200202020202008040E4
:100290002000042A2A2A1EFE1222221C1C222222AC
:1002A000041C222212FE1C2A2A2A18107E9080404A
:1002B000304A4A4A7CFE1020201E0022BE02000462
:1002C0000222BC00FE081422000082FE02003E2032
:1002D00018201E3E1020201E1C2222221C3E2828F0
:1002E0002810102828183E3E10202010122A2A2AF2
:1002F0000420FC2202043C0202043E3804020438BA
:100300003C020C023C2214081422300A0A0A3C2245
:10031000262A322200106C82000000FE00000082BB
:100320006C1000081010081000000000007F818190
:10033000817F7F8383837F7F8787877F7F8F8F8F77
:100340007F7F9F9F9F7F7FBFBFBF7F7FFFFFFF7F1D
:100350002040FF4020621517156500FBFB000000E0
:1003600000000000C0FF0300E0FF0700F0FF0F00E7
:10037000F8FF1F0078001E0078001E0078001E00A5
:1003800078001E0078001E0078001E0078001E0015
:1003900078001E0078001E00000000000000000031
:1003A00080FF0300E0FF0700F0FF0F00F8FF1F00D1
:1003B000F83C1F00783C1E00783C1E00783C1E0074
:1003C000783C1E00783C1E00783C1E00783C1E00E5
:1003D000783C1E00783C1E00783C1E0000000000A7
:1003E00000000000E0FF0300F0FF0700F8FF0F002F
:1003F000F8FF1F00783C1E00783C1E00783C1E0071
:10040000783C1E00783C1E00783C1E00783C1E00A4
:10041000783C1E00783C1E00783C1E000000000066
:1004200000000000F8FF0300F8FF0F00F8FF1F00B6
:10043000F8FF1F0000001E0000001E0000801F00CB
:1004400000F01F0000FF0F00E0FF0700F0FF0000BA
:10045000F80F0000F80000007800000078000000AD
:10046000F8FF1F00F8FF1F00F0FF1F00E0FF1F0054
:100470000000000000000000F8FF1F00F8FF1F0050
:10048000F8FF1F00F8FF1F0078001E00783C1E00D8
:10049000783C1E00783C1E00783C1E00783C1E0014
:1004A000783C1E00F87E1F00F8FF1F00F0FF0F00D1
:1004B000E0E703000000000000003800EEFF6C00E1
:1004C0002A8045003A0047FC03FF6CFC83FF39009B
:1004D000DEFF0B7CD0810BFCD0810BC0D0810BFCEC
:1004E000D0810B7CDEFF0B0082FF397002FF6CF8BD
:1004F0003A0047DC2A8045CCEEFF6CCC0000380087
:100500000000000C00001E0C00001E0000001E0079
:1005100000001E0000001E00F8FF1F00F8FF1F0073
:10052000F8FF1F00F8FF1F0000001E0000001E0063
:1005300000001E0000001E0000005E0000004000E1
:1005400000007C00000040000000400000007C0033
:1005500000003000000010000000300000007C00AF
:1005600011241FBECFEFD8E0DEBFCDBF11E0A0E069
:10057000B1E0E6EAFBE302C005900D92A23BB107B1
:10058000D9F712E0A2EBB1E001C01D92AA39B10780
:10059000E1F70E9422050C94D11D0C940000DF931A
:1005A000CF9300D0CDB7DEB719821A820E944805DA
:1005B0000E94E90781E890E00E94DE040E942B057A
:1005C00000D08DB79EB7019620E031E0FC01318369
:1005D00020830E94FE1A0F900F9080911B028823A7
:1005E00039F089818A8380911C02898310921B02D1
:1005F0008981882F90E082309105B1F08330910598
:100600003CF4009709F479C081309105F9F087C076
:100610008430910509F443C0843091054CF1853054
:10062000910509F453C07BC00E94A2030E942B05D0
:1006300000D08DB79EB7019629E131E0FC013183EE
:1006400020830E94FE1A0F900F907BC00E94AF0380
:100650000E942B0500D08DB79EB7019621E231E0B4
:10066000FC01318320830E94FE1A0F900F9069C015
:100670000E940D040E942B0500D08DB79EB70196F5
:100680002AE231E0FC01318320830E94FE1A0F90A0
:100690000F908A810E94B1048A81898352C00E948E
:1006A000BC030E942B0500D08DB79EB7019625E3B1
:1006B00031E0FC01318320830E94FE1A0F900F90DD
:1006C0008A810E94B1048A8189833BC00E945F04B1
:1006D0000E942B0500D08DB79EB701962FE331E025
:1006E000FC01318320830E94FE1A0F900F908A81B3
:1006F0000E94B1048A81898324C00E94CC040E9494
:100700002B0500D08DB79EB701962BE431E0FC019C
:10071000318320830E94FE1A0F900F9012C00E9416
:10072000CC040E942B0500D08DB79EB7019620E522
:1007300031E0FC01318320830E94FE1A0F900F905C
:1007400000004BCFDF93CF93CDB7DEB782E060E000
:1007500046E950E00E944008CF91DF910895DF9371
:10076000CF93CDB7DEB782E061E046E950E00E946A
:100770004008CF91DF9108958F92AF92BF92CF92B0
:10078000EF92FF920F931F93DF93CF93CDB7DEB716
:100790008DB79EB709970FB6F8949EBF0FBE8DBF59
:1007A0008DB79EB7019626E930E0FC0131832083A6
:1007B00028EC30E0FC013383228320E931E0FC01A6
:1007C00035832483FC011682FC011086178280E0A9
:1007D00062E041E026E930E008EC10E00F2EF0E99D
:1007E000EF2EF1E0FF2EF02DCC24AA24BB24882488
:1007F0000E9442078DB79EB709960FB6F8949EBF28
:100800000FBE8DBFCF91DF911F910F91FF90EF90A1
:10081000CF90BF90AF908F9008958F92AF92BF927C
:10082000CF92EF92FF920F931F93DF93CF93CDB7A9
:10083000DEB78DB79EB709970FB6F8949EBF0FBE6F
:100840008DBF8DB79EB7019626E930E0FC0131835C
:10085000208328EC30E0FC013383228320E931E05F
:10086000FC0135832483FC011682FC01108617826B
:1008700080E062E040E026E930E008EC10E00F2E76
:10088000F0E9EF2EF1E0FF2EF02DCC24AA24BB24BA
:10089000882483940E9442078DB79EB709960FB6AD
:1008A000F8949EBF0FBE8DBFCF91DF911F910F9126
:1008B000FF90EF90CF90BF90AF908F9008958F9260
:1008C000AF92BF92CF92EF92FF920F931F93DF935D
:1008D000CF93CDB7DEB78DB79EB709970FB6F89413
:1008E0009EBF0FBE8DBF8DB79EB701962CE231E043
:1008F000FC013183208328EC30E0FC013383228328
:1009000020E931E0FC0135832483FC011682FC01DF
:100910001086178280E062E040E02CE231E008ECD3
:1009200010E00F2EF0E9EF2EF1E0FF2EF02DCC2499
:10093000AA24BB24882483940E9442078DB79EB7C3
:1009400009960FB6F8949EBF0FBE8DBFCF91DF9171
:100950001F910F91FF90EF90CF90BF90AF908F902D
:100960000895DF93CF930F92CDB7DEB78983898146
:10097000823019F40E94A2030BC08981813019F4DE
:100980000E94AF0305C08981882311F40E94CC0422
:100990000F90CF91DF910895DF93CF93CDB7DEB75E
:1009A00082E060E00E945109CF91DF910895DF93CA
:1009B000CF93CDB7DEB7CF91DF910895DF93CF937B
:1009C00000D0CDB7DEB79A83898385EC90E029818A
:1009D0003A81232F3327FC01208384EC90E0298186
:1009E000FC01208381EC90E028E9FC01208382EC6B
:1009F00090E026E0FC0120830F900F90CF91DF91D3
:100A000008951F920F920FB60F9211248F939F9308
:100A1000EF93FF93DF93CF93CDB7DEB786EC90E0F3
:100A2000FC01808180931C0281E080931B02CF91A6
:100A3000DF91FF91EF919F918F910F900FBE0F90DB
:100A40001F9018950E94610A0E94530A0E94CF02CB
:100A500080E090E008950F931F9380E460E00E948F
:100A60000A0600E0802F60E00E94F10510E080E0BF
:100A700061E00E940A061F5F1038C9F70F5F04305B
:100A800089F783E060E00E94EA051F910F910895C5
:100A90000F931F9382E00E94C409882311F482E01F
:100AA00006C081E00E94C409882319F481E090E027
:100AB0006DC00E94B50C85E061E00E940C0A8EEAD0
:100AC00060E00E940A0682EA60E00E940A0680EA6C
:100AD00060E00E940A0600E513ECC8010197F1F7F7
:100AE00080EC60E00E940A068FE260E00E940A0645
:100AF00081E860E00E940A0686E160E00E940A0642
:100B000082E260E00E940A06C8010197F1F78FEACD
:100B100060E00E940A0686EA60E00E940A0685EA12
:100B200060E00E940A0680E090E028E833E1F901E5
:100B30003197F1F7019643E0883E9407C1F783EBC4
:100B400060E00E940A0680E460E00E940A0683E0FA
:100B500060E00E94F10583E060E00E94EA051092E7
:100B6000320210923402109233028EE591E090939B
:100B700097028093960288E10E94C9050E942B0586
:100B800084EA60E00E940A0685E091E01F910F91DF
:100B900008951F93182F85E00E94C4098130C1F485
:100BA00087E00E94250682E06AE00E94760682E0E5
:100BB00061EB0E947606612F113208F060E282E05C
:100BC0000E94760689EE8A95F1F787E00E94250655
:100BD0001F91089583706F77609330028093310284
:100BE00008950F931F93062F162F1F778370806B26
:100BF00060E00E940A0612951F70812F806160E0FC
:100C00000E940A06802F8F7060E00E940A061F91E2
:100C10000F9108950F931F93082F162F85E00E94C0
:100C2000C409813079F4112319F0113021F402C084
:100C30002B9801C02B9A86E08A95F1F780E0602F0F
:100C40000E9476061F910F9108951F93182F82E03E
:100C50000E94C409813009F047C0912F977080919C
:100C60003502981709F440C09093350285B1887F0A
:100C7000892B85B9933011F1943028F4913051F0DB
:100C8000923090F40CC0953019F19530E0F0963028
:100C900021F50FC0E091F601F091F70122C0E0913B
:100CA000F401F091F5011DC0E091F801F091F90116
:100CB00018C0E0910002F091010213C0E091FA0126
:100CC000F091FB010EC0E091FC01F091FD0109C023
:100CD000E091FE01F091FF0104C0E0910202F09169
:100CE0000302309709F009951F9108951F93162F5D
:100CF0000E94250682E00E94C409813021F41EBDB5
:100D00000DB407FEFDCF1F9108952F923F924F9291
:100D10005F926F927F928F929F92AF92BF92CF928B
:100D2000DF92EF92FF920F931F93DF93CF93CDB794
:100D3000DEB7582E962E442E39013C2CC98CDA8C05
:100D40002B8C81E0681739F1681728F092E0691759
:100D500009F085C049C080E061E00E948E0880E013
:100D6000B7010E94570880E0642DA3019801032D6C
:100D7000EE24E394EDE6CE2EE2E0DE2E0E94C508DE
:100D8000552009F06CC000D00F92EDB7FEB711826C
:100D9000B382A28223C081E061E00E948E0881E0DC
:100DA000B6010E94570881E0682D4D895E892F8920
:100DB000388D022DEE24E3947DE6C72E72E0D72E07
:100DC0000E94C508552009F04AC000D00F92EDB727
:100DD000FEB791828C8D9D8D938382830E947609CC
:100DE0000F900F900F903BC082E061E00E948E0850
:100DF00080E0B7010E94570881E0B6010E945708C1
:100E000080E0642DA3019801032DEE24E3949DE678
:100E1000C92E92E0D92E0E94C50881E0682D4D8927
:100E20005E892F89388D022D0E94C5085520B9F49E
:100E300000D000D00F92ADB7BEB71196EDB7FEB798
:100E40009182FD01B282A1828C8D9D8D94838383DA
:100E50000E9476090F900F900F900F900F90CF91F6
:100E6000DF911F910F91FF90EF90DF90CF90BF9097
:100E7000AF909F908F907F906F905F904F903F903A
:100E80002F9008956F927F928F929F92AF92BF9210
:100E9000CF92DF92EF92FF920F931F93DF93CF9346
:100EA000CDB7DEB7942E7C2DD50149895A89AB8800
:100EB000BC88CD88DE889F89813009F457C0813095
:100EC000B8F1823009F076C0613091F0613020F0E5
:100ED000623009F06FC015C080E060E00E948E08AB
:100EE00080E0B7010E94570880E0692DA8011DC06D
:100EF00081E060E00E948E0881E0B6010E94570800
:100F000011C082E060E00E948E0880E0B7010E947C
:100F1000570881E0B6010E94570880E0692DA801BA
:100F20000E94400881E0682DA5010E94400842C04F
:100F3000EDB7FEB739970FB6F894FEBF0FBEEDBF01
:100F40006DB67EB60894611C711C52834183F30117
:100F5000B382A282D582C4829683888D998D908730
:100F6000878380E0492DC72E5D011AC0EDB7FEB71B
:100F700039970FB6F894FEBF0FBEEDBFADB7BEB741
:100F8000119652834183FD01B382A282D582C4822D
:100F900096831086178281E0492DC72EAA24BB2490
:100FA0000E9485068DB79EB709960FB6F8949EBF2E
:100FB0000FBE8DBFCF91DF911F910F91FF90EF90EA
:100FC000DF90CF90BF90AF909F908F907F906F9069
:100FD00008950E944A0F81E080936C02E6E3F2E0FC
:100FE00011921192118210823296118210823296E1
:100FF00011821082329611821082329611821082F2
:1010000032961182108232961182108232961182AB
:10101000108232961182108232961182108232969C
:10102000118210823296118210823696119211929C
:101030001192108232961192119211921192119284
:101040001192119211821082329611821082329680
:10105000118210823296118210827697118210824C
:1010600032961182108210926B0210926A021092D4
:101070006C0287E061E00E940C0A87E091E008952D
:10108000EF92FF920F931F93182F062F7A0160E0C3
:101090000E948E08812F602F0E947908812FB7014E
:1010A0000E94A3081F910F91FF90EF900895482F81
:1010B00081E080936C02CB0123E0693E720710F05F
:1010C00088EE93E0413071F0413018F0423071F415
:1010D00005C0909341028093400208C09093410262
:1010E00080934002909343028093420210926C02DC
:1010F0000895982F81E080936C02913051F09130E7
:1011000018F0923041F403C06093590204C0609318
:10111000590260935A0210926C020895982F81E050
:1011200080936C02913051F0913018F0923041F47C
:1011300003C06093360204C06093360260933702A6
:1011400010926C020895482F81E080936C02CB01CD
:1011500021E06139720710F080E991E0413071F0CF
:10116000413018F0423071F405C0909339028093F9
:10117000380208C0909339028093380290933B0262
:1011800080933A0210926C0208958F929F92AF92D0
:10119000BF92CF92DF92EF92FF920F931F93CF9364
:1011A000DF93182FF62E5A014901E60161E00E94F3
:1011B0008E08812FB501A4010E94840F812F6F2D0D
:1011C0000E947908812F602F0E946F0F812FB50137
:1011D0000E94540FC114D10499F0113049F011301C
:1011E00018F0123069F406C018821092680208C024
:1011F000198204C018821982109268021092690242
:10120000D0936B02C0936A02EE20B9F582EB91E0B5
:1012100090936B0280936A02812FB4010E94A3080D
:10122000812F0E94350F113071F0113018F01230FB
:1012300059F512C01092B201109268028091B20169
:101240008823E1F321C01092B301109269028091CA
:10125000B3018823E1F318C01092B2011092B301D8
:1012600010926802109269028091B2018823E1F322
:101270008091B3018823C1F307C0812FB4010E947C
:10128000A308812F0E94350FDF91CF911F910F91FD
:10129000FF90EF90DF90CF90BF90AF909F908F9096
:1012A00008950F931F93182F062F662349F460E0CB
:1012B00070E00E94A308812F60E070E00E94540F4C
:1012C00081E080936C02113051F0113018F012302F
:1012D00041F403C00093540204C0009354020093ED
:1012E000550210926C021F910F910895CF92DF92D8
:1012F000EF92FF920F931F93DF93CF93CDB7DEB79B
:101300008B85813061F0813018F08230A1F511C0F9
:10131000EC85FD8580916D028823E1F306C0EC85A4
:10132000FD8580916E028823E1F3309721F10995C4
:1013300022C0CC84DD84EE84FF8400E010E0002332
:1013400051F480916D02882331F0C114D10411F061
:10135000F601099501E0112351F480916E02882372
:1013600031F0E114F10411F0F701099511E00023C7
:1013700031F3112321F3CF91DF911F910F91FF9052
:10138000EF90DF90CF900895E82FF0E0E331F10582
:1013900040F4E25CFF4FEE0FFF1F0590F491E02D4B
:1013A000099480E0089580911D02089580911E02A5
:1013B000089580911F0208958091200208958091E0
:1013C00021020895809123020895809122020895B8
:1013D000809124020895809125020895809126022B
:1013E00008958091270208958091280208958091A0
:1013F0002902089580912A02089580912B02089570
:1014000080912C02089580912D02089580912E02E2
:10141000089580912F020895E82FF0E0E331F1055F
:1014200008F040C0EF5AFF4FEE0FFF1F0590F491F8
:10143000E02D099460931D02089560931E020895A3
:1014400060931F0208956093200208956093210223
:101450000895609323020895609322020895609393
:10146000240208956093250208956093260208954A
:1014700060932702089560932802089560932902DB
:10148000089560932A02089560932B020895609353
:101490002C02089560932D02089560932E02089502
:1014A00060932D0208950E94C10F0E94640D0E9456
:1014B000A10C0E9492100E94C90D0E94E40F789422
:1014C0000895000008951F920F920FB60F921124F5
:1014D0002F933F934F935F936F937F938F939F933C
:1014E000AF93BF93EF93FF93E091D401F091D501B7
:1014F000309709F00995FF91EF91BF91AF919F91BE
:101500008F917F916F915F914F913F912F910F90AC
:101510000FBE0F901F9018951F920F920FB60F924B
:1015200011242F933F934F935F936F937F938F93E8
:101530009F93AF93BF93EF93FF93E091D601F09108
:10154000D701309709F00995FF91EF91BF91AF91C5
:101550009F918F917F916F915F914F913F912F91CB
:101560000F900FBE0F901F9018951F920F920FB6FD
:101570000F9211242F933F934F935F936F937F9319
:101580008F939F93AF93BF93EF93FF93E091D80115
:10159000F091D901309709F00995FF91EF91BF9132
:1015A000AF919F918F917F916F915F914F913F91FB
:1015B0002F910F900FBE0F901F9018951F920F92B2
:1015C0000FB60F9211242F933F934F935F936F9316
:1015D0007F938F939F93AF93BF93EF93FF93E0918C
:1015E000C601F091C701309709F00995FF91EF917D
:1015F000BF91AF919F918F917F916F915F914F912B
:101600003F912F910F900FBE0F901F9018951F9232
:101610000F920FB60F9211242F933F934F935F9326
:101620006F937F938F939F93AF93BF93EF93FF93AA
:10163000E091C801F091C901309709F00995FF9137
:10164000EF91BF91AF919F918F917F916F915F913A
:101650004F913F912F910F900FBE0F901F901895B3
:101660001F920F920FB60F9211242F933F934F9317
:101670005F936F937F938F939F93AF93BF93EF93FA
:10168000FF93E091CA01F091CB01309709F00995E1
:10169000FF91EF91BF91AF919F918F917F916F914A
:1016A0005F914F913F912F910F900FBE0F901F9020
:1016B00018951F920F920FB60F9211242F933F93FC
:1016C0004F935F936F937F938F939F93AF93BF934A
:1016D000EF93FF93E091CE01F091CF01309709F0A5
:1016E0000995FF91EF91BF91AF919F918F917F915C
:1016F0006F915F914F913F912F910F900FBE0F907F
:101700001F9018951F920F920FB60F9211242F93CE
:101710003F934F935F936F937F938F939F93AF9379
:10172000BF93EF93FF93E091D001F091D1013097F7
:1017300009F00995FF91EF91BF91AF919F918F9122
:101740007F916F915F914F913F912F910F900FBEBD
:101750000F901F9018951F920F920FB60F921124A1
:101760002F933F934F935F936F937F938F939F93A9
:10177000AF93BF93EF93FF93E091CC01F091CD0134
:10178000309709F00995FF91EF91BF91AF919F912B
:101790008F917F916F915F914F913F912F910F901A
:1017A0000FBE0F901F9018951F920F920FB60F92B9
:1017B00011242F933F934F935F936F937F938F9356
:1017C0009F93AF93BF93EF93FF93E091D201F0917A
:1017D000D301309709F00995FF91EF91BF91AF9137
:1017E0009F918F917F916F915F914F913F912F9139
:1017F0000F900FBE0F901F9018951F920F920FB66B
:101800000F9211242F933F934F935F936F937F9386
:101810008F939F93AF93BF93EF93FF93E091BC019E
:10182000F091BD01309709F00995FF91EF91BF91BB
:10183000AF919F918F917F916F915F914F913F9168
:101840002F910F900FBE0F901F9018951F920F921F
:101850000FB60F9211242F933F934F935F936F9383
:101860007F938F939F93AF93BF93EF93FF93E091F9
:10187000BE01F091BF01309709F00995FF91EF91FA
:10188000BF91AF919F918F917F916F915F914F9198
:101890003F912F910F900FBE0F901F9018951F92A0
:1018A0000F920FB60F9211242F933F934F935F9394
:1018B0006F937F938F939F93AF93BF93EF93FF9318
:1018C000E091C001F091C101309709F00995FF91B5
:1018D000EF91BF91AF919F918F917F916F915F91A8
:1018E0004F913F912F910F900FBE0F901F90189521
:1018F0001F920F920FB60F9211242F933F934F9385
:101900005F936F937F938F939F93AF93BF93EF9367
:10191000FF93E091C201F091C301309709F009955E
:10192000FF91EF91BF91AF919F918F917F916F91B7
:101930005F914F913F912F910F900FBE0F901F908D
:10194000189580E10E94C409882361F4E4EBF1E07A
:101950001192119281E0E43FF807D1F780E161E054
:101960000E940C0A80E191E00895239A0895FF9265
:101970000F931F93CF93DF93F82E8AE0F816B1F000
:101980008F1548F0E8E0FE16B9F1EF1538F1F7E0F1
:10199000FF1651F43BC08DE0F81659F0EBE1FE164E
:1019A00089F0FCE0FF1641F001E041C010923002E6
:1019B00003C0109230023AC080913102815080936E
:1019C000310234C00E942B0514C080E061E00E9407
:1019D0000A06809130028F5F80933002809130023E
:1019E00087FFF3CF109230028091310281508093B3
:1019F000310200E011E01CC0809130028823B1F078
:101A00008091300286508093300210C081E00E94A5
:101A1000D50E64EF71E080E090E04DE750E024E601
:101A200030E00E94E20E81E00E943A0E00E010E0F9
:101A300080913102609130020E94F105002351F142
:101A400085E0F89EC0011124EC01C355DF4F8C01E5
:101A50000E541F4FFE01849161E00E940A062196F8
:101A6000C017D107B9F780E061E00E940A068091B3
:101A700030028A5F809330028091300290E08C3790
:101A800091053CF010923002809131028150809398
:101A9000310211E080913102837080933102113064
:101AA00059F480913202813039F4E0913302F0919F
:101AB0003402309709F0099580E090E0DF91CF91F2
:101AC0001F910F91FF90089580E00E94C409882320
:101AD00051F4F8940E94DC1081E00E94760D80E0C1
:101AE00061E00E940C0A80E091E00895813049F0A5
:101AF000F894813020F18230B1F0833009F045C094
:101B000017C02C9A80E8809361001092610080E0F9
:101B100090E00000019688329105D9F71092680094
:101B200010926B00089580E88093610083E004C008
:101B300080E88093610088E08093610028C080E0A5
:101B400090E0000001962DE680369207D1F72C98A0
:101B500080E090E0000001962DE680369207D1F7F4
:101B600010927A008FEF809364008091680081600A
:101B70008093680080916B00846080936B00789400
:101B800083B7816083BF88950895823008F0789488
:101B900008950F931F930E94081180E067EF70E192
:101BA0000E94020E81E06FEE70E10E94020E82E060
:101BB00067EE70E10E94020E86E06FEF70E10E9416
:101BC000020E0FED10E183E0B8010E94020E84E0E6
:101BD000B8010E94020E85E0B8010E94020E87E063
:101BE000B8010E94020E82E061E00E940C0A8FEFB1
:101BF0008093350287E00E94250682E091E01F91E4
:101C00000F910895E82FF0E0EE0FFF1FEC50FE4F0C
:101C10007183608308958AE00E94C409813041F491
:101C20000E946A11109205028AE060E00E940C0A8C
:101C3000089589E00E94C4098130D9F4809104029A
:101C4000882311F00E942F0F82E00E946A11809178
:101C5000120290911302009731F00E94651A1092BF
:101C60001302109212021092040289E060E00E94B6
:101C70000C0A0895813029F0823029F40E94190E4F
:101C800008950E940B0E08950F931F93CF93DF9337
:101C900080E291E00E94CB199C0190931302809303
:101CA0001202892B11F480E039C08901C0E0D0E034
:101CB000BE0180E090E00E94951620E030E040EA0E
:101CC00051E40E942D1627EF35E740E05FE30E94C4
:101CD0005D179B01AC0160E070E080E291E40E943E
:101CE000C0179B01AC01CA01B9012DEC3CEC42E8E4
:101CF00051E40E945D170E9423172AE030E040E083
:101D000050E00E948A19F801619371938193919335
:101D10008F012196C834D10559F681E0DF91CF912A
:101D20001F910F9108958AE00E94C409882371F4DD
:101D300010920F0210920E0281E00E94861181E043
:101D4000809305028AE061E00E940C0A8AE091E03B
:101D500008951F938BE00E94C409882311F090E03E
:101D600021C089E00E94C4098823D9F40E94440E4E
:101D7000182F8130B1F410920602109207021092CF
:101D80000802109209028DE06FE071E10E94C81014
:101D900082E00E9486111093040289E061E00E94B3
:101DA0000C0A91E089E01F910895813029F082307A
:101DB00031F090E089E008950E94930E08950E940A
:101DC000A90E08958F929F92AF92BF92CF92DF9209
:101DD000EF92FF920F931F93CF93DF934B015C0120
:101DE000EA01B9012115310539F19E01442737FD7A
:101DF0004095542F6536710510F064E670E080E080
:101E000090E00E948A1924E630E040E050E00E9411
:101E1000A91979018A01C501B4010E941211C701F3
:101E20000E94331060E070E080E090E00E941211A8
:101E3000CE018E199F0904C04115510519F0CA0140
:101E40000E943310DF91CF911F910F91FF90EF907F
:101E5000DF90CF90BF90AF909F908F900895EFE666
:101E6000F0E080818D7F80830895982F81E08093BA
:101E70006C02913051F0913018F0923041F403C06F
:101E80001092540204C01092540210925502109203
:101E90006C0208953A9A3B9A3C9A3D9A3E9A3F9A30
:101EA00088B1837088B90895982F81E080936C027F
:101EB000913071F0913018F0923071F405C0709348
:101EC00049026093480208C0709349026093480237
:101ED00070934B0260934A0210926C020895982FFF
:101EE00081E080936C02913051F0913018F0923083
:101EF00041F403C06093560204C06093560260939D
:101F0000570210926C0208950F931F93CF93DF93A3
:101F1000EB018A01813001F1813018F0823061F5E6
:101F20000DC08091400290914102892B11F080E018
:101F30001AC010924D0210924C021EC080914002B5
:101F400090914102892B21F080E00E94B01104C0E1
:101F500010924D0210924C028091420290914302E5
:101F6000892B31F081E0BE01A8010E94B01104C0AC
:101F700010924F0210924E02DF91CF911F910F915C
:101F8000089510921D0210921E02109222021092C9
:101F90001F0210922102109223021092240210922A
:101FA0002502109226021092270210922802109207
:101FB000290210922A0210922B0210922C021092E7
:101FC0002D0210922E02089582E00E94C4098823F7
:101FD00019F490E082E00895109284021092830236
:101FE0001092860210928502109288021092870247
:101FF00010928A021092890210928C0210928B0227
:1020000080E991E09093700280936F029093720246
:10201000809371029093740280937302909376027E
:1020200080937502909378028093770284E398E01E
:1020300090937A028093790290937C0280937B0242
:1020400090937E0280937D029093800280937F0222
:10205000909382028093810281E061E00E940C0AE9
:1020600091E081E00895DF93CF93CDB7DEB7299754
:102070000FB6F894DEBF0FBECDBF9C01CE01019616
:1020800061E040E00E945410982F882319F48F815A
:102090008823E9F3892F29960FB6F894DEBF0FBE87
:1020A000CDBFCF91DF910895EF92FF920F931F93D1
:1020B000CF93DF93EC01F62EE42E890188E00E9495
:1020C000C409813011F081E026C084E090E00E94D4
:1020D000CB19FC01009711F482E01DC0F982F0FCDD
:1020E0001E8281E0E81619F48981846089838981E0
:1020F000886089831B830A831D830C83D183C083FB
:102100001382128281E080931402CF010E942D126B
:102110001092140280E0DF91CF911F910F91FF90F8
:10212000EF90089588E00E94C4098823B9F41092C2
:102130008D0210928F0210928E0210921402109251
:10214000150280E16DE172E10E94B7100E94241235
:102150000E94B11088E061E00E940C0A88E091E0E2
:102160000895EEE6F0E080818260808308958032F9
:1021700018F020E030E00AC0E82FF0E0EE0FFF1F7B
:10218000EC54FE4F2081318171836083C901089531
:10219000E82F803268F48051833050F0F0E0EE0F89
:1021A000FF1FEC54FE4F208131817183608302C098
:1021B00020E030E0C9010895249A2C9A089583E51F
:1021C0008CBD81E08DBD8DE08A95F1F7089583E5A2
:1021D0008CBD1DBC84EF91E00197F1F708958FE766
:1021E0008CBD1DBC84EF91E00197F1F7089583E564
:1021F0008CBD81E08DBD8DE08A95F1F7089583E572
:102200008CBD81E08DBD84EF91E00197F1F70895D9
:10221000259A2698279A209A219A229A08950E9410
:10222000291108959B01AC0180910502882381F05A
:10223000DA01C901880F991FAA1FBB1F90931102D1
:1022400080931002211531054105510509F45F986D
:1022500008958091060290910702A0910802B09122
:10226000090220910A0230910B0240910C02509118
:102270000D02280F391F4A1F5B1F2093060230935F
:102280000702409308025093090280910602909140
:102290000702A0910802B09109028851964FA04010
:1022A000B040BCF08BB180588BB980910602909100
:1022B0000702A0910802B09109028851964FA040F0
:1022C000B0408093060290930702A0930802B09357
:1022D00009020895823029F4809181008E7F8093D5
:1022E000810080910402813031F4809105028130B7
:1022F00011F40000089580910402813021F0809152
:102300000502813011F45F9857980895982F8091B5
:102310000402882331F480910502882311F4579A2E
:102320005F98809104028823D1F49230C1F4109216
:1023300080001092810080918100886080938100EC
:1023400080918100816080938100109285001092BD
:10235000840081E08093890080E98093880008955B
:10236000EF92FF920F931F93CF93DF93EB0188239C
:1023700021F0813009F05AC02DC09A0140E050E0B0
:10238000CA01B9010E948A1920914002309141028C
:10239000220F331F40E050E00E94A91979018A0101
:1023A000A8019701220F331F441F551FCE01A0E043
:1023B000B0E082179307A407B50728F0F0924D020A
:1023C000E0924C0233C0D695C795D0934D02C0938E
:1023D0004C022CC09A0140E050E0CA01B9010E94B1
:1023E0008A192091420230914302220F331F40E0AC
:1023F00050E00E94A91979018A01A8019701220FD2
:10240000331F441F551FCE01A0E0B0E08217930791
:10241000A407B50728F0F0924F02E0924E0206C0E2
:10242000D695C795D0934F02C0934E02DF91CF91BE
:102430001F910F91FF90EF9008950E949A120E94B1
:10244000DA120E94B312089584B5826084BD85B506
:10245000846085BD8EE487BD0895CF92DF92EF92B0
:10246000FF920F931F93CF93DF93EC0180918D0226
:10247000882339F4D0938F02C0938E020E94961263
:1024800047C0C0908E02D0908F0200E010E0EE2492
:10249000FF2437C0A881B981FD0164817581F601EF
:1024A00040815181FA01848195819B01281B390B60
:1024B00037FF0FC0861B970B95838483DB82CA820C
:1024C000012B29F4D0938F02C0938E0221C0F70113
:1024D0000CC0F601828193812115310549F4FD017B
:1024E000158214829B838A83F601D383C28310C032
:1024F000FD01358324830097B9F30F5F1F4F7601E9
:102500006C0180918D0290E00817190718F2ECCF4A
:1025100080918D028F5F80938D02DF91CF911F910B
:102520000F91FF90EF90DF90CF90089581E080931E
:102530001502089588E00E94C409882311F484E0FC
:10254000089580911502882311F483E00895809105
:102550001402882311F082E008950E94271581302B
:10256000E1F380E0089580910502813011F58091BA
:102570000E0290910F022091100230911102280F4B
:10258000391F30930F0220930E0280910E0290911A
:102590000F02885E93406CF08BB180588BB98091AC
:1025A0000E0290910F02885E934090930F028093E9
:1025B0000E02089587E00E94C409813009F0AAC084
:1025C0008091400290914102892B09F1809164022F
:1025D000909165022091400230914102820F931F39
:1025E00090936502809364028091640290916502E9
:1025F000885E9340A4F08091640290916502885EA9
:102600009340909365028093640241E009C08091F9
:1026100038029091390290933D0280933C0240E051
:102620008091420290914302892B09F180916602C8
:10263000909167022091420230914302820F931FD2
:102640009093670280936602809166029091670280
:10265000885E9340A4F08091660290916702885E44
:102660009340909367028093660261E009C0809175
:102670003A0290913B0290933F0280933E0260E0C9
:10268000842F0E948B1380916002909161022091AF
:102690003C0230913D02280F391F30936102209394
:1026A00060028091600290916102885E934014F410
:1026B00040E00BC08091600290916102885E93407F
:1026C000909361028093600241E080916202909158
:1026D000630220913E0230913F02280F391F309350
:1026E0006302209362028091620290916302885E8D
:1026F000934014F460E00BC08091620290916302F9
:10270000885E9340909363028093620261E0842F1D
:102710000E94D01308958823F1F02091380230915F
:10272000390280913C0290913D02281B390B121610
:10273000130634F480913C0290913D02019607C04B
:10274000232B49F080913C0290913D020197909398
:102750003D0280933C02662311F120913A023091B0
:102760003B0280913E0290913F02281B390B1216CA
:10277000130654F480913E0290913F02019690938B
:102780003F0280933E020895232B49F080913E0240
:1027900090913F02019790933F0280933E020895EB
:1027A0000F931F93182F062F80916C02882309F036
:1027B000E7C080915402882309F05AC080913C02FE
:1027C00090913D02892BE9F480911602837E8093DB
:1027D000160210925D0280916802882309F45DC0A0
:1027E0006091560280E00E945109E0916A02F091E6
:1027F0006B02309709F451C081E080831092680227
:102800004CC080913602813041F480914802909111
:102810004902019711F411E002C01123F1F1E09196
:102820005B02F0E0EC55FE4F90911602937E8081A2
:10283000892B8093160280915902882321F480917C
:102840005B028F5F03C080915B02815080935B02CB
:1028500080915B02837080935B0281E080935D02D4
:10286000809136028130C9F480E00E94D31415C0F3
:1028700090911602937E90931602E0915B02F0E035
:10288000EC55FE4F8081892B8093160282E0809365
:102890005D0210923D0210923C0280915502882305
:1028A00009F059C080913E0290913F02892BE9F4D2
:1028B000809116028F718093160210925E028091B1
:1028C0006902882309F45CC06091570281E00E948C
:1028D0005109E0916A02F0916B02309709F450C0FF
:1028E00081E08183109269024BC080913702813070
:1028F00041F480914A0290914B02019711F401E05A
:1029000002C00023E9F1E0915C02F0E0E855FE4FDF
:10291000909116029F718081892B8093160280917D
:102920005A02882321F480915C028F5F03C080915A
:102930005C02815080935C0280915C028370809382
:102940005C0281E080935E02809137028130C1F4A5
:102950000E94D31415C0909116029F719093160295
:10296000E0915C02F0E0E855FE4F8081892B809376
:10297000160282E080935E0210923F0210923E02A5
:1029800080915F02882331F486E192E0612F402F2D
:102990000E94951588B1837090911602892B88B991
:1029A0001F910F910895882321F0813009F04EC0C6
:1029B00027C08091480290914902892B49F080916B
:1029C00048029091490201979093490280934802EE
:1029D000809168028823D1F5209148023091490204
:1029E00080914C0290914D022817390779F580E0CB
:1029F00060E070E00E94A30881E08093680208957F
:102A000080914A0290914B02892B49F080914A02B1
:102A100090914B02019790934B0280934A028091D0
:102A20006902882399F420914A0230914B028091E7
:102A30004E0290914F022817390741F481E060E07F
:102A400070E00E94A30881E0809369020895FF92DC
:102A50000F931F93CF93DF9380918D02882309F406
:102A600059C000918E0210918F02F801C081D1816E
:102A70008C819D8101979D838C83181619060CF417
:102A800049C0898180FF05C08E81882311F481E0CF
:102A90008E83898181FF03C0EF81F885099580913C
:102AA0008D028230A8F0F8018281938190938F0289
:102AB00080938E0213821282E0910000F091010057
:102AC00084819581181619063CF0FF24F39405C003
:102AD00010928F0210928E02FF2480918D028150FD
:102AE00080938D0280918D02882311F40E949215AB
:102AF000898182FF08C08A819B819D838C83C80164
:102B00000E942D1208C0C8010E94651A89818F7E1B
:102B1000898301C0FF248F2DDF91CF911F910F91E9
:102B2000FF900895109215020895FC0180915D02B6
:102B3000823069F480911A0291E0892780931A0209
:102B4000882309F03EC08081837E80833AC08091D3
:102B50003C0290913D02C397A4F56623D1F02091E9
:102B60003C0230913D0280E690E0BC01269FC0010E
:102B7000279F900D369F900D1124880F892F881F55
:102B8000990B909351028093500281E08093180238
:102B900018C0809118028823A1F080915002909172
:102BA00051020197909351028093500280915002FC
:102BB00090915102892B29F48081837E8083109229
:102BC000180280915E02823069F48091190291E0CE
:102BD000892780931902882309F03EC080818F7174
:102BE0008083089580913E0290913F02C397A4F59F
:102BF0004423D1F020913E0230913F0280E690E0E4
:102C0000AC01249FC001259F900D349F900D11248D
:102C1000880F892F881F990B90935302809352023B
:102C200081E0809317020895809117028823A1F014
:102C30008091520290915302019790935302809396
:102C400052028091520290915302892B29F4808183
:102C50008F7180831092170208950CD0BAC0B2D041
:102C600040F0A9D030F021F45F3F19F09BC0511122
:102C7000E4C09EC0BFD098F39923C9F35523B1F3A4
:102C8000951B550BBB27AA2762177307840738F0DB
:102C90009F5F5F4F220F331F441FAA1FA9F333D03A
:102CA0000E2E3AF0E0E830D091505040E695001CEE
:102CB000CAF729D0FE2F27D0660F771F881FBB1FAA
:102CC000261737074807AB07B0E809F0BB0B802D84
:102CD000BF01FF2793585F4F2AF09E3F510568F0D0
:102CE00061C0ABC05F3FECF3983EDCF3869577950F
:102CF0006795B795F7959F5FC9F7880F911D9695D2
:102D0000879597F90895E1E0660F771F881FBB1F2D
:102D1000621773078407BA0720F0621B730B840BDA
:102D2000BA0BEE1F88F7E0950895E89409C097FB69
:102D30003EF490958095709561957F4F8F4F9F4F92
:102D40009923A9F0F92F96E9BB279395F6958795D6
:102D500077956795B795F111F8CFFAF4BB0F11F499
:102D600060FF1BC06F5F7F4F8F4F9F4F16C0882340
:102D700011F096E911C0772321F09EE8872F762F76
:102D800005C0662371F096E8862F70E060E02AF0B7
:102D90009A95660F771F881FDAF7880F96958795A3
:102DA00097F9089597F99F6780E870E060E00895CB
:102DB0009FEF80EC089500240A9416161706180653
:102DC0000906089500240A9412161306140605062F
:102DD0000895092E0394000C11F4882352F0BB0FC0
:102DE00040F4BF2B11F460FF04C06F5F7F4F8F4F23
:102DF0009F4F089557FD9058440F551F59F05F3F5E
:102E000071F04795880F97FB991F61F09F3F79F00C
:102E100087950895121613061406551FF2CF46958E
:102E2000F1DF08C0161617061806991FF1CF869510
:102E30007105610508940895E894BB2766277727F4
:102E4000CB0197F90895DEDFA8F19E57A8F19851BC
:102E500060F039F1983070F5092E9927660F771FC9
:102E6000881F991F0A94D1F71CC0BB27993F4CF4C7
:102E7000B111B1E0B62B672F782F8827985FB1F793
:102E800008C0869577956795B79508F4B1609395D6
:102E9000C1F7BB0F30F411F460FF03C06F5F7F4FC9
:102EA0008F4F3EF490958095709561957F4F8F4F31
:102EB0009F4F08956894C1CFBFCF0BD08ACF7BDFDF
:102EC00028F080DF18F0952309F06CCF71CF112422
:102ED000B4CF90DFA0F3959FD1F3950F50E0551F2D
:102EE000629FF001729FBB27F00DB11D639FAA275F
:102EF000F00DB11DAA1F649F6627B00DA11D661FAE
:102F0000829F2227B00DA11D621F739FB00DA11DCE
:102F1000621F839FA00D611D221F749F3327A00D88
:102F2000611D231F849F600D211D822F762F6A2F24
:102F300011249F5750408AF0E1F088234AF0EE0FA9
:102F4000FF1FBB1F661F771F881F91505040A9F7B6
:102F50009E3F510570F026CF70CF5F3FECF3983E57
:102F6000DCF3869577956795B795F795E7959F5F1D
:102F7000C1F7FE2B880F911D9695879597F90895B7
:102F8000FA01EE0FFF1F30962105310599F1611509
:102F9000710561F48038BFE39B0749F1689490386C
:102FA000810561F08038BFEF9B0741F0992342F51E
:102FB000FF3FE1053105210511F1E8940894E795FB
:102FC000D901AA2329F4AB2FBE2FF85FD0F310C08C
:102FD000FF5F70F4A695E0F7F73950F019F0FF3A6B
:102FE00038F49F779F930CD00F9007FC905808956A
:102FF0003EF0DECE60E070E080E89FE308954FE7AA
:103000009F775F934F933F932F939ED02F913F9144
:103010004F915F9152DF05C019F40EF0C3CE0CCF73
:10302000C7CEF0DEC8F39638C0F707F80F92E894E1
:103030002BE33AEA48EB5FE74EDF0F920F920F92D5
:103040004DB75EB70F92C0D0E8ECF0E016D04F91CC
:103050005F91EF91FF91E595EE1FFF1F49F0FE573D
:10306000E0684427EE0F441FFA95E1F74195550BB0
:1030700032D00F9007FE26C00895DF93CF931F93A1
:103080000F93FF92EF92DF927B018C01689405C051
:10309000DA2EEF011EDFFE01E894A591259135910E
:1030A00045915591AEF3EF01D4D0FE019701A801EF
:1030B000DA9479F7DF90EF90FF900F911F91CF9105
:1030C000DF9108959B01AC0160E070E080E89FE330
:1030D000C4CD68CE11C196DEE8F39923D9F3940FDD
:1030E000511DBBF39150504094F059F0882332F0B9
:1030F000660F771F881F91505040C1F79E3F5105C2
:1031000044F7880F911D9695879597F908955F3F2D
:10311000ACF0983E9CF0BB27869577956795B79560
:1031200008F4B1609395C1F7BB0F58F711F460FF35
:10313000E8CF6F5F7F4F8F4F9F4FE3CF7ECE0EF074
:10314000DBC036CE68942ECE5DDEC8F39923D1F372
:10315000C6F3DF93CF931F930F93FF92C92FDD2701
:1031600088232AF02197660F771F881FDAF720E05F
:1031700030E040E85FEB9FE3883920F0803E30F09C
:1031800021968F7755D0E0EFF0E003C051D0EDE10C
:10319000F1E073DF8B01BE01EC01FB2E6F5771096B
:1031A0007595771F880B990BC2DD28E132E741E363
:1031B0005FE38FDEAF2D9801AE01FF900F911F915D
:1031C000CF91DF9146D005CEFA01DC01AA0FBB1FDB
:1031D0009B01AC01BF5728F422273327442750789E
:1031E0001FC0B75188F4AB2F00244695379527951B
:1031F000011CA395D2F3002069F0220F331F441F56
:10320000B395DAF30DD013C061307105A0E88A07D9
:10321000B94630F49B01AC01662777278827907860
:10322000309621F020833183428353830895505890
:10323000BB27AA270ED0CDCDBEDD30F0C3DD20F0F8
:1032400031F49F3F11F41EF4B3CD0EF4E095E7FB8B
:10325000A9CDE92FCFDD80F3BA1762077307840782
:10326000950718F071F49EF5E7CD0EF4E0950B2E5E
:10327000BA2FA02D0B01B90190010C01CA01A001C8
:103280001124FF27591B99F0593F50F4503E68F123
:103290001A16F040A22F232F342F4427585FF3CF64
:1032A000469537952795A795F0405395C9F77EF435
:1032B0001F16BA0B620B730B840BBAF09150A1F07E
:1032C000FF0FBB1F661F771F881FC2F70EC0BA0F04
:1032D000621F731F841F48F4879577956795B7958C
:1032E000F7959E3F08F0B3CF9395880F08F0992784
:1032F000EE0F9795879508959F3F31F0915020F4F8
:10330000879577956795B795880F911D96958795C1
:1033100097F90895629FD001739FF001829FE00D9D
:10332000F11D649FE00DF11D929FF00D839FF00D44
:10333000749FF00D659FF00D9927729FB00DE11DF0
:10334000F91F639FB00DE11DF91FBD01CF011124CD
:103350000895A1E21A2EAA1BBB1BFD010DC0AA1FD6
:10336000BB1FEE1FFF1FA217B307E407F50720F0EE
:10337000A21BB30BE40BF50B661F771F881F991F69
:103380001A9469F760957095809590959B01AC01B2
:10339000BD01CF010895CF93DF938230910510F4E2
:1033A00082E090E0E0919202F091930240E050E0E0
:1033B00020E030E026C06081718168177907E0F075
:1033C0006817790781F4828193812115310531F0E5
:1033D000D90113969C938E9312972BC090939302CE
:1033E0008093920226C04115510519F064177507A4
:1033F00018F4AB01E901DF019F0172816381E72FBE
:10340000F62F3097C1F64115510501F1481B590BB4
:103410004430510580F412968D919C91139720971A
:1034200019F09B838A8304C0909393028093920245
:10343000FD01329646C0FD01E40FF51F8193919383
:103440004250504011965C934E933BC020919002A5
:10345000309191022115310541F42091AE01309156
:10346000AF0130939102209390022091B0013091EE
:10347000B1012115310541F42DB73EB74091AC01A2
:103480005091AD01241B350BE0919002F091910217
:10349000E217F307A0F42E1B3F0B2817390778F02B
:1034A000AC014E5F5F4F2417350748F04E0F5F1F8A
:1034B00050939102409390028193919302C0E0E077
:1034C000F0E0CF01DF91CF910895CF93DF93009784
:1034D00009F491C0FC01329713821282609192022A
:1034E000709193026115710581F420813181280F5B
:1034F000391F80919002909191028217930799F55C
:10350000F0939102E093900276C0DB0180E090E0BE
:1035100002C0CD01D901AE17BF0748F412962D9114
:103520003C91139721153105A1F7CD0121C0B3833B
:10353000A283EF01499159919E01240F351FA217D3
:10354000B30779F42D913C911197240F351F2E5F0D
:103550003F4F3183208312962D913C9113973383F3
:103560002283009729F4F0939302E093920243C0E0
:10357000DC011396FC93EE9312974D915D91A40F8D
:10358000B51FEA17FB0769F420813181240F351F2D
:103590002E5F3F4FEC0139832883228133813B83A7
:1035A0002A83E0E0F0E002C0FB01BC01DB011296DF
:1035B0008D919C9113970097B9F79B012E5F3F4F18
:1035C0008D919C911197820F931F40919002509181
:1035D00091024817590779F4309729F41092930211
:1035E0001092920202C01382128222503040309315
:1035F000910220939002DF91CF910895A0E0B0E076
:10360000E4E0FBE10C94AA1DFE01359661917191F5
:103610008091960290919702AF010E94131B209611
:10362000E2E00C94C61DACE0B0E0E9E1FBE10C94F3
:103630009A1D6C011B018A01FC011782168283818D
:1036400081FFD1C12E010894411C511CF6019381C8
:10365000F10193FD859193FF81911F01882309F466
:10366000BEC1853239F493FD859193FF81911F018D
:10367000853229F490E0B6010E94101DE7CFEE24B8
:10368000FF2420E02032B0F48B3269F08C3228F431
:10369000803251F0833271F40BC08D3239F08033B7
:1036A00049F421602CC02260246029C0286027C012
:1036B000206125C027FD2CC0382F30533A3098F4B4
:1036C00026FF08C08E2D880FE82EEE0CEE0CE80EBB
:1036D000E30E15C08F2D880FF82EFF0CFF0CF80E8F
:1036E000F30E20620CC08E3221F426FD78C12064D6
:1036F00006C08C3611F4206802C0883649F4F10106
:1037000093FD859193FF81911F01882309F0BACF22
:10371000982F9554933018F09052933028F40C5F02
:103720001F4FFFE3F9830DC0833631F0833771F00B
:10373000833509F060C022C0F801808189830E5F63
:103740001F4F420171E0A72EB12C16C062E0662E19
:10375000712C600E711EF8018080918026FF03C0DD
:103760006E2D70E002C06FEF7FEFC4012C870E94C6
:10377000051D5C0183012C852F7717C052E0652E53
:10378000712C600E711EF8018080918026FF03C0AD
:103790006E2D70E002C06FEF7FEFC4012C870E9496
:1037A000FA1C5C012C852068830123FD20C008C021
:1037B00080E290E0B6012C870E94101DFA942C85BF
:1037C0008F2D90E0A816B90698F311C0F40127FDDB
:1037D000859127FF81914F0190E0B6012C870E94CF
:1037E000101D2C85F110FA940894A108B108A114B9
:1037F000B10461F7F1C0843611F0893649F527FF2D
:1038000008C0F80160817181828193810C5F1F4F34
:1038100009C0F80160817181882777FD8095982F14
:103820000E5F1F4F4FE6B42EB22297FF09C090954E
:103830008095709561957F4F8F4F9F4FF0E8BF2A1D
:10384000A2012AE030E00E943C1D782E741845C089
:10385000853731F43FEEB32EB2222AE030E025C0A6
:1038600099EFB92EB2228F36C1F0803720F4883517
:1038700009F0B5C00DC0803721F0883709F0AFC01E
:1038800002C020E1B22AB4FE0BC084E0B82A08C00E
:10389000B4FE09C0E6E0BE2A06C028E030E005C05C
:1038A00020E130E002C020E132E0B7FE08C0F801BC
:1038B00060817181828193810C5F1F4F07C0F80185
:1038C0006081718180E090E00E5F1F4FA2010E9435
:1038D0003C1D782E7418FFE7BF22B6FE0BC02EEFFA
:1038E000B2227E1438F4B4FE07C0B2FC05C08FEEDD
:1038F000B82202C0A72C01C0AE2C8B2D90E0B4FEE4
:103900000DC0FE01E70DF11D2081203319F4E9EE11
:10391000BE2209C0A394B2FE06C004C0867890708F
:10392000009709F0A3948B2C9924B3FC14C0B0FE2B
:103930000FC0AF1428F4E72CEF0CEA18AF2C08C026
:10394000E72C06C080E290E0B6010E94101DA3940F
:10395000AF14C0F304C0AF1410F4FA1801C0FF2470
:1039600084FE0FC080E390E0B6010E94101D82FE2D
:103970001FC081FE03C088E590E010C088E790E09A
:103980000DC0C40186789070009791F081FC02C050
:1039900080E201C08BE2B7FC8DE290E0B6010E94AC
:1039A000101D06C080E390E0B6010E94101DEA944D
:1039B0007E14C0F37A94F201E70DF11D808190E04E
:1039C000B6010E94101D7720A9F706C080E290E0A2
:1039D000B6010E94101DFA94FF20C1F737CEF60100
:1039E0002681378102C02FEF3FEFC9012C96E2E11B
:1039F0000C94B61DFC010590615070400110D8F781
:103A0000809590958E0F9F1F0895FC016150704026
:103A100001900110D8F7809590958E0F9F1F089503
:103A20000F931F93CF93DF938C01EB018B8181FF69
:103A30001BC082FF0DC02E813F818C819D81281784
:103A4000390764F4E881F9810193F983E88306C0BA
:103A5000E885F985802F0995009731F48E819F8143
:103A600001969F838E8302C00FEF1FEFC801DF9185
:103A7000CF911F910F910895FA01AA27283051F193
:103A8000203181F1E8946F936E7F6E5F7F4F8F4F8F
:103A90009F4FAF4FB1E03ED0B4E03CD0670F781FEE
:103AA000891F9A1FA11D680F791F8A1F911DA11DD3
:103AB0006A0F711D811D911DA11D20D009F468940C
:103AC0003F912AE0269F11243019305D3193DEF6B4
:103AD000CF010895462F4770405D4193B3E00FD06A
:103AE000C9F7F6CF462F4F70405D4A3318F0495D55
:103AF00031FD4052419302D0A9F7EACFB4E0A69538
:103B00009795879577956795BA95C9F70097610559
:103B1000710508959B01AC010A2E069457954795AF
:103B200037952795BA95C9F7620F731F841F951FA4
:103B3000A01D08952F923F924F925F926F927F92B5
:103B40008F929F92AF92BF92CF92DF92EF92FF92AD
:103B50000F931F93CF93DF93CDB7DEB7CA1BDB0B59
:103B60000FB6F894DEBF0FBECDBF09942A883988FE
:103B700048885F846E847D848C849B84AA84B98405
:103B8000C884DF80EE80FD800C811B81AA81B98111
:103B9000CE0FD11D0FB6F894DEBF0FBECDBFED0125
:063BA0000895F894FFCF28
:103BA60054727920736179696E673A0A22434545F2
:103BB6004E626F7420476F2200466F72776172649F
:103BC600004261636B77617264005475726E2052B5
:103BD60069676874005475726E204C65667400548B
:103BE60075726E2041726F756E640053746F70004B
:103BF60044454641554C5420535441544500000019
:103C0600000200000000B70C000000001C050000C8
:103C160069050000BC0500001306000070060000E0
:103C2600D20600003A070000A80700001C080000A2
:103C3600980800001A090000A50900000002040502
:103C460007090B00180C0410C080206020009A029F
:023C560000006C
:00000001FF
